{
  "contractName": "Cell",
  "abi": [
    {
      "inputs": [
        {
          "internalType": "address",
          "name": "_proxyRegistryAddress",
          "type": "address"
        }
      ],
      "payable": false,
      "stateMutability": "nonpayable",
      "type": "constructor"
    },
    {
      "anonymous": false,
      "inputs": [
        {
          "indexed": true,
          "internalType": "address",
          "name": "owner",
          "type": "address"
        },
        {
          "indexed": true,
          "internalType": "address",
          "name": "approved",
          "type": "address"
        },
        {
          "indexed": true,
          "internalType": "uint256",
          "name": "tokenId",
          "type": "uint256"
        }
      ],
      "name": "Approval",
      "type": "event"
    },
    {
      "anonymous": false,
      "inputs": [
        {
          "indexed": true,
          "internalType": "address",
          "name": "owner",
          "type": "address"
        },
        {
          "indexed": true,
          "internalType": "address",
          "name": "operator",
          "type": "address"
        },
        {
          "indexed": false,
          "internalType": "bool",
          "name": "approved",
          "type": "bool"
        }
      ],
      "name": "ApprovalForAll",
      "type": "event"
    },
    {
      "anonymous": false,
      "inputs": [
        {
          "indexed": false,
          "internalType": "address",
          "name": "minter",
          "type": "address"
        },
        {
          "indexed": false,
          "internalType": "bytes32",
          "name": "queryId",
          "type": "bytes32"
        },
        {
          "indexed": false,
          "internalType": "uint256",
          "name": "seed",
          "type": "uint256"
        },
        {
          "indexed": false,
          "internalType": "uint256",
          "name": "tokenId",
          "type": "uint256"
        }
      ],
      "name": "LogMintQuery",
      "type": "event"
    },
    {
      "anonymous": false,
      "inputs": [
        {
          "indexed": true,
          "internalType": "address",
          "name": "from",
          "type": "address"
        },
        {
          "indexed": true,
          "internalType": "address",
          "name": "to",
          "type": "address"
        },
        {
          "indexed": true,
          "internalType": "uint256",
          "name": "tokenId",
          "type": "uint256"
        }
      ],
      "name": "Transfer",
      "type": "event"
    },
    {
      "constant": false,
      "inputs": [
        {
          "internalType": "address",
          "name": "to",
          "type": "address"
        },
        {
          "internalType": "uint256",
          "name": "tokenId",
          "type": "uint256"
        }
      ],
      "name": "approve",
      "outputs": [],
      "payable": false,
      "stateMutability": "nonpayable",
      "type": "function"
    },
    {
      "constant": true,
      "inputs": [
        {
          "internalType": "address",
          "name": "owner",
          "type": "address"
        }
      ],
      "name": "balanceOf",
      "outputs": [
        {
          "internalType": "uint256",
          "name": "",
          "type": "uint256"
        }
      ],
      "payable": false,
      "stateMutability": "view",
      "type": "function"
    },
    {
      "constant": true,
      "inputs": [],
      "name": "baseURI",
      "outputs": [
        {
          "internalType": "string",
          "name": "",
          "type": "string"
        }
      ],
      "payable": false,
      "stateMutability": "view",
      "type": "function"
    },
    {
      "constant": true,
      "inputs": [
        {
          "internalType": "uint256",
          "name": "tokenId",
          "type": "uint256"
        }
      ],
      "name": "getApproved",
      "outputs": [
        {
          "internalType": "address",
          "name": "",
          "type": "address"
        }
      ],
      "payable": false,
      "stateMutability": "view",
      "type": "function"
    },
    {
      "constant": true,
      "inputs": [
        {
          "internalType": "address",
          "name": "owner",
          "type": "address"
        },
        {
          "internalType": "address",
          "name": "operator",
          "type": "address"
        }
      ],
      "name": "isApprovedForAll",
      "outputs": [
        {
          "internalType": "bool",
          "name": "",
          "type": "bool"
        }
      ],
      "payable": false,
      "stateMutability": "view",
      "type": "function"
    },
    {
      "constant": true,
      "inputs": [],
      "name": "massPool",
      "outputs": [
        {
          "internalType": "uint256",
          "name": "",
          "type": "uint256"
        }
      ],
      "payable": false,
      "stateMutability": "view",
      "type": "function"
    },
    {
      "constant": true,
      "inputs": [],
      "name": "maxTokenId",
      "outputs": [
        {
          "internalType": "uint256",
          "name": "",
          "type": "uint256"
        }
      ],
      "payable": false,
      "stateMutability": "view",
      "type": "function"
    },
    {
      "constant": true,
      "inputs": [],
      "name": "name",
      "outputs": [
        {
          "internalType": "string",
          "name": "",
          "type": "string"
        }
      ],
      "payable": false,
      "stateMutability": "view",
      "type": "function"
    },
    {
      "constant": true,
      "inputs": [
        {
          "internalType": "uint256",
          "name": "",
          "type": "uint256"
        }
      ],
      "name": "nftSeed",
      "outputs": [
        {
          "internalType": "uint256",
          "name": "",
          "type": "uint256"
        }
      ],
      "payable": false,
      "stateMutability": "view",
      "type": "function"
    },
    {
      "constant": true,
      "inputs": [],
      "name": "owner",
      "outputs": [
        {
          "internalType": "address payable",
          "name": "",
          "type": "address"
        }
      ],
      "payable": false,
      "stateMutability": "view",
      "type": "function"
    },
    {
      "constant": true,
      "inputs": [
        {
          "internalType": "uint256",
          "name": "tokenId",
          "type": "uint256"
        }
      ],
      "name": "ownerOf",
      "outputs": [
        {
          "internalType": "address",
          "name": "",
          "type": "address"
        }
      ],
      "payable": false,
      "stateMutability": "view",
      "type": "function"
    },
    {
      "constant": true,
      "inputs": [
        {
          "internalType": "bytes32",
          "name": "",
          "type": "bytes32"
        }
      ],
      "name": "provableQueryToAddress",
      "outputs": [
        {
          "internalType": "address",
          "name": "",
          "type": "address"
        }
      ],
      "payable": false,
      "stateMutability": "view",
      "type": "function"
    },
    {
      "constant": true,
      "inputs": [
        {
          "internalType": "bytes32",
          "name": "",
          "type": "bytes32"
        }
      ],
      "name": "provableQueryToSeed",
      "outputs": [
        {
          "internalType": "uint16",
          "name": "",
          "type": "uint16"
        }
      ],
      "payable": false,
      "stateMutability": "view",
      "type": "function"
    },
    {
      "constant": true,
      "inputs": [
        {
          "internalType": "bytes32",
          "name": "",
          "type": "bytes32"
        }
      ],
      "name": "provableQueryToTokenId",
      "outputs": [
        {
          "internalType": "uint256",
          "name": "",
          "type": "uint256"
        }
      ],
      "payable": false,
      "stateMutability": "view",
      "type": "function"
    },
    {
      "constant": false,
      "inputs": [
        {
          "internalType": "address",
          "name": "from",
          "type": "address"
        },
        {
          "internalType": "address",
          "name": "to",
          "type": "address"
        },
        {
          "internalType": "uint256",
          "name": "tokenId",
          "type": "uint256"
        }
      ],
      "name": "safeTransferFrom",
      "outputs": [],
      "payable": false,
      "stateMutability": "nonpayable",
      "type": "function"
    },
    {
      "constant": false,
      "inputs": [
        {
          "internalType": "address",
          "name": "from",
          "type": "address"
        },
        {
          "internalType": "address",
          "name": "to",
          "type": "address"
        },
        {
          "internalType": "uint256",
          "name": "tokenId",
          "type": "uint256"
        },
        {
          "internalType": "bytes",
          "name": "_data",
          "type": "bytes"
        }
      ],
      "name": "safeTransferFrom",
      "outputs": [],
      "payable": false,
      "stateMutability": "nonpayable",
      "type": "function"
    },
    {
      "constant": false,
      "inputs": [
        {
          "internalType": "address",
          "name": "to",
          "type": "address"
        },
        {
          "internalType": "bool",
          "name": "approved",
          "type": "bool"
        }
      ],
      "name": "setApprovalForAll",
      "outputs": [],
      "payable": false,
      "stateMutability": "nonpayable",
      "type": "function"
    },
    {
      "constant": true,
      "inputs": [
        {
          "internalType": "bytes4",
          "name": "interfaceId",
          "type": "bytes4"
        }
      ],
      "name": "supportsInterface",
      "outputs": [
        {
          "internalType": "bool",
          "name": "",
          "type": "bool"
        }
      ],
      "payable": false,
      "stateMutability": "view",
      "type": "function"
    },
    {
      "constant": true,
      "inputs": [],
      "name": "symbol",
      "outputs": [
        {
          "internalType": "string",
          "name": "",
          "type": "string"
        }
      ],
      "payable": false,
      "stateMutability": "view",
      "type": "function"
    },
    {
      "constant": true,
      "inputs": [
        {
          "internalType": "uint256",
          "name": "index",
          "type": "uint256"
        }
      ],
      "name": "tokenByIndex",
      "outputs": [
        {
          "internalType": "uint256",
          "name": "",
          "type": "uint256"
        }
      ],
      "payable": false,
      "stateMutability": "view",
      "type": "function"
    },
    {
      "constant": true,
      "inputs": [
        {
          "internalType": "address",
          "name": "owner",
          "type": "address"
        },
        {
          "internalType": "uint256",
          "name": "index",
          "type": "uint256"
        }
      ],
      "name": "tokenOfOwnerByIndex",
      "outputs": [
        {
          "internalType": "uint256",
          "name": "",
          "type": "uint256"
        }
      ],
      "payable": false,
      "stateMutability": "view",
      "type": "function"
    },
    {
      "constant": true,
      "inputs": [
        {
          "internalType": "uint256",
          "name": "tokenId",
          "type": "uint256"
        }
      ],
      "name": "tokenURI",
      "outputs": [
        {
          "internalType": "string",
          "name": "",
          "type": "string"
        }
      ],
      "payable": false,
      "stateMutability": "view",
      "type": "function"
    },
    {
      "constant": true,
      "inputs": [],
      "name": "totalSupply",
      "outputs": [
        {
          "internalType": "uint256",
          "name": "",
          "type": "uint256"
        }
      ],
      "payable": false,
      "stateMutability": "view",
      "type": "function"
    },
    {
      "constant": false,
      "inputs": [
        {
          "internalType": "address",
          "name": "from",
          "type": "address"
        },
        {
          "internalType": "address",
          "name": "to",
          "type": "address"
        },
        {
          "internalType": "uint256",
          "name": "tokenId",
          "type": "uint256"
        }
      ],
      "name": "transferFrom",
      "outputs": [],
      "payable": false,
      "stateMutability": "nonpayable",
      "type": "function"
    },
    {
      "constant": false,
      "inputs": [
        {
          "internalType": "bytes32",
          "name": "_myid",
          "type": "bytes32"
        },
        {
          "internalType": "string",
          "name": "_result",
          "type": "string"
        }
      ],
      "name": "__callback",
      "outputs": [],
      "payable": false,
      "stateMutability": "nonpayable",
      "type": "function"
    },
    {
      "constant": false,
      "inputs": [
        {
          "internalType": "bytes32",
          "name": "_queryId",
          "type": "bytes32"
        },
        {
          "internalType": "string",
          "name": "_result",
          "type": "string"
        },
        {
          "internalType": "bytes",
          "name": "_proof",
          "type": "bytes"
        }
      ],
      "name": "__callback",
      "outputs": [],
      "payable": false,
      "stateMutability": "nonpayable",
      "type": "function"
    },
    {
      "constant": false,
      "inputs": [
        {
          "internalType": "uint16",
          "name": "seed",
          "type": "uint16"
        }
      ],
      "name": "mint",
      "outputs": [],
      "payable": true,
      "stateMutability": "payable",
      "type": "function"
    },
    {
      "constant": false,
      "inputs": [
        {
          "internalType": "uint256",
          "name": "id1",
          "type": "uint256"
        },
        {
          "internalType": "uint256",
          "name": "id2",
          "type": "uint256"
        }
      ],
      "name": "merge",
      "outputs": [],
      "payable": true,
      "stateMutability": "payable",
      "type": "function"
    },
    {
      "constant": false,
      "inputs": [
        {
          "internalType": "uint256",
          "name": "id",
          "type": "uint256"
        }
      ],
      "name": "split",
      "outputs": [],
      "payable": true,
      "stateMutability": "payable",
      "type": "function"
    },
    {
      "constant": true,
      "inputs": [
        {
          "internalType": "uint256",
          "name": "id",
          "type": "uint256"
        }
      ],
      "name": "get",
      "outputs": [
        {
          "internalType": "uint256",
          "name": "mass",
          "type": "uint256"
        },
        {
          "internalType": "uint32",
          "name": "wallWave",
          "type": "uint32"
        },
        {
          "internalType": "bool",
          "name": "wallRound",
          "type": "bool"
        },
        {
          "internalType": "uint24",
          "name": "wallColor",
          "type": "uint24"
        },
        {
          "internalType": "bool",
          "name": "nucleusHidden",
          "type": "bool"
        },
        {
          "internalType": "uint24",
          "name": "nucleusColor",
          "type": "uint24"
        },
        {
          "internalType": "uint8[]",
          "name": "featureCategories",
          "type": "uint8[]"
        },
        {
          "internalType": "uint8[]",
          "name": "featureFamilies",
          "type": "uint8[]"
        },
        {
          "internalType": "uint8[]",
          "name": "featureCounts",
          "type": "uint8[]"
        },
        {
          "internalType": "uint24[]",
          "name": "featureColors",
          "type": "uint24[]"
        }
      ],
      "payable": false,
      "stateMutability": "view",
      "type": "function"
    }
  ],
  "bytecode": "0x608060405273a096b47ebf7727d01ff4f09c34fc6591f2c375f0601460006101000a81548173ffffffffffffffffffffffffffffffffffffffff021916908373ffffffffffffffffffffffffffffffffffffffff16021790555063ef03be806017556203d0906018553480156200007557600080fd5b5060405162007b7838038062007b78833981810160405260208110156200009b57600080fd5b81019080805190602001909291905050506040518060400160405280600481526020017f43656c6c000000000000000000000000000000000000000000000000000000008152506040518060400160405280600381526020017f28592900000000000000000000000000000000000000000000000000000000008152508181620001326301ffc9a760e01b6200025260201b60201c565b6200014a6380ac58cd60e01b6200025260201b60201c565b6200016263780e9d6360e01b6200025260201b60201c565b81600990805190602001906200017a929190620013fa565b5080600a908051906020019062000193929190620013fa565b50620001ac635b5e139f60e01b6200025260201b60201c565b505050506f27df6dbfa09e777e1ea7ee5000000000601381905550620001da3360016200035b60201b60201c565b600160128190555080601560006101000a81548173ffffffffffffffffffffffffffffffffffffffff021916908373ffffffffffffffffffffffffffffffffffffffff16021790555062000238603060f81b6200039960201b60201c565b6200024b601754620006ff60201b60201c565b50620014a9565b63ffffffff60e01b817bffffffffffffffffffffffffffffffffffffffffffffffffffffffff19161415620002ef576040517f08c379a000000000000000000000000000000000000000000000000000000000815260040180806020018281038252601c8152602001807f4552433136353a20696e76616c696420696e746572666163652069640000000081525060200191505060405180910390fd5b6001600080837bffffffffffffffffffffffffffffffffffffffffffffffffffffffff19167bffffffffffffffffffffffffffffffffffffffffffffffffffffffff1916815260200190815260200160002060006101000a81548160ff02191690831515021790555050565b62000372828262000a2160201b6200419d1760201c565b62000384828262000c5060201b60201c565b620003958162000d1760201b60201c565b5050565b600073ffffffffffffffffffffffffffffffffffffffff16600e60009054906101000a900473ffffffffffffffffffffffffffffffffffffffff1673ffffffffffffffffffffffffffffffffffffffff161480620004295750600062000427600e60009054906101000a900473ffffffffffffffffffffffffffffffffffffffff1662000d6360201b60201c565b145b15620004435762000441600062000d6e60201b60201c565b505b600e60009054906101000a900473ffffffffffffffffffffffffffffffffffffffff1673ffffffffffffffffffffffffffffffffffffffff166338cc48316040518163ffffffff1660e01b8152600401602060405180830381600087803b158015620004ae57600080fd5b505af1158015620004c3573d6000803e3d6000fd5b505050506040513d6020811015620004da57600080fd5b810190808051906020019092919050505073ffffffffffffffffffffffffffffffffffffffff16600d60009054906101000a900473ffffffffffffffffffffffffffffffffffffffff1673ffffffffffffffffffffffffffffffffffffffff16146200062957600e60009054906101000a900473ffffffffffffffffffffffffffffffffffffffff1673ffffffffffffffffffffffffffffffffffffffff166338cc48316040518163ffffffff1660e01b8152600401602060405180830381600087803b158015620005ab57600080fd5b505af1158015620005c0573d6000803e3d6000fd5b505050506040513d6020811015620005d757600080fd5b8101908080519060200190929190505050600d60006101000a81548173ffffffffffffffffffffffffffffffffffffffff021916908373ffffffffffffffffffffffffffffffffffffffff1602179055505b600d60009054906101000a900473ffffffffffffffffffffffffffffffffffffffff1673ffffffffffffffffffffffffffffffffffffffff1663688dcfd7826040518263ffffffff1660e01b815260040180827effffffffffffffffffffffffffffffffffffffffffffffffffffffffffffff19167effffffffffffffffffffffffffffffffffffffffffffffffffffffffffffff19168152602001915050600060405180830381600087803b158015620006e357600080fd5b505af1158015620006f8573d6000803e3d6000fd5b5050505050565b600073ffffffffffffffffffffffffffffffffffffffff16600e60009054906101000a900473ffffffffffffffffffffffffffffffffffffffff1673ffffffffffffffffffffffffffffffffffffffff1614806200078f575060006200078d600e60009054906101000a900473ffffffffffffffffffffffffffffffffffffffff1662000d6360201b60201c565b145b15620007a957620007a7600062000d6e60201b60201c565b505b600e60009054906101000a900473ffffffffffffffffffffffffffffffffffffffff1673ffffffffffffffffffffffffffffffffffffffff166338cc48316040518163ffffffff1660e01b8152600401602060405180830381600087803b1580156200081457600080fd5b505af115801562000829573d6000803e3d6000fd5b505050506040513d60208110156200084057600080fd5b810190808051906020019092919050505073ffffffffffffffffffffffffffffffffffffffff16600d60009054906101000a900473ffffffffffffffffffffffffffffffffffffffff1673ffffffffffffffffffffffffffffffffffffffff16146200098f57600e60009054906101000a900473ffffffffffffffffffffffffffffffffffffffff1673ffffffffffffffffffffffffffffffffffffffff166338cc48316040518163ffffffff1660e01b8152600401602060405180830381600087803b1580156200091157600080fd5b505af115801562000926573d6000803e3d6000fd5b505050506040513d60208110156200093d57600080fd5b8101908080519060200190929190505050600d60006101000a81548173ffffffffffffffffffffffffffffffffffffffff021916908373ffffffffffffffffffffffffffffffffffffffff1602179055505b600d60009054906101000a900473ffffffffffffffffffffffffffffffffffffffff1673ffffffffffffffffffffffffffffffffffffffff1663ca6ad1e4826040518263ffffffff1660e01b815260040180828152602001915050600060405180830381600087803b15801562000a0557600080fd5b505af115801562000a1a573d6000803e3d6000fd5b5050505050565b600073ffffffffffffffffffffffffffffffffffffffff168273ffffffffffffffffffffffffffffffffffffffff16141562000ac5576040517f08c379a00000000000000000000000000000000000000000000000000000000081526004018080602001828103825260208152602001807f4552433732313a206d696e7420746f20746865207a65726f206164647265737381525060200191505060405180910390fd5b62000ad68162000d8760201b60201c565b1562000b4a576040517f08c379a000000000000000000000000000000000000000000000000000000000815260040180806020018281038252601c8152602001807f4552433732313a20746f6b656e20616c7265616479206d696e7465640000000081525060200191505060405180910390fd5b816001600083815260200190815260200160002060006101000a81548173ffffffffffffffffffffffffffffffffffffffff021916908373ffffffffffffffffffffffffffffffffffffffff16021790555062000bf0600360008473ffffffffffffffffffffffffffffffffffffffff1673ffffffffffffffffffffffffffffffffffffffff16815260200190815260200160002062000df960201b620050d31760201c565b808273ffffffffffffffffffffffffffffffffffffffff16600073ffffffffffffffffffffffffffffffffffffffff167fddf252ad1be2c89b69c2b068fc378daa952ba7f163c4a11628f55a4df523b3ef60405160405180910390a45050565b600560008373ffffffffffffffffffffffffffffffffffffffff1673ffffffffffffffffffffffffffffffffffffffff168152602001908152602001600020805490506006600083815260200190815260200160002081905550600560008373ffffffffffffffffffffffffffffffffffffffff1673ffffffffffffffffffffffffffffffffffffffff1681526020019081526020016000208190806001815401808255809150509060018203906000526020600020016000909192909190915055505050565b6007805490506008600083815260200190815260200160002081905550600781908060018154018082558091505090600182039060005260206000200160009091929091909150555050565b6000813b9050919050565b600062000d8062000e0f60201b60201c565b9050919050565b6000806001600084815260200190815260200160002060009054906101000a900473ffffffffffffffffffffffffffffffffffffffff169050600073ffffffffffffffffffffffffffffffffffffffff168173ffffffffffffffffffffffffffffffffffffffff161415915050919050565b6001816000016000828254019250508190555050565b60008062000e37731d3b2638a7cc9f2cb3d298a3da7a90b67e5506ed62000d6360201b60201c565b111562000ee357731d3b2638a7cc9f2cb3d298a3da7a90b67e5506ed600e60006101000a81548173ffffffffffffffffffffffffffffffffffffffff021916908373ffffffffffffffffffffffffffffffffffffffff16021790555062000ed96040518060400160405280600b81526020017f6574685f6d61696e6e6574000000000000000000000000000000000000000000815250620013de60201b60201c565b60019050620013db565b600062000f0a73c03a2615d5efaf5f49f60b7bb6583eaec212fdf162000d6360201b60201c565b111562000fb65773c03a2615d5efaf5f49f60b7bb6583eaec212fdf1600e60006101000a81548173ffffffffffffffffffffffffffffffffffffffff021916908373ffffffffffffffffffffffffffffffffffffffff16021790555062000fac6040518060400160405280600c81526020017f6574685f726f707374656e330000000000000000000000000000000000000000815250620013de60201b60201c565b60019050620013db565b600062000fdd73b7a07bcf2ba2f2703b24c0691b5278999c59ac7e62000d6360201b60201c565b1115620010895773b7a07bcf2ba2f2703b24c0691b5278999c59ac7e600e60006101000a81548173ffffffffffffffffffffffffffffffffffffffff021916908373ffffffffffffffffffffffffffffffffffffffff1602179055506200107f6040518060400160405280600981526020017f6574685f6b6f76616e0000000000000000000000000000000000000000000000815250620013de60201b60201c565b60019050620013db565b6000620010b073146500cfd35b22e4a392fe0adc06de1a1368ed4862000d6360201b60201c565b11156200115c5773146500cfd35b22e4a392fe0adc06de1a1368ed48600e60006101000a81548173ffffffffffffffffffffffffffffffffffffffff021916908373ffffffffffffffffffffffffffffffffffffffff160217905550620011526040518060400160405280600b81526020017f6574685f72696e6b656279000000000000000000000000000000000000000000815250620013de60201b60201c565b60019050620013db565b60006200118373a2998efd205fb9d4b4963afb70778d6354ad3a4162000d6360201b60201c565b11156200122f5773a2998efd205fb9d4b4963afb70778d6354ad3a41600e60006101000a81548173ffffffffffffffffffffffffffffffffffffffff021916908373ffffffffffffffffffffffffffffffffffffffff160217905550620012256040518060400160405280600a81526020017f6574685f676f65726c6900000000000000000000000000000000000000000000815250620013de60201b60201c565b60019050620013db565b600062001256736f485c8bf6fc43ea212e93bbf8ce046c7f1cb47562000d6360201b60201c565b1115620012bc57736f485c8bf6fc43ea212e93bbf8ce046c7f1cb475600e60006101000a81548173ffffffffffffffffffffffffffffffffffffffff021916908373ffffffffffffffffffffffffffffffffffffffff16021790555060019050620013db565b6000620012e37320e12a1f859b3feae5fb2a0a32c18f5a65555bbf62000d6360201b60201c565b111562001349577320e12a1f859b3feae5fb2a0a32c18f5a65555bbf600e60006101000a81548173ffffffffffffffffffffffffffffffffffffffff021916908373ffffffffffffffffffffffffffffffffffffffff16021790555060019050620013db565b6000620013707351efaf4c8b3c9afbd5ab9f4bbc82784ab6ef8faa62000d6360201b60201c565b1115620013d6577351efaf4c8b3c9afbd5ab9f4bbc82784ab6ef8faa600e60006101000a81548173ffffffffffffffffffffffffffffffffffffffff021916908373ffffffffffffffffffffffffffffffffffffffff16021790555060019050620013db565b600090505b90565b80600f9080519060200190620013f6929190620013fa565b5050565b828054600181600116156101000203166002900490600052602060002090601f016020900481019282601f106200143d57805160ff19168380011785556200146e565b828001600101855582156200146e579182015b828111156200146d57825182559160200191906001019062001450565b5b5090506200147d919062001481565b5090565b620014a691905b80821115620014a257600081600090555060010162001488565b5090565b90565b6166bf80620014b96000396000f3fe6080604052600436106101cd5760003560e01c80636c0360eb116100f7578063a22cb46511610095578063dbceb00511610064578063dbceb00514610f5e578063e985e9c514610f8c578063eb89ce7714611015578063fb4092c014611090576101cd565b8063a22cb46514610d03578063b88d4fde14610d60578063c87b56dd14610e72578063d1c2babb14610f26576101cd565b806391ba317a116100d157806391ba317a14610a3f5780639290b5be14610a6a5780639507d39a14610ab957806395d89b4114610c73576101cd565b80636c0360eb146108f357806370a08231146109835780638da5cb5b146109e8576101cd565b806327dc297e1161016f578063453b47911161013e578063453b4791146107a75780634f6ccce7146107d2578063525125de146108215780636352211e14610878576101cd565b806327dc297e146104825780632f745c591461055457806338bbfa50146105c357806342842e0e1461072c576101cd565b8063095ea7b3116101ab578063095ea7b31461034f57806318160ddd146103aa57806323b872dd146103d557806323cf0a2214610450576101cd565b806301ffc9a7146101d257806306fdde0314610244578063081812fc146102d4575b600080fd5b3480156101de57600080fd5b5061022a600480360360208110156101f557600080fd5b8101908080357bffffffffffffffffffffffffffffffffffffffffffffffffffffffff191690602001909291905050506110df565b604051808215151515815260200191505060405180910390f35b34801561025057600080fd5b50610259611146565b6040518080602001828103825283818151815260200191508051906020019080838360005b8381101561029957808201518184015260208101905061027e565b50505050905090810190601f1680156102c65780820380516001836020036101000a031916815260200191505b509250505060405180910390f35b3480156102e057600080fd5b5061030d600480360360208110156102f757600080fd5b81019080803590602001909291905050506111e8565b604051808273ffffffffffffffffffffffffffffffffffffffff1673ffffffffffffffffffffffffffffffffffffffff16815260200191505060405180910390f35b34801561035b57600080fd5b506103a86004803603604081101561037257600080fd5b81019080803573ffffffffffffffffffffffffffffffffffffffff16906020019092919080359060200190929190505050611283565b005b3480156103b657600080fd5b506103bf61146a565b6040518082815260200191505060405180910390f35b3480156103e157600080fd5b5061044e600480360360608110156103f857600080fd5b81019080803573ffffffffffffffffffffffffffffffffffffffff169060200190929190803573ffffffffffffffffffffffffffffffffffffffff16906020019092919080359060200190929190505050611477565b005b6104806004803603602081101561046657600080fd5b81019080803561ffff1690602001909291905050506114ed565b005b34801561048e57600080fd5b50610552600480360360408110156104a557600080fd5b8101908080359060200190929190803590602001906401000000008111156104cc57600080fd5b8201836020820111156104de57600080fd5b8035906020019184600183028401116401000000008311171561050057600080fd5b91908080601f016020809104026020016040519081016040528093929190818152602001838380828437600081840152601f19601f8201169050808301925050505050505091929192905050506118eb565b005b34801561056057600080fd5b506105ad6004803603604081101561057757600080fd5b81019080803573ffffffffffffffffffffffffffffffffffffffff1690602001909291908035906020019092919050505061192e565b6040518082815260200191505060405180910390f35b3480156105cf57600080fd5b5061072a600480360360608110156105e657600080fd5b81019080803590602001909291908035906020019064010000000081111561060d57600080fd5b82018360208201111561061f57600080fd5b8035906020019184600183028401116401000000008311171561064157600080fd5b91908080601f016020809104026020016040519081016040528093929190818152602001838380828437600081840152601f19601f820116905080830192505050505050509192919290803590602001906401000000008111156106a457600080fd5b8201836020820111156106b657600080fd5b803590602001918460018302840111640100000000831117156106d857600080fd5b91908080601f016020809104026020016040519081016040528093929190818152602001838380828437600081840152601f19601f8201169050808301925050505050505091929192905050506119ed565b005b34801561073857600080fd5b506107a56004803603606081101561074f57600080fd5b81019080803573ffffffffffffffffffffffffffffffffffffffff169060200190929190803573ffffffffffffffffffffffffffffffffffffffff16906020019092919080359060200190929190505050611bda565b005b3480156107b357600080fd5b506107bc611bfa565b6040518082815260200191505060405180910390f35b3480156107de57600080fd5b5061080b600480360360208110156107f557600080fd5b8101908080359060200190929190505050611c00565b6040518082815260200191505060405180910390f35b34801561082d57600080fd5b5061085a6004803603602081101561084457600080fd5b8101908080359060200190929190505050611c80565b604051808261ffff1661ffff16815260200191505060405180910390f35b34801561088457600080fd5b506108b16004803603602081101561089b57600080fd5b8101908080359060200190929190505050611ca1565b604051808273ffffffffffffffffffffffffffffffffffffffff1673ffffffffffffffffffffffffffffffffffffffff16815260200191505060405180910390f35b3480156108ff57600080fd5b50610908611d69565b6040518080602001828103825283818151815260200191508051906020019080838360005b8381101561094857808201518184015260208101905061092d565b50505050905090810190601f1680156109755780820380516001836020036101000a031916815260200191505b509250505060405180910390f35b34801561098f57600080fd5b506109d2600480360360208110156109a657600080fd5b81019080803573ffffffffffffffffffffffffffffffffffffffff169060200190929190505050611e0b565b6040518082815260200191505060405180910390f35b3480156109f457600080fd5b506109fd611ee0565b604051808273ffffffffffffffffffffffffffffffffffffffff1673ffffffffffffffffffffffffffffffffffffffff16815260200191505060405180910390f35b348015610a4b57600080fd5b50610a54611f06565b6040518082815260200191505060405180910390f35b348015610a7657600080fd5b50610aa360048036036020811015610a8d57600080fd5b8101908080359060200190929190505050611f0c565b6040518082815260200191505060405180910390f35b348015610ac557600080fd5b50610af260048036036020811015610adc57600080fd5b8101908080359060200190929190505050611f24565b604051808b81526020018a63ffffffff1663ffffffff168152602001891515151581526020018862ffffff1662ffffff168152602001871515151581526020018662ffffff1662ffffff16815260200180602001806020018060200180602001858103855289818151815260200191508051906020019060200280838360005b83811015610b8d578082015181840152602081019050610b72565b50505050905001858103845288818151815260200191508051906020019060200280838360005b83811015610bcf578082015181840152602081019050610bb4565b50505050905001858103835287818151815260200191508051906020019060200280838360005b83811015610c11578082015181840152602081019050610bf6565b50505050905001858103825286818151815260200191508051906020019060200280838360005b83811015610c53578082015181840152602081019050610c38565b505050509050019e50505050505050505050505050505060405180910390f35b348015610c7f57600080fd5b50610c88612114565b6040518080602001828103825283818151815260200191508051906020019080838360005b83811015610cc8578082015181840152602081019050610cad565b50505050905090810190601f168015610cf55780820380516001836020036101000a031916815260200191505b509250505060405180910390f35b348015610d0f57600080fd5b50610d5e60048036036040811015610d2657600080fd5b81019080803573ffffffffffffffffffffffffffffffffffffffff1690602001909291908035151590602001909291905050506121b6565b005b348015610d6c57600080fd5b50610e7060048036036080811015610d8357600080fd5b81019080803573ffffffffffffffffffffffffffffffffffffffff169060200190929190803573ffffffffffffffffffffffffffffffffffffffff1690602001909291908035906020019092919080359060200190640100000000811115610dea57600080fd5b820183602082011115610dfc57600080fd5b80359060200191846001830284011164010000000083111715610e1e57600080fd5b91908080601f016020809104026020016040519081016040528093929190818152602001838380828437600081840152601f19601f82011690508083019250505050505050919291929050505061236e565b005b348015610e7e57600080fd5b50610eab60048036036020811015610e9557600080fd5b81019080803590602001909291905050506123e6565b6040518080602001828103825283818151815260200191508051906020019080838360005b83811015610eeb578082015181840152602081019050610ed0565b50505050905090810190601f168015610f185780820380516001836020036101000a031916815260200191505b509250505060405180910390f35b610f5c60048036036040811015610f3c57600080fd5b8101908080359060200190929190803590602001909291905050506125e8565b005b610f8a60048036036020811015610f7457600080fd5b810190808035906020019092919050505061292d565b005b348015610f9857600080fd5b50610ffb60048036036040811015610faf57600080fd5b81019080803573ffffffffffffffffffffffffffffffffffffffff169060200190929190803573ffffffffffffffffffffffffffffffffffffffff169060200190929190505050612e45565b604051808215151515815260200191505060405180910390f35b34801561102157600080fd5b5061104e6004803603602081101561103857600080fd5b8101908080359060200190929190505050612ed9565b604051808273ffffffffffffffffffffffffffffffffffffffff1673ffffffffffffffffffffffffffffffffffffffff16815260200191505060405180910390f35b34801561109c57600080fd5b506110c9600480360360208110156110b357600080fd5b8101908080359060200190929190505050612f0c565b6040518082815260200191505060405180910390f35b6000806000837bffffffffffffffffffffffffffffffffffffffffffffffffffffffff19167bffffffffffffffffffffffffffffffffffffffffffffffffffffffff1916815260200190815260200160002060009054906101000a900460ff169050919050565b606060098054600181600116156101000203166002900480601f0160208091040260200160405190810160405280929190818152602001828054600181600116156101000203166002900480156111de5780601f106111b3576101008083540402835291602001916111de565b820191906000526020600020905b8154815290600101906020018083116111c157829003601f168201915b5050505050905090565b60006111f382612f24565b611248576040517f08c379a000000000000000000000000000000000000000000000000000000000815260040180806020018281038252602c815260200180616564602c913960400191505060405180910390fd5b6002600083815260200190815260200160002060009054906101000a900473ffffffffffffffffffffffffffffffffffffffff169050919050565b600061128e82611ca1565b90508073ffffffffffffffffffffffffffffffffffffffff168373ffffffffffffffffffffffffffffffffffffffff161415611315576040517f08c379a00000000000000000000000000000000000000000000000000000000081526004018080602001828103825260218152602001806165e86021913960400191505060405180910390fd5b8073ffffffffffffffffffffffffffffffffffffffff16611334612f96565b73ffffffffffffffffffffffffffffffffffffffff16148061136357506113628161135d612f96565b612e45565b5b6113b8576040517f08c379a00000000000000000000000000000000000000000000000000000000081526004018080602001828103825260388152602001806164d96038913960400191505060405180910390fd5b826002600084815260200190815260200160002060006101000a81548173ffffffffffffffffffffffffffffffffffffffff021916908373ffffffffffffffffffffffffffffffffffffffff160217905550818373ffffffffffffffffffffffffffffffffffffffff168273ffffffffffffffffffffffffffffffffffffffff167f8c5be1e5ebec7d5bd14f71427d1e84f3dd0314c0f7b2291e5b200ac8c7c3b92560405160405180910390a4505050565b6000600780549050905090565b611488611482612f96565b82612f9e565b6114dd576040517f08c379a00000000000000000000000000000000000000000000000000000000081526004018080602001828103825260318152602001806166096031913960400191505060405180910390fd5b6114e8838383613092565b505050565b66071afd498d0000341461150057600080fd5b6008601354101561151057600080fd5b60126000815480929190600101919050555060006019600060125481526020019081526020016000209050600281600001819055506040518060600160405280600163ffffffff168152602001600115158152602001600162ffffff168152508160010160008201518160000160006101000a81548163ffffffff021916908363ffffffff16021790555060208201518160000160046101000a81548160ff02191690831515021790555060408201518160000160056101000a81548162ffffff021916908362ffffff1602179055509050506040518060400160405280600115158152602001600162ffffff168152508160020160008201518160000160006101000a81548160ff02191690831515021790555060208201518160000160016101000a81548162ffffff021916908362ffffff1602179055509050506040518060800160405280600160ff168152602001600160ff168152602001600160ff168152602001600162ffffff1681525081600301600080815260200190815260200160002060008201518160000160006101000a81548160ff021916908360ff16021790555060208201518160000160016101000a81548160ff021916908360ff16021790555060408201518160000160026101000a81548160ff021916908360ff16021790555060608201518160000160036101000a81548162ffffff021916908362ffffff16021790555090505061173660086013546130b690919063ffffffff16565b60138190555061174833601254613100565b6117b866071afd498d0000611794601460009054906101000a900473ffffffffffffffffffffffffffffffffffffffff1673ffffffffffffffffffffffffffffffffffffffff16613121565b73ffffffffffffffffffffffffffffffffffffffff1661312b90919063ffffffff16565b60006117c960006002601854613265565b90507fde943e32fd65498630e5644176185884dd5c05112d2e96be2315156ceedebf22338285601654604051808573ffffffffffffffffffffffffffffffffffffffff1673ffffffffffffffffffffffffffffffffffffffff1681526020018481526020018361ffff16815260200182815260200194505050505060405180910390a182601a600083815260200190815260200160002060006101000a81548161ffff021916908361ffff16021790555033601b600083815260200190815260200160002060006101000a81548173ffffffffffffffffffffffffffffffffffffffff021916908373ffffffffffffffffffffffffffffffffffffffff160217905550601254601c600083815260200190815260200160002081905550505050565b61192a828260006040519080825280601f01601f1916602001820160405280156119245781602001600182028038833980820191505090505b506119ed565b5050565b600061193983611e0b565b8210611990576040517f08c379a000000000000000000000000000000000000000000000000000000000815260040180806020018281038252602b8152602001806163f2602b913960400191505060405180910390fd5b600560008473ffffffffffffffffffffffffffffffffffffffff1673ffffffffffffffffffffffffffffffffffffffff16815260200190815260200160002082815481106119da57fe5b9060005260206000200154905092915050565b6119f5613800565b73ffffffffffffffffffffffffffffffffffffffff163373ffffffffffffffffffffffffffffffffffffffff1614611a2c57600080fd5b6000601a600085815260200190815260200160002060009054906101000a900461ffff1690506000601b600086815260200190815260200160002060009054906101000a900473ffffffffffffffffffffffffffffffffffffffff1690506000601c600087815260200190815260200160002054905060008361ffff1660001b6001430340876040516020018082805190602001908083835b60208310611ae85780518252602082019150602081019050602083039250611ac5565b6001836020036101000a03801982511681845116808217855250505050505090500191505060405160208183030381529060405280519060200120181860001c9050611b3f61ffff82613b2090919063ffffffff16565b601d600084815260200190815260200160002081905550611b608383613b6a565b601a600088815260200190815260200160002060006101000a81549061ffff0219169055601b600088815260200190815260200160002060006101000a81549073ffffffffffffffffffffffffffffffffffffffff0219169055601c60008881526020019081526020016000206000905550505050505050565b611bf58383836040518060200160405280600081525061236e565b505050565b60135481565b6000611c0a61146a565b8210611c61576040517f08c379a000000000000000000000000000000000000000000000000000000000815260040180806020018281038252602c81526020018061663a602c913960400191505060405180910390fd5b60078281548110611c6e57fe5b90600052602060002001549050919050565b601a6020528060005260406000206000915054906101000a900461ffff1681565b6000806001600084815260200190815260200160002060009054906101000a900473ffffffffffffffffffffffffffffffffffffffff169050600073ffffffffffffffffffffffffffffffffffffffff168173ffffffffffffffffffffffffffffffffffffffff161415611d60576040517f08c379a000000000000000000000000000000000000000000000000000000000815260040180806020018281038252602981526020018061653b6029913960400191505060405180910390fd5b80915050919050565b6060600b8054600181600116156101000203166002900480601f016020809104026020016040519081016040528092919081815260200182805460018160011615610100020316600290048015611e015780601f10611dd657610100808354040283529160200191611e01565b820191906000526020600020905b815481529060010190602001808311611de457829003601f168201915b5050505050905090565b60008073ffffffffffffffffffffffffffffffffffffffff168273ffffffffffffffffffffffffffffffffffffffff161415611e92576040517f08c379a000000000000000000000000000000000000000000000000000000000815260040180806020018281038252602a815260200180616511602a913960400191505060405180910390fd5b611ed9600360008473ffffffffffffffffffffffffffffffffffffffff1673ffffffffffffffffffffffffffffffffffffffff168152602001908152602001600020613b88565b9050919050565b601460009054906101000a900473ffffffffffffffffffffffffffffffffffffffff1681565b60125481565b601d6020528060005260406000206000915090505481565b6000806000806000806060806060806000601960008d8152602001908152602001600020905080600001549a508060010160000160009054906101000a900463ffffffff1699508060010160000160049054906101000a900460ff1698508060010160000160059054906101000a900462ffffff1697508060020160000160009054906101000a900460ff1696508060020160000160019054906101000a900462ffffff16955060008090505b60088110156121055781600301600082815260200190815260200160002060000160009054906101000a900460ff1686828151811061200c57fe5b602002602001019060ff16908160ff168152505081600301600082815260200190815260200160002060000160019054906101000a900460ff1685828151811061205257fe5b602002602001019060ff16908160ff168152505081600301600082815260200190815260200160002060000160029054906101000a900460ff1684828151811061209857fe5b602002602001019060ff16908160ff168152505081600301600082815260200190815260200160002060000160039054906101000a900462ffffff168382815181106120e057fe5b602002602001019062ffffff16908162ffffff16815250508080600101915050611fd1565b50509193959799509193959799565b6060600a8054600181600116156101000203166002900480601f0160208091040260200160405190810160405280929190818152602001828054600181600116156101000203166002900480156121ac5780601f10612181576101008083540402835291602001916121ac565b820191906000526020600020905b81548152906001019060200180831161218f57829003601f168201915b5050505050905090565b6121be612f96565b73ffffffffffffffffffffffffffffffffffffffff168273ffffffffffffffffffffffffffffffffffffffff16141561225f576040517f08c379a00000000000000000000000000000000000000000000000000000000081526004018080602001828103825260198152602001807f4552433732313a20617070726f766520746f2063616c6c65720000000000000081525060200191505060405180910390fd5b806004600061226c612f96565b73ffffffffffffffffffffffffffffffffffffffff1673ffffffffffffffffffffffffffffffffffffffff16815260200190815260200160002060008473ffffffffffffffffffffffffffffffffffffffff1673ffffffffffffffffffffffffffffffffffffffff16815260200190815260200160002060006101000a81548160ff0219169083151502179055508173ffffffffffffffffffffffffffffffffffffffff16612319612f96565b73ffffffffffffffffffffffffffffffffffffffff167f17307eab39ab6107e8899845ad3d59bd9653f200f220920489ca2b5937696c3183604051808215151515815260200191505060405180910390a35050565b61237f612379612f96565b83612f9e565b6123d4576040517f08c379a00000000000000000000000000000000000000000000000000000000081526004018080602001828103825260318152602001806166096031913960400191505060405180910390fd5b6123e084848484613b96565b50505050565b60606123f182612f24565b612446576040517f08c379a000000000000000000000000000000000000000000000000000000000815260040180806020018281038252602f8152602001806165b9602f913960400191505060405180910390fd5b6060600c60008481526020019081526020016000208054600181600116156101000203166002900480601f0160208091040260200160405190810160405280929190818152602001828054600181600116156101000203166002900480156124ef5780601f106124c4576101008083540402835291602001916124ef565b820191906000526020600020905b8154815290600101906020018083116124d257829003601f168201915b5050505050905060008151141561251857604051806020016040528060008152509150506125e3565b600b8160405160200180838054600181600116156101000203166002900480156125795780601f10612557576101008083540402835291820191612579565b820191906000526020600020905b815481529060010190602001808311612565575b505082805190602001908083835b602083106125aa5780518252602082019150602081019050602083039250612587565b6001836020036101000a038019825116818451168082178552505050505050905001925050506040516020818303038152906040529150505b919050565b66071afd498d000034146125fb57600080fd5b60006013541161260a57600080fd5b3373ffffffffffffffffffffffffffffffffffffffff1661262a83611ca1565b73ffffffffffffffffffffffffffffffffffffffff161461264a57600080fd5b3373ffffffffffffffffffffffffffffffffffffffff1661266a82611ca1565b73ffffffffffffffffffffffffffffffffffffffff161461268a57600080fd5b60126000815480929190600101919050555060006019600060125481526020019081526020016000209050600281600001819055506040518060600160405280600163ffffffff168152602001600115158152602001600162ffffff168152508160010160008201518160000160006101000a81548163ffffffff021916908363ffffffff16021790555060208201518160000160046101000a81548160ff02191690831515021790555060408201518160000160056101000a81548162ffffff021916908362ffffff1602179055509050506040518060400160405280600115158152602001600162ffffff168152508160020160008201518160000160006101000a81548160ff02191690831515021790555060208201518160000160016101000a81548162ffffff021916908362ffffff1602179055509050506040518060800160405280600160ff168152602001600160ff168152602001600160ff168152602001600162ffffff1681525081600301600080815260200190815260200160002060008201518160000160006101000a81548160ff021916908360ff16021790555060208201518160000160016101000a81548160ff021916908360ff16021790555060408201518160000160026101000a81548160ff021916908360ff16021790555060608201518160000160036101000a81548162ffffff021916908362ffffff1602179055509050506128a633601254613100565b6128af83613c08565b6128b882613c08565b61292866071afd498d0000612904601460009054906101000a900473ffffffffffffffffffffffffffffffffffffffff1673ffffffffffffffffffffffffffffffffffffffff16613121565b73ffffffffffffffffffffffffffffffffffffffff1661312b90919063ffffffff16565b505050565b66071afd498d0000341461294057600080fd5b60006013541161294f57600080fd5b3373ffffffffffffffffffffffffffffffffffffffff1661296f82611ca1565b73ffffffffffffffffffffffffffffffffffffffff161461298f57600080fd5b60126000815480929190600101919050555060006019600060125481526020019081526020016000209050600281600001819055506040518060600160405280600163ffffffff168152602001600115158152602001600162ffffff168152508160010160008201518160000160006101000a81548163ffffffff021916908363ffffffff16021790555060208201518160000160046101000a81548160ff02191690831515021790555060408201518160000160056101000a81548162ffffff021916908362ffffff1602179055509050506040518060400160405280600115158152602001600162ffffff168152508160020160008201518160000160006101000a81548160ff02191690831515021790555060208201518160000160016101000a81548162ffffff021916908362ffffff1602179055509050506040518060800160405280600160ff168152602001600160ff168152602001600160ff168152602001600162ffffff1681525081600301600080815260200190815260200160002060008201518160000160006101000a81548160ff021916908360ff16021790555060208201518160000160016101000a81548160ff021916908360ff16021790555060408201518160000160026101000a81548160ff021916908360ff16021790555060608201518160000160036101000a81548162ffffff021916908362ffffff160217905550905050612bab33601254613100565b60126000815480929190600101919050555060006019600060125481526020019081526020016000209050600281600001819055506040518060600160405280600163ffffffff168152602001600115158152602001600162ffffff168152508160010160008201518160000160006101000a81548163ffffffff021916908363ffffffff16021790555060208201518160000160046101000a81548160ff02191690831515021790555060408201518160000160056101000a81548162ffffff021916908362ffffff1602179055509050506040518060400160405280600115158152602001600162ffffff168152508160020160008201518160000160006101000a81548160ff02191690831515021790555060208201518160000160016101000a81548162ffffff021916908362ffffff1602179055509050506040518060800160405280600160ff168152602001600160ff168152602001600160ff168152602001600162ffffff1681525081600301600080815260200190815260200160002060008201518160000160006101000a81548160ff021916908360ff16021790555060208201518160000160016101000a81548160ff021916908360ff16021790555060408201518160000160026101000a81548160ff021916908360ff16021790555060608201518160000160036101000a81548162ffffff021916908362ffffff160217905550905050612dc733601254613100565b612dd083613c08565b612e4066071afd498d0000612e1c601460009054906101000a900473ffffffffffffffffffffffffffffffffffffffff1673ffffffffffffffffffffffffffffffffffffffff16613121565b73ffffffffffffffffffffffffffffffffffffffff1661312b90919063ffffffff16565b505050565b6000600460008473ffffffffffffffffffffffffffffffffffffffff1673ffffffffffffffffffffffffffffffffffffffff16815260200190815260200160002060008373ffffffffffffffffffffffffffffffffffffffff1673ffffffffffffffffffffffffffffffffffffffff16815260200190815260200160002060009054906101000a900460ff16905092915050565b601b6020528060005260406000206000915054906101000a900473ffffffffffffffffffffffffffffffffffffffff1681565b601c6020528060005260406000206000915090505481565b6000806001600084815260200190815260200160002060009054906101000a900473ffffffffffffffffffffffffffffffffffffffff169050600073ffffffffffffffffffffffffffffffffffffffff168173ffffffffffffffffffffffffffffffffffffffff161415915050919050565b600033905090565b6000612fa982612f24565b612ffe576040517f08c379a000000000000000000000000000000000000000000000000000000000815260040180806020018281038252602c8152602001806164ad602c913960400191505060405180910390fd5b600061300983611ca1565b90508073ffffffffffffffffffffffffffffffffffffffff168473ffffffffffffffffffffffffffffffffffffffff16148061307857508373ffffffffffffffffffffffffffffffffffffffff16613060846111e8565b73ffffffffffffffffffffffffffffffffffffffff16145b8061308957506130888185612e45565b5b91505092915050565b61309d838383613c1d565b6130a78382613e78565b6130b18282614016565b505050565b60006130f883836040518060400160405280601e81526020017f536166654d6174683a207375627472616374696f6e206f766572666c6f7700008152506140dd565b905092915050565b61310a828261419d565b6131148282614016565b61311d816143b5565b5050565b6000819050919050565b804710156131a1576040517f08c379a000000000000000000000000000000000000000000000000000000000815260040180806020018281038252601d8152602001807f416464726573733a20696e73756666696369656e742062616c616e636500000081525060200191505060405180910390fd5b60008273ffffffffffffffffffffffffffffffffffffffff168260405180600001905060006040518083038185875af1925050503d8060008114613201576040519150601f19603f3d011682016040523d82523d6000602084013e613206565b606091505b5050905080613260576040517f08c379a000000000000000000000000000000000000000000000000000000000815260040180806020018281038252603a815260200180616473603a913960400191505060405180910390fd5b505050565b60008083118015613277575060208311155b61328057600080fd5b600a84029350606060016040519080825280601f01601f1916602001820160405280156132bc5781602001600182028038833980820191505090505b5090508360f81b816000815181106132d057fe5b60200101907effffffffffffffffffffffffffffffffffffffffffffffffffffffffffffff1916908160001a905350606060206040519080825280601f01601f1916602001820160405280156133355781602001600182028038833980820191505090505b509050606060206040519080825280601f01601f19166020018201604052801561336e5781602001600182028038833980820191505090505b509050600061337b614401565b905060208352424118600143034018602084015260208252806020830152606060206040519080825280601f01601f1916602001820160405280156133cf5781602001600182028038833980820191505090505b509050886020820152606060086040519080825280601f01601f19166020018201604052801561340e5781602001600182028038833980820191505090505b5090506134218260186008846000614721565b5061342a616297565b6040518060800160405280878152602001888152602001868152602001848152509050600061348f6040518060400160405280600681526020017f72616e646f6d0000000000000000000000000000000000000000000000000000815250838c614780565b9050606060086040519080825280601f01601f1916602001820160405280156134c75781602001600182028038833980820191505090505b50905060208401517f0100000000000000000000000000000000000000000000000000000000000000810460278301537e01000000000000000000000000000000000000000000000000000000000000810460268301537d010000000000000000000000000000000000000000000000000000000000810460258301537c0100000000000000000000000000000000000000000000000000000000810460248301537b01000000000000000000000000000000000000000000000000000000810460238301537a0100000000000000000000000000000000000000000000000000008104602283015379010000000000000000000000000000000000000000000000000081046021830153780100000000000000000000000000000000000000000000000081046020830153506137ed82828560016004811061360657fe5b602002015160028760006004811061361a57fe5b60200201516040518082805190602001908083835b60208310613652578051825260208201915060208101905060208303925061362f565b6001836020036101000a038019825116818451168082178552505050505050905001915050602060405180830381855afa158015613694573d6000803e3d6000fd5b5050506040513d60208110156136a957600080fd5b8101908080519060200190929190505050876002600481106136c757fe5b60200201516040516020018085805190602001908083835b6020831061370257805182526020820191506020810190506020830392506136df565b6001836020036101000a03801982511681845116808217855250505050505090500184805190602001908083835b602083106137535780518252602082019150602081019050602083039250613730565b6001836020036101000a03801982511681845116808217855250505050505090500183815260200182805190602001908083835b602083106137aa5780518252602082019150602081019050602083039250613787565b6001836020036101000a03801982511681845116808217855250505050505090500194505050505060405160208183030381529060405280519060200120614aef565b8199505050505050505050509392505050565b60008073ffffffffffffffffffffffffffffffffffffffff16600e60009054906101000a900473ffffffffffffffffffffffffffffffffffffffff1673ffffffffffffffffffffffffffffffffffffffff16148061388857506000613886600e60009054906101000a900473ffffffffffffffffffffffffffffffffffffffff16614b0b565b145b15613899576138976000614b16565b505b600e60009054906101000a900473ffffffffffffffffffffffffffffffffffffffff1673ffffffffffffffffffffffffffffffffffffffff166338cc48316040518163ffffffff1660e01b8152600401602060405180830381600087803b15801561390357600080fd5b505af1158015613917573d6000803e3d6000fd5b505050506040513d602081101561392d57600080fd5b810190808051906020019092919050505073ffffffffffffffffffffffffffffffffffffffff16600d60009054906101000a900473ffffffffffffffffffffffffffffffffffffffff1673ffffffffffffffffffffffffffffffffffffffff1614613a7857600e60009054906101000a900473ffffffffffffffffffffffffffffffffffffffff1673ffffffffffffffffffffffffffffffffffffffff166338cc48316040518163ffffffff1660e01b8152600401602060405180830381600087803b1580156139fc57600080fd5b505af1158015613a10573d6000803e3d6000fd5b505050506040513d6020811015613a2657600080fd5b8101908080519060200190929190505050600d60006101000a81548173ffffffffffffffffffffffffffffffffffffffff021916908373ffffffffffffffffffffffffffffffffffffffff1602179055505b600d60009054906101000a900473ffffffffffffffffffffffffffffffffffffffff1673ffffffffffffffffffffffffffffffffffffffff1663c281d19e6040518163ffffffff1660e01b815260040160206040518083038186803b158015613ae057600080fd5b505afa158015613af4573d6000803e3d6000fd5b505050506040513d6020811015613b0a57600080fd5b8101908080519060200190929190505050905090565b6000613b6283836040518060400160405280601881526020017f536166654d6174683a206d6f64756c6f206279207a65726f0000000000000000815250614b27565b905092915050565b613b84828260405180602001604052806000815250614be8565b5050565b600081600001549050919050565b613ba1848484613092565b613bad84848484614c59565b613c02576040517f08c379a000000000000000000000000000000000000000000000000000000000815260040180806020018281038252603281526020018061641d6032913960400191505060405180910390fd5b50505050565b613c1a613c1482611ca1565b82614f95565b50565b8273ffffffffffffffffffffffffffffffffffffffff16613c3d82611ca1565b73ffffffffffffffffffffffffffffffffffffffff1614613ca9576040517f08c379a00000000000000000000000000000000000000000000000000000000081526004018080602001828103825260298152602001806165906029913960400191505060405180910390fd5b600073ffffffffffffffffffffffffffffffffffffffff168273ffffffffffffffffffffffffffffffffffffffff161415613d2f576040517f08c379a000000000000000000000000000000000000000000000000000000000815260040180806020018281038252602481526020018061644f6024913960400191505060405180910390fd5b613d3881614ff2565b613d7f600360008573ffffffffffffffffffffffffffffffffffffffff1673ffffffffffffffffffffffffffffffffffffffff1681526020019081526020016000206150b0565b613dc6600360008473ffffffffffffffffffffffffffffffffffffffff1673ffffffffffffffffffffffffffffffffffffffff1681526020019081526020016000206150d3565b816001600083815260200190815260200160002060006101000a81548173ffffffffffffffffffffffffffffffffffffffff021916908373ffffffffffffffffffffffffffffffffffffffff160217905550808273ffffffffffffffffffffffffffffffffffffffff168473ffffffffffffffffffffffffffffffffffffffff167fddf252ad1be2c89b69c2b068fc378daa952ba7f163c4a11628f55a4df523b3ef60405160405180910390a4505050565b6000613ed06001600560008673ffffffffffffffffffffffffffffffffffffffff1673ffffffffffffffffffffffffffffffffffffffff168152602001908152602001600020805490506130b690919063ffffffff16565b9050600060066000848152602001908152602001600020549050818114613fbd576000600560008673ffffffffffffffffffffffffffffffffffffffff1673ffffffffffffffffffffffffffffffffffffffff1681526020019081526020016000208381548110613f3d57fe5b9060005260206000200154905080600560008773ffffffffffffffffffffffffffffffffffffffff1673ffffffffffffffffffffffffffffffffffffffff1681526020019081526020016000208381548110613f9557fe5b9060005260206000200181905550816006600083815260200190815260200160002081905550505b600560008573ffffffffffffffffffffffffffffffffffffffff1673ffffffffffffffffffffffffffffffffffffffff16815260200190815260200160002080548091906001900361400f91906162be565b5050505050565b600560008373ffffffffffffffffffffffffffffffffffffffff1673ffffffffffffffffffffffffffffffffffffffff168152602001908152602001600020805490506006600083815260200190815260200160002081905550600560008373ffffffffffffffffffffffffffffffffffffffff1673ffffffffffffffffffffffffffffffffffffffff1681526020019081526020016000208190806001815401808255809150509060018203906000526020600020016000909192909190915055505050565b600083831115829061418a576040517f08c379a00000000000000000000000000000000000000000000000000000000081526004018080602001828103825283818151815260200191508051906020019080838360005b8381101561414f578082015181840152602081019050614134565b50505050905090810190601f16801561417c5780820380516001836020036101000a031916815260200191505b509250505060405180910390fd5b5060008385039050809150509392505050565b600073ffffffffffffffffffffffffffffffffffffffff168273ffffffffffffffffffffffffffffffffffffffff161415614240576040517f08c379a00000000000000000000000000000000000000000000000000000000081526004018080602001828103825260208152602001807f4552433732313a206d696e7420746f20746865207a65726f206164647265737381525060200191505060405180910390fd5b61424981612f24565b156142bc576040517f08c379a000000000000000000000000000000000000000000000000000000000815260040180806020018281038252601c8152602001807f4552433732313a20746f6b656e20616c7265616479206d696e7465640000000081525060200191505060405180910390fd5b816001600083815260200190815260200160002060006101000a81548173ffffffffffffffffffffffffffffffffffffffff021916908373ffffffffffffffffffffffffffffffffffffffff160217905550614355600360008473ffffffffffffffffffffffffffffffffffffffff1673ffffffffffffffffffffffffffffffffffffffff1681526020019081526020016000206150d3565b808273ffffffffffffffffffffffffffffffffffffffff16600073ffffffffffffffffffffffffffffffffffffffff167fddf252ad1be2c89b69c2b068fc378daa952ba7f163c4a11628f55a4df523b3ef60405160405180910390a45050565b6007805490506008600083815260200190815260200160002081905550600781908060018154018082558091505090600182039060005260206000200160009091929091909150555050565b60008073ffffffffffffffffffffffffffffffffffffffff16600e60009054906101000a900473ffffffffffffffffffffffffffffffffffffffff1673ffffffffffffffffffffffffffffffffffffffff16148061448957506000614487600e60009054906101000a900473ffffffffffffffffffffffffffffffffffffffff16614b0b565b145b1561449a576144986000614b16565b505b600e60009054906101000a900473ffffffffffffffffffffffffffffffffffffffff1673ffffffffffffffffffffffffffffffffffffffff166338cc48316040518163ffffffff1660e01b8152600401602060405180830381600087803b15801561450457600080fd5b505af1158015614518573d6000803e3d6000fd5b505050506040513d602081101561452e57600080fd5b810190808051906020019092919050505073ffffffffffffffffffffffffffffffffffffffff16600d60009054906101000a900473ffffffffffffffffffffffffffffffffffffffff1673ffffffffffffffffffffffffffffffffffffffff161461467957600e60009054906101000a900473ffffffffffffffffffffffffffffffffffffffff1673ffffffffffffffffffffffffffffffffffffffff166338cc48316040518163ffffffff1660e01b8152600401602060405180830381600087803b1580156145fd57600080fd5b505af1158015614611573d6000803e3d6000fd5b505050506040513d602081101561462757600080fd5b8101908080519060200190929190505050600d60006101000a81548173ffffffffffffffffffffffffffffffffffffffff021916908373ffffffffffffffffffffffffffffffffffffffff1602179055505b600d60009054906101000a900473ffffffffffffffffffffffffffffffffffffffff1673ffffffffffffffffffffffffffffffffffffffff1663abaa5f3e6040518163ffffffff1660e01b815260040160206040518083038186803b1580156146e157600080fd5b505afa1580156146f5573d6000803e3d6000fd5b505050506040513d602081101561470b57600080fd5b8101908080519060200190929190505050905090565b606060008285019050808451101561473857600080fd5b600086602001905060008460200190505b8688602001018210156147715781890151808288015250602082019150602081019050614749565b85935050505095945050505050565b60008073ffffffffffffffffffffffffffffffffffffffff16600e60009054906101000a900473ffffffffffffffffffffffffffffffffffffffff1673ffffffffffffffffffffffffffffffffffffffff16148061480857506000614806600e60009054906101000a900473ffffffffffffffffffffffffffffffffffffffff16614b0b565b145b15614819576148176000614b16565b505b600e60009054906101000a900473ffffffffffffffffffffffffffffffffffffffff1673ffffffffffffffffffffffffffffffffffffffff166338cc48316040518163ffffffff1660e01b8152600401602060405180830381600087803b15801561488357600080fd5b505af1158015614897573d6000803e3d6000fd5b505050506040513d60208110156148ad57600080fd5b810190808051906020019092919050505073ffffffffffffffffffffffffffffffffffffffff16600d60009054906101000a900473ffffffffffffffffffffffffffffffffffffffff1673ffffffffffffffffffffffffffffffffffffffff16146149f857600e60009054906101000a900473ffffffffffffffffffffffffffffffffffffffff1673ffffffffffffffffffffffffffffffffffffffff166338cc48316040518163ffffffff1660e01b8152600401602060405180830381600087803b15801561497c57600080fd5b505af1158015614990573d6000803e3d6000fd5b505050506040513d60208110156149a657600080fd5b8101908080519060200190929190505050600d60006101000a81548173ffffffffffffffffffffffffffffffffffffffff021916908373ffffffffffffffffffffffffffffffffffffffff1602179055505b60606004604051908082528060200260200182016040528015614a2f57816020015b6060815260200190600190039081614a1a5790505b50905083600060048110614a3f57fe5b602002015181600081518110614a5157fe5b602002602001018190525083600160048110614a6957fe5b602002015181600181518110614a7b57fe5b602002602001018190525083600260048110614a9357fe5b602002015181600281518110614aa557fe5b602002602001018190525083600360048110614abd57fe5b602002015181600381518110614acf57fe5b6020026020010181905250614ae58582856150e9565b9150509392505050565b8060106000848152602001908152602001600020819055505050565b6000813b9050919050565b6000614b2061564f565b9050919050565b6000808314158290614bd4576040517f08c379a00000000000000000000000000000000000000000000000000000000081526004018080602001828103825283818151815260200191508051906020019080838360005b83811015614b99578082015181840152602081019050614b7e565b50505050905090810190601f168015614bc65780820380516001836020036101000a031916815260200191505b509250505060405180910390fd5b50828481614bde57fe5b0690509392505050565b614bf28383613100565b614bff6000848484614c59565b614c54576040517f08c379a000000000000000000000000000000000000000000000000000000000815260040180806020018281038252603281526020018061641d6032913960400191505060405180910390fd5b505050565b6000614c7a8473ffffffffffffffffffffffffffffffffffffffff16615ba6565b614c875760019050614f8d565b600060608573ffffffffffffffffffffffffffffffffffffffff168673ffffffffffffffffffffffffffffffffffffffff1663150b7a02905060e01b614ccb612f96565b898888604051602401808573ffffffffffffffffffffffffffffffffffffffff1673ffffffffffffffffffffffffffffffffffffffff1681526020018473ffffffffffffffffffffffffffffffffffffffff1673ffffffffffffffffffffffffffffffffffffffff16815260200183815260200180602001828103825283818151815260200191508051906020019080838360005b83811015614d7b578082015181840152602081019050614d60565b50505050905090810190601f168015614da85780820380516001836020036101000a031916815260200191505b5095505050505050604051602081830303815290604052907bffffffffffffffffffffffffffffffffffffffffffffffffffffffff19166020820180517bffffffffffffffffffffffffffffffffffffffffffffffffffffffff83818316178352505050506040518082805190602001908083835b60208310614e405780518252602082019150602081019050602083039250614e1d565b6001836020036101000a0380198251168184511680821785525050505050509050019150506000604051808303816000865af19150503d8060008114614ea2576040519150601f19603f3d011682016040523d82523d6000602084013e614ea7565b606091505b509150915081614f1557600081511115614ec45780518082602001fd5b6040517f08c379a000000000000000000000000000000000000000000000000000000000815260040180806020018281038252603281526020018061641d6032913960400191505060405180910390fd5b6000818060200190516020811015614f2c57600080fd5b8101908080519060200190929190505050905063150b7a0260e01b7bffffffffffffffffffffffffffffffffffffffffffffffffffffffff1916817bffffffffffffffffffffffffffffffffffffffffffffffffffffffff19161493505050505b949350505050565b614f9f8282615bf1565b6000600c600083815260200190815260200160002080546001816001161561010002031660029004905014614fee57600c60008281526020019081526020016000206000614fed91906162ea565b5b5050565b600073ffffffffffffffffffffffffffffffffffffffff166002600083815260200190815260200160002060009054906101000a900473ffffffffffffffffffffffffffffffffffffffff1673ffffffffffffffffffffffffffffffffffffffff16146150ad5760006002600083815260200190815260200160002060006101000a81548173ffffffffffffffffffffffffffffffffffffffff021916908373ffffffffffffffffffffffffffffffffffffffff1602179055505b50565b6150c8600182600001546130b690919063ffffffff16565b816000018190555050565b6001816000016000828254019250508190555050565b60008073ffffffffffffffffffffffffffffffffffffffff16600e60009054906101000a900473ffffffffffffffffffffffffffffffffffffffff1673ffffffffffffffffffffffffffffffffffffffff1614806151715750600061516f600e60009054906101000a900473ffffffffffffffffffffffffffffffffffffffff16614b0b565b145b15615182576151806000614b16565b505b600e60009054906101000a900473ffffffffffffffffffffffffffffffffffffffff1673ffffffffffffffffffffffffffffffffffffffff166338cc48316040518163ffffffff1660e01b8152600401602060405180830381600087803b1580156151ec57600080fd5b505af1158015615200573d6000803e3d6000fd5b505050506040513d602081101561521657600080fd5b810190808051906020019092919050505073ffffffffffffffffffffffffffffffffffffffff16600d60009054906101000a900473ffffffffffffffffffffffffffffffffffffffff1673ffffffffffffffffffffffffffffffffffffffff161461536157600e60009054906101000a900473ffffffffffffffffffffffffffffffffffffffff1673ffffffffffffffffffffffffffffffffffffffff166338cc48316040518163ffffffff1660e01b8152600401602060405180830381600087803b1580156152e557600080fd5b505af11580156152f9573d6000803e3d6000fd5b505050506040513d602081101561530f57600080fd5b8101908080519060200190929190505050600d60006101000a81548173ffffffffffffffffffffffffffffffffffffffff021916908373ffffffffffffffffffffffffffffffffffffffff1602179055505b6000600d60009054906101000a900473ffffffffffffffffffffffffffffffffffffffff1673ffffffffffffffffffffffffffffffffffffffff16632ef3accc86856040518363ffffffff1660e01b81526004018080602001838152602001828103825284818151815260200191508051906020019080838360005b838110156153f85780820151818401526020810190506153dd565b50505050905090810190601f1680156154255780820380516001836020036101000a031916815260200191505b509350505050602060405180830381600087803b15801561544557600080fd5b505af1158015615459573d6000803e3d6000fd5b505050506040513d602081101561546f57600080fd5b81019080805190602001909291905050509050823a02670de0b6b3a7640000018111156154a2576000801b915050615648565b60606154ad85615c2b565b9050600d60009054906101000a900473ffffffffffffffffffffffffffffffffffffffff1673ffffffffffffffffffffffffffffffffffffffff1663c55c1cb68360008985896040518663ffffffff1660e01b8152600401808581526020018060200180602001848152602001838103835286818151815260200191508051906020019080838360005b83811015615552578082015181840152602081019050615537565b50505050905090810190601f16801561557f5780820380516001836020036101000a031916815260200191505b50838103825285818151815260200191508051906020019080838360005b838110156155b857808201518184015260208101905061559d565b50505050905090810190601f1680156155e55780820380516001836020036101000a031916815260200191505b5096505050505050506020604051808303818588803b15801561560757600080fd5b505af115801561561b573d6000803e3d6000fd5b50505050506040513d602081101561563257600080fd5b8101908080519060200190929190505050925050505b9392505050565b60008061566f731d3b2638a7cc9f2cb3d298a3da7a90b67e5506ed614b0b565b111561571157731d3b2638a7cc9f2cb3d298a3da7a90b67e5506ed600e60006101000a81548173ffffffffffffffffffffffffffffffffffffffff021916908373ffffffffffffffffffffffffffffffffffffffff1602179055506157086040518060400160405280600b81526020017f6574685f6d61696e6e6574000000000000000000000000000000000000000000815250615cab565b60019050615ba3565b600061573073c03a2615d5efaf5f49f60b7bb6583eaec212fdf1614b0b565b11156157d25773c03a2615d5efaf5f49f60b7bb6583eaec212fdf1600e60006101000a81548173ffffffffffffffffffffffffffffffffffffffff021916908373ffffffffffffffffffffffffffffffffffffffff1602179055506157c96040518060400160405280600c81526020017f6574685f726f707374656e330000000000000000000000000000000000000000815250615cab565b60019050615ba3565b60006157f173b7a07bcf2ba2f2703b24c0691b5278999c59ac7e614b0b565b11156158935773b7a07bcf2ba2f2703b24c0691b5278999c59ac7e600e60006101000a81548173ffffffffffffffffffffffffffffffffffffffff021916908373ffffffffffffffffffffffffffffffffffffffff16021790555061588a6040518060400160405280600981526020017f6574685f6b6f76616e0000000000000000000000000000000000000000000000815250615cab565b60019050615ba3565b60006158b273146500cfd35b22e4a392fe0adc06de1a1368ed48614b0b565b11156159545773146500cfd35b22e4a392fe0adc06de1a1368ed48600e60006101000a81548173ffffffffffffffffffffffffffffffffffffffff021916908373ffffffffffffffffffffffffffffffffffffffff16021790555061594b6040518060400160405280600b81526020017f6574685f72696e6b656279000000000000000000000000000000000000000000815250615cab565b60019050615ba3565b600061597373a2998efd205fb9d4b4963afb70778d6354ad3a41614b0b565b1115615a155773a2998efd205fb9d4b4963afb70778d6354ad3a41600e60006101000a81548173ffffffffffffffffffffffffffffffffffffffff021916908373ffffffffffffffffffffffffffffffffffffffff160217905550615a0c6040518060400160405280600a81526020017f6574685f676f65726c6900000000000000000000000000000000000000000000815250615cab565b60019050615ba3565b6000615a34736f485c8bf6fc43ea212e93bbf8ce046c7f1cb475614b0b565b1115615a9857736f485c8bf6fc43ea212e93bbf8ce046c7f1cb475600e60006101000a81548173ffffffffffffffffffffffffffffffffffffffff021916908373ffffffffffffffffffffffffffffffffffffffff16021790555060019050615ba3565b6000615ab77320e12a1f859b3feae5fb2a0a32c18f5a65555bbf614b0b565b1115615b1b577320e12a1f859b3feae5fb2a0a32c18f5a65555bbf600e60006101000a81548173ffffffffffffffffffffffffffffffffffffffff021916908373ffffffffffffffffffffffffffffffffffffffff16021790555060019050615ba3565b6000615b3a7351efaf4c8b3c9afbd5ab9f4bbc82784ab6ef8faa614b0b565b1115615b9e577351efaf4c8b3c9afbd5ab9f4bbc82784ab6ef8faa600e60006101000a81548173ffffffffffffffffffffffffffffffffffffffff021916908373ffffffffffffffffffffffffffffffffffffffff16021790555060019050615ba3565b600090505b90565b60008060007fc5d2460186f7233c927e7db2dcc703c0e500b653ca82273b7bfad8045d85a47060001b9050833f9150808214158015615be857506000801b8214155b92505050919050565b615bfb8282615cc5565b615c058282613e78565b60006006600083815260200190815260200160002081905550615c2781615e54565b5050565b6060615c35615f0e565b615c3d616332565b615c4981610400615f1a565b615c5281615f64565b60008090505b8351811015615c9457615c87848281518110615c7057fe5b602002602001015183615f7290919063ffffffff16565b8080600101915050615c58565b50615c9e81615f97565b8060000151915050919050565b80600f9080519060200190615cc192919061634c565b5050565b8173ffffffffffffffffffffffffffffffffffffffff16615ce582611ca1565b73ffffffffffffffffffffffffffffffffffffffff1614615d51576040517f08c379a00000000000000000000000000000000000000000000000000000000081526004018080602001828103825260258152602001806166666025913960400191505060405180910390fd5b615d5a81614ff2565b615da1600360008473ffffffffffffffffffffffffffffffffffffffff1673ffffffffffffffffffffffffffffffffffffffff1681526020019081526020016000206150b0565b60006001600083815260200190815260200160002060006101000a81548173ffffffffffffffffffffffffffffffffffffffff021916908373ffffffffffffffffffffffffffffffffffffffff16021790555080600073ffffffffffffffffffffffffffffffffffffffff168373ffffffffffffffffffffffffffffffffffffffff167fddf252ad1be2c89b69c2b068fc378daa952ba7f163c4a11628f55a4df523b3ef60405160405180910390a45050565b6000615e6f60016007805490506130b690919063ffffffff16565b9050600060086000848152602001908152602001600020549050600060078381548110615e9857fe5b906000526020600020015490508060078381548110615eb357fe5b90600052602060002001819055508160086000838152602001908152602001600020819055506007805480919060019003615eee91906162be565b506000600860008681526020019081526020016000208190555050505050565b60405180590338823950565b6000819050600060208281615f2b57fe5b0614615f445760208181615f3b57fe5b06602003810190505b808360200181815250506040518084526000815281810160405250505050565b615f6f816004615fa5565b50565b615f7f8260028351615fc6565b615f92818361610690919063ffffffff16565b505050565b615fa2816007615fa5565b50565b615fc2601f60058360ff16901b17836161b190919063ffffffff16565b5050565b60178111615ff257615fed8160058460ff16901b60ff1617846161b190919063ffffffff16565b616101565b60ff811161603357616017601860058460ff16901b17846161b190919063ffffffff16565b61602d816001856161f19092919063ffffffff16565b50616100565b61ffff811161607557616059601960058460ff16901b17846161b190919063ffffffff16565b61606f816002856161f19092919063ffffffff16565b506160ff565b63ffffffff81116160b95761609d601a60058460ff16901b17846161b190919063ffffffff16565b6160b3816004856161f19092919063ffffffff16565b506160fe565b67ffffffffffffffff81116160fd576160e5601b60058460ff16901b17846161b190919063ffffffff16565b6160fb816008856161f19092919063ffffffff16565b505b5b5b5b5b505050565b61610e616332565b8260200151836000015151835101111561613e5761613d83600261613786602001518651616258565b02616274565b5b60008060008451905085518051602081830101945086518101825260208701935050505b602081106161855781518352602083019250602082019150602081039050616162565b60006001826020036101000a039050801983511681855116818117865250508694505050505092915050565b816020015160018360000151510111156161d7576161d6826002846020015102616274565b5b815180516020818301018381536001820183525050505050565b6161f9616332565b83602001518460000151518301111561622757616226846002616220876020015186616258565b02616274565b5b60006001836101000a0390508451805184818301018684198251161781528582018352505050849150509392505050565b60008183111561626a5782905061626e565b8190505b92915050565b6060826000015190506162878383615f1a565b6162918382616106565b50505050565b60405180608001604052806004905b60608152602001906001900390816162a65790505090565b8154818355818111156162e5578183600052602060002091820191016162e491906163cc565b5b505050565b50805460018160011615610100020316600290046000825580601f10616310575061632f565b601f01602090049060005260206000209081019061632e91906163cc565b5b50565b604051806040016040528060608152602001600081525090565b828054600181600116156101000203166002900490600052602060002090601f016020900481019282601f1061638d57805160ff19168380011785556163bb565b828001600101855582156163bb579182015b828111156163ba57825182559160200191906001019061639f565b5b5090506163c891906163cc565b5090565b6163ee91905b808211156163ea5760008160009055506001016163d2565b5090565b9056fe455243373231456e756d657261626c653a206f776e657220696e646578206f7574206f6620626f756e64734552433732313a207472616e7366657220746f206e6f6e20455243373231526563656976657220696d706c656d656e7465724552433732313a207472616e7366657220746f20746865207a65726f2061646472657373416464726573733a20756e61626c6520746f2073656e642076616c75652c20726563697069656e74206d617920686176652072657665727465644552433732313a206f70657261746f7220717565727920666f72206e6f6e6578697374656e7420746f6b656e4552433732313a20617070726f76652063616c6c6572206973206e6f74206f776e6572206e6f7220617070726f76656420666f7220616c6c4552433732313a2062616c616e636520717565727920666f7220746865207a65726f20616464726573734552433732313a206f776e657220717565727920666f72206e6f6e6578697374656e7420746f6b656e4552433732313a20617070726f76656420717565727920666f72206e6f6e6578697374656e7420746f6b656e4552433732313a207472616e73666572206f6620746f6b656e2074686174206973206e6f74206f776e4552433732314d657461646174613a2055524920717565727920666f72206e6f6e6578697374656e7420746f6b656e4552433732313a20617070726f76616c20746f2063757272656e74206f776e65724552433732313a207472616e736665722063616c6c6572206973206e6f74206f776e6572206e6f7220617070726f766564455243373231456e756d657261626c653a20676c6f62616c20696e646578206f7574206f6620626f756e64734552433732313a206275726e206f6620746f6b656e2074686174206973206e6f74206f776ea265627a7a7231582056b6e4b905b5ea868a04665fc05e6df43d04e9452a8a1a10c22859ab9595a6ae64736f6c63430005100032",
  "source": "pragma solidity ^0.5.0;\r\n\r\nimport \"@openzeppelin/contracts/token/ERC721/ERC721Full.sol\";\r\nimport \"@openzeppelin/contracts/math/SafeMath.sol\";\r\nimport \"./provableAPI_0.5.sol\";\r\n\r\ncontract OwnableDelegateProxy { }\r\n\r\ncontract ProxyRegistry {\r\n    mapping(address => OwnableDelegateProxy) public proxies;\r\n}\r\n\r\ncontract Cell is ERC721Full, usingProvable {\r\n    using Address for address payable;\r\n    using SafeMath for uint256;\r\n\r\n    uint public maxTokenId;\r\n    uint public massPool;\r\n    address payable public owner = address(0xA096b47EbF7727d01Ff4F09c34Fc6591f2c375F0);\r\n    address proxyRegistryAddress;\r\n    uint constant private NUM_RANDOM_BYTES_REQUESTED = 2; //The variable `ceiling` should never be greater than: `(256 ^ NUM_RANDOM_BYTES_REQUESTED) - 1`.\r\n    uint private _currentTokenId;\r\n    uint private gasPrice = 4010000000; //many set exactly 4gwei, so adding 0.01 gwei increases speed much more than expected.\r\n    uint private gasAmount = 250000;\r\n    \r\n    struct Wall {\r\n        uint32 wave;\r\n        bool round;\r\n        uint24 color;\r\n    }\r\n\r\n    struct Nucleus {\r\n        bool hidden;\r\n        uint24 color;\r\n    }\r\n\r\n    struct Feature {\r\n        uint8 category;\r\n        uint8 family;\r\n        uint8 count;\r\n        uint24 color;\r\n    }\r\n\r\n    struct Metadata {\r\n        uint mass;\r\n        Wall wall;\r\n        Nucleus nucleus;\r\n        mapping(uint => Feature) features;\r\n    }\r\n\r\n    mapping(uint => Metadata) id_to_cell;\r\n    mapping(bytes32 => uint16) public provableQueryToSeed;\r\n    mapping(bytes32 => address) public provableQueryToAddress;\r\n    mapping(bytes32 => uint) public provableQueryToTokenId;\r\n    mapping(uint => uint) public nftSeed;\r\n    \r\n    event LogMintQuery(address minter, bytes32 queryId, uint seed, uint tokenId);\r\n\r\n    constructor(address _proxyRegistryAddress) ERC721Full(\"Cell\", \"(Y)\") public {\r\n        massPool = 53000000000000000000000000000000000000;\r\n        _mint(msg.sender, 1);\r\n        maxTokenId = 1;\r\n        proxyRegistryAddress = _proxyRegistryAddress;\r\n        provable_setProof(proofType_Ledger);\r\n        provable_setCustomGasPrice(gasPrice);\r\n    }\r\n\r\n    function __callback(bytes32 _queryId, string memory _result, bytes memory _proof) public {\r\n        require(msg.sender == provable_cbAddress());\r\n\r\n        uint16 seed = provableQueryToSeed[_queryId];\r\n        address minterAddr = provableQueryToAddress[_queryId];\r\n        uint tokenIdR = provableQueryToTokenId[_queryId];\r\n\r\n        uint rand = uint(\r\n                keccak256(abi.encodePacked(_result)) ^ blockhash(block.number-1) ^ bytes32(uint(seed))\r\n            );\r\n        nftSeed[tokenIdR] = rand.mod(65535);\r\n\r\n        _safeMint(minterAddr,tokenIdR);\r\n        \r\n        delete provableQueryToSeed[_queryId];\r\n        delete provableQueryToAddress[_queryId];\r\n        delete provableQueryToTokenId[_queryId];\r\n    }\r\n\r\n\r\n    function mint(uint16 seed) public payable {\r\n        require(msg.value == 2 finney);\r\n        require(massPool >= 8);\r\n        maxTokenId++;\r\n        Metadata storage cell = id_to_cell[maxTokenId];\r\n        cell.mass = 2;\r\n        cell.wall = Wall(1, true, 1);\r\n        cell.nucleus = Nucleus(true, 1);\r\n        cell.features[0] = Feature(1, 1, 1, 1);\r\n        massPool = massPool.sub(8);\r\n        _mint(msg.sender, maxTokenId);\r\n        owner.toPayable().sendValue(2 finney);\r\n\r\n        bytes32 queryId = provable_newRandomDSQuery(\r\n            0, //Execution delay\r\n            NUM_RANDOM_BYTES_REQUESTED,\r\n            gasAmount\r\n        );\r\n        emit LogMintQuery(msg.sender, queryId, seed, _currentTokenId);\r\n        provableQueryToSeed[queryId] = seed;\r\n        provableQueryToAddress[queryId] = msg.sender;\r\n        provableQueryToTokenId[queryId] = maxTokenId;\r\n\r\n    }\r\n\r\n    function merge(uint id1, uint id2) public payable {\r\n        require(msg.value == 2 finney);\r\n        require(massPool > 0);\r\n        require(ownerOf(id1) == msg.sender);\r\n        require(ownerOf(id2) == msg.sender);\r\n        maxTokenId++;\r\n        Metadata storage cell = id_to_cell[maxTokenId];\r\n        cell.mass = 2;\r\n        cell.wall = Wall(1, true, 1);\r\n        cell.nucleus = Nucleus(true, 1);\r\n        cell.features[0] = Feature(1, 1, 1, 1);\r\n        _mint(msg.sender, maxTokenId);\r\n        _burn(id1);\r\n        _burn(id2);\r\n        owner.toPayable().sendValue(2 finney);\r\n    }\r\n\r\n    function split(uint id) public payable {\r\n        require(msg.value == 2 finney);\r\n        require(massPool > 0);\r\n        require(ownerOf(id) == msg.sender);\r\n        maxTokenId++;\r\n        Metadata storage cell1 = id_to_cell[maxTokenId];\r\n        cell1.mass = 2;\r\n        cell1.wall = Wall(1, true, 1);\r\n        cell1.nucleus = Nucleus(true, 1);\r\n        cell1.features[0] = Feature(1, 1, 1, 1);\r\n        _mint(msg.sender, maxTokenId);\r\n        maxTokenId++;\r\n        Metadata storage cell2 = id_to_cell[maxTokenId];\r\n        cell2.mass = 2;\r\n        cell2.wall = Wall(1, true, 1);\r\n        cell2.nucleus = Nucleus(true, 1);\r\n        cell2.features[0] = Feature(1, 1, 1, 1);\r\n        _mint(msg.sender, maxTokenId);\r\n        _burn(id);\r\n        owner.toPayable().sendValue(2 finney);\r\n    }\r\n\r\n    function get(uint id) external view returns (uint mass,\r\n        uint32 wallWave, bool wallRound, uint24 wallColor,\r\n        bool nucleusHidden, uint24 nucleusColor,\r\n        uint8[] memory featureCategories, uint8[] memory featureFamilies,\r\n        uint8[] memory featureCounts, uint24[] memory featureColors\r\n    ) {\r\n        Metadata storage cell = id_to_cell[id];\r\n        mass = cell.mass;\r\n        wallWave = cell.wall.wave;\r\n        wallRound = cell.wall.round;\r\n        wallColor = cell.wall.color;\r\n        nucleusHidden = cell.nucleus.hidden;\r\n        nucleusColor = cell.nucleus.color;\r\n        for (uint i = 0; i < 8; i++) {\r\n            featureCategories[i] = cell.features[i].category;\r\n            featureFamilies[i] = cell.features[i].family;\r\n            featureCounts[i] = cell.features[i].count;\r\n            featureColors[i] = cell.features[i].color;\r\n        }\r\n    }\r\n}",
  "sourcePath": "C:/Users/alexh/Source/cell/contracts/Cell.sol",
  "compiler": {
    "name": "solc",
    "version": "0.5.16+commit.9c3226ce.Emscripten.clang"
  },
  "schemaVersion": "3.0.21",
  "updatedAt": "2020-02-15T23:59:42.957Z",
  "devdoc": {
    "methods": {
      "__callback(bytes32,string)": {
        "details": "The following `__callback` functions are just placeholders ideally     meant to be defined in child contract when proofs are used.     The function bodies simply silence compiler warnings."
      },
      "approve(address,uint256)": {
        "details": "Approves another address to transfer the given token ID The zero address indicates there is no approved address. There can only be one approved address per token at a given time. Can only be called by the token owner or an approved operator.",
        "params": {
          "to": "address to be approved for the given token ID",
          "tokenId": "uint256 ID of the token to be approved"
        }
      },
      "balanceOf(address)": {
        "details": "Gets the balance of the specified address.",
        "params": {
          "owner": "address to query the balance of"
        },
        "return": "uint256 representing the amount owned by the passed address"
      },
      "baseURI()": {
        "details": "Returns the base URI set via {_setBaseURI}. This will be automatically added as a preffix in {tokenURI} to each token's URI, when they are non-empty.    * _Available since v2.5.0._"
      },
      "getApproved(uint256)": {
        "details": "Gets the approved address for a token ID, or zero if no address set Reverts if the token ID does not exist.",
        "params": {
          "tokenId": "uint256 ID of the token to query the approval of"
        },
        "return": "address currently approved for the given token ID"
      },
      "isApprovedForAll(address,address)": {
        "details": "Tells whether an operator is approved by a given owner.",
        "params": {
          "operator": "operator address which you want to query the approval of",
          "owner": "owner address which you want to query the approval of"
        },
        "return": "bool whether the given operator is approved by the given owner"
      },
      "name()": {
        "details": "Gets the token name.",
        "return": "string representing the token name"
      },
      "ownerOf(uint256)": {
        "details": "Gets the owner of the specified token ID.",
        "params": {
          "tokenId": "uint256 ID of the token to query the owner of"
        },
        "return": "address currently marked as the owner of the given token ID"
      },
      "safeTransferFrom(address,address,uint256)": {
        "details": "Safely transfers the ownership of a given token ID to another address If the target address is a contract, it must implement {IERC721Receiver-onERC721Received}, which is called upon a safe transfer, and return the magic value `bytes4(keccak256(\"onERC721Received(address,address,uint256,bytes)\"))`; otherwise, the transfer is reverted. Requires the msg.sender to be the owner, approved, or operator",
        "params": {
          "from": "current owner of the token",
          "to": "address to receive the ownership of the given token ID",
          "tokenId": "uint256 ID of the token to be transferred"
        }
      },
      "safeTransferFrom(address,address,uint256,bytes)": {
        "details": "Safely transfers the ownership of a given token ID to another address If the target address is a contract, it must implement {IERC721Receiver-onERC721Received}, which is called upon a safe transfer, and return the magic value `bytes4(keccak256(\"onERC721Received(address,address,uint256,bytes)\"))`; otherwise, the transfer is reverted. Requires the _msgSender() to be the owner, approved, or operator",
        "params": {
          "_data": "bytes data to send along with a safe transfer check",
          "from": "current owner of the token",
          "to": "address to receive the ownership of the given token ID",
          "tokenId": "uint256 ID of the token to be transferred"
        }
      },
      "setApprovalForAll(address,bool)": {
        "details": "Sets or unsets the approval of a given operator An operator is allowed to transfer all tokens of the sender on their behalf.",
        "params": {
          "approved": "representing the status of the approval to be set",
          "to": "operator address to set the approval"
        }
      },
      "supportsInterface(bytes4)": {
        "details": "See {IERC165-supportsInterface}.     * Time complexity O(1), guaranteed to always use less than 30 000 gas."
      },
      "symbol()": {
        "details": "Gets the token symbol.",
        "return": "string representing the token symbol"
      },
      "tokenByIndex(uint256)": {
        "details": "Gets the token ID at a given index of all the tokens in this contract Reverts if the index is greater or equal to the total number of tokens.",
        "params": {
          "index": "uint256 representing the index to be accessed of the tokens list"
        },
        "return": "uint256 token ID at the given index of the tokens list"
      },
      "tokenOfOwnerByIndex(address,uint256)": {
        "details": "Gets the token ID at a given index of the tokens list of the requested owner.",
        "params": {
          "index": "uint256 representing the index to be accessed of the requested tokens list",
          "owner": "address owning the tokens list to be accessed"
        },
        "return": "uint256 token ID at the given index of the tokens list owned by the requested address"
      },
      "tokenURI(uint256)": {
        "details": "Returns the URI for a given token ID. May return an empty string.     * If the token's URI is non-empty and a base URI was set (via {_setBaseURI}), it will be added to the token ID's URI as a prefix.     * Reverts if the token ID does not exist."
      },
      "totalSupply()": {
        "details": "Gets the total amount of tokens stored by the contract.",
        "return": "uint256 representing the total amount of tokens"
      },
      "transferFrom(address,address,uint256)": {
        "details": "Transfers the ownership of a given token ID to another address. Usage of this method is discouraged, use {safeTransferFrom} whenever possible. Requires the msg.sender to be the owner, approved, or operator.",
        "params": {
          "from": "current owner of the token",
          "to": "address to receive the ownership of the given token ID",
          "tokenId": "uint256 ID of the token to be transferred"
        }
      }
    }
  },
  "userdoc": {
    "methods": {}
  }
}