{
  "contractName": "ProxyRegistry",
  "abi": [
    {
      "constant": true,
      "inputs": [
        {
          "internalType": "address",
          "name": "",
          "type": "address"
        }
      ],
      "name": "proxies",
      "outputs": [
        {
          "internalType": "contract OwnableDelegateProxy",
          "name": "",
          "type": "address"
        }
      ],
      "payable": false,
      "stateMutability": "view",
      "type": "function"
    }
  ],
  "bytecode": "0x608060405234801561001057600080fd5b50610116806100206000396000f3fe6080604052348015600f57600080fd5b506004361060285760003560e01c8063c455279114602d575b600080fd5b606c60048036036020811015604157600080fd5b81019080803573ffffffffffffffffffffffffffffffffffffffff16906020019092919050505060ae565b604051808273ffffffffffffffffffffffffffffffffffffffff1673ffffffffffffffffffffffffffffffffffffffff16815260200191505060405180910390f35b60006020528060005260406000206000915054906101000a900473ffffffffffffffffffffffffffffffffffffffff168156fea265627a7a723158201bafaf6fcd59b9cd12e76d70067925bd53fef2778244ebaaf2361799477c073364736f6c63430005100032",
  "source": "pragma solidity ^0.5.0;\r\n\r\nimport \"@openzeppelin/contracts/token/ERC721/ERC721Full.sol\";\r\nimport \"@openzeppelin/contracts/math/SafeMath.sol\";\r\nimport \"./provableAPI_0.5.sol\";\r\n\r\ncontract OwnableDelegateProxy { }\r\n\r\ncontract ProxyRegistry {\r\n    mapping(address => OwnableDelegateProxy) public proxies;\r\n}\r\n\r\ncontract Cell is ERC721Full, usingProvable {\r\n    using Address for address payable;\r\n    using SafeMath for uint256;\r\n\r\n    uint public maxTokenId;\r\n    uint public massPool;\r\n    address payable public owner = address(0xA096b47EbF7727d01Ff4F09c34Fc6591f2c375F0);\r\n    address proxyRegistryAddress;\r\n    uint constant private NUM_RANDOM_BYTES_REQUESTED = 2; //The variable `ceiling` should never be greater than: `(256 ^ NUM_RANDOM_BYTES_REQUESTED) - 1`.\r\n    uint private _currentTokenId;\r\n    uint private gasPrice = 4010000000; //many set exactly 4gwei, so adding 0.01 gwei increases speed much more than expected.\r\n    uint private gasAmount = 250000;\r\n    \r\n    struct Wall {\r\n        uint32 wave;\r\n        bool round;\r\n        uint24 color;\r\n    }\r\n\r\n    struct Nucleus {\r\n        bool hidden;\r\n        uint24 color;\r\n    }\r\n\r\n    struct Feature {\r\n        uint8 category;\r\n        uint8 family;\r\n        uint8 count;\r\n        uint24 color;\r\n    }\r\n\r\n    struct Metadata {\r\n        uint mass;\r\n        Wall wall;\r\n        Nucleus nucleus;\r\n        mapping(uint => Feature) features;\r\n    }\r\n\r\n    mapping(uint => Metadata) id_to_cell;\r\n    mapping(bytes32 => uint16) public provableQueryToSeed;\r\n    mapping(bytes32 => address) public provableQueryToAddress;\r\n    mapping(bytes32 => uint) public provableQueryToTokenId;\r\n    mapping(uint => uint) public nftSeed;\r\n    \r\n    event LogMintQuery(address minter, bytes32 queryId, uint seed, uint tokenId);\r\n\r\n    constructor(address _proxyRegistryAddress) ERC721Full(\"Cell\", \"(Y)\") public {\r\n        massPool = 53000000000000000000000000000000000000;\r\n        _mint(msg.sender, 1);\r\n        maxTokenId = 1;\r\n        proxyRegistryAddress = _proxyRegistryAddress;\r\n        provable_setProof(proofType_Ledger);\r\n        provable_setCustomGasPrice(gasPrice);\r\n    }\r\n\r\n    function __callback(bytes32 _queryId, string memory _result, bytes memory _proof) public {\r\n        require(msg.sender == provable_cbAddress());\r\n\r\n        uint16 seed = provableQueryToSeed[_queryId];\r\n        address minterAddr = provableQueryToAddress[_queryId];\r\n        uint tokenIdR = provableQueryToTokenId[_queryId];\r\n\r\n        uint rand = uint(\r\n                keccak256(abi.encodePacked(_result)) ^ blockhash(block.number-1) ^ bytes32(uint(seed))\r\n            );\r\n        nftSeed[tokenIdR] = rand.mod(65535);\r\n\r\n        _safeMint(minterAddr,tokenIdR);\r\n        \r\n        delete provableQueryToSeed[_queryId];\r\n        delete provableQueryToAddress[_queryId];\r\n        delete provableQueryToTokenId[_queryId];\r\n    }\r\n\r\n\r\n    function mint(uint16 seed) public payable {\r\n        require(msg.value == 2 finney);\r\n        require(massPool >= 8);\r\n        maxTokenId++;\r\n        Metadata storage cell = id_to_cell[maxTokenId];\r\n        cell.mass = 2;\r\n        cell.wall = Wall(1, true, 1);\r\n        cell.nucleus = Nucleus(true, 1);\r\n        cell.features[0] = Feature(1, 1, 1, 1);\r\n        massPool = massPool.sub(8);\r\n        _mint(msg.sender, maxTokenId);\r\n        owner.toPayable().sendValue(2 finney);\r\n\r\n        bytes32 queryId = provable_newRandomDSQuery(\r\n            0, //Execution delay\r\n            NUM_RANDOM_BYTES_REQUESTED,\r\n            gasAmount\r\n        );\r\n        emit LogMintQuery(msg.sender, queryId, seed, _currentTokenId);\r\n        provableQueryToSeed[queryId] = seed;\r\n        provableQueryToAddress[queryId] = msg.sender;\r\n        provableQueryToTokenId[queryId] = maxTokenId;\r\n\r\n    }\r\n\r\n    function merge(uint id1, uint id2) public payable {\r\n        require(msg.value == 2 finney);\r\n        require(massPool > 0);\r\n        require(ownerOf(id1) == msg.sender);\r\n        require(ownerOf(id2) == msg.sender);\r\n        maxTokenId++;\r\n        Metadata storage cell = id_to_cell[maxTokenId];\r\n        cell.mass = 2;\r\n        cell.wall = Wall(1, true, 1);\r\n        cell.nucleus = Nucleus(true, 1);\r\n        cell.features[0] = Feature(1, 1, 1, 1);\r\n        _mint(msg.sender, maxTokenId);\r\n        _burn(id1);\r\n        _burn(id2);\r\n        owner.toPayable().sendValue(2 finney);\r\n    }\r\n\r\n    function split(uint id) public payable {\r\n        require(msg.value == 2 finney);\r\n        require(massPool > 0);\r\n        require(ownerOf(id) == msg.sender);\r\n        maxTokenId++;\r\n        Metadata storage cell1 = id_to_cell[maxTokenId];\r\n        cell1.mass = 2;\r\n        cell1.wall = Wall(1, true, 1);\r\n        cell1.nucleus = Nucleus(true, 1);\r\n        cell1.features[0] = Feature(1, 1, 1, 1);\r\n        _mint(msg.sender, maxTokenId);\r\n        maxTokenId++;\r\n        Metadata storage cell2 = id_to_cell[maxTokenId];\r\n        cell2.mass = 2;\r\n        cell2.wall = Wall(1, true, 1);\r\n        cell2.nucleus = Nucleus(true, 1);\r\n        cell2.features[0] = Feature(1, 1, 1, 1);\r\n        _mint(msg.sender, maxTokenId);\r\n        _burn(id);\r\n        owner.toPayable().sendValue(2 finney);\r\n    }\r\n\r\n    function get(uint id) external view returns (uint mass,\r\n        uint32 wallWave, bool wallRound, uint24 wallColor,\r\n        bool nucleusHidden, uint24 nucleusColor,\r\n        uint8[] memory featureCategories, uint8[] memory featureFamilies,\r\n        uint8[] memory featureCounts, uint24[] memory featureColors\r\n    ) {\r\n        Metadata storage cell = id_to_cell[id];\r\n        mass = cell.mass;\r\n        wallWave = cell.wall.wave;\r\n        wallRound = cell.wall.round;\r\n        wallColor = cell.wall.color;\r\n        nucleusHidden = cell.nucleus.hidden;\r\n        nucleusColor = cell.nucleus.color;\r\n        for (uint i = 0; i < 8; i++) {\r\n            featureCategories[i] = cell.features[i].category;\r\n            featureFamilies[i] = cell.features[i].family;\r\n            featureCounts[i] = cell.features[i].count;\r\n            featureColors[i] = cell.features[i].color;\r\n        }\r\n    }\r\n}",
  "sourcePath": "C:/Users/alexh/Source/cell/contracts/Cell.sol",
  "compiler": {
    "name": "solc",
    "version": "0.5.16+commit.9c3226ce.Emscripten.clang"
  },
  "schemaVersion": "3.0.21",
  "updatedAt": "2020-02-15T23:59:42.991Z",
  "devdoc": {
    "methods": {}
  },
  "userdoc": {
    "methods": {}
  }
}