{
  "contractName": "Cell",
  "abi": [
    {
      "inputs": [],
      "payable": false,
      "stateMutability": "nonpayable",
      "type": "constructor"
    },
    {
      "anonymous": false,
      "inputs": [
        {
          "indexed": true,
          "internalType": "address",
          "name": "owner",
          "type": "address"
        },
        {
          "indexed": true,
          "internalType": "address",
          "name": "approved",
          "type": "address"
        },
        {
          "indexed": true,
          "internalType": "uint256",
          "name": "tokenId",
          "type": "uint256"
        }
      ],
      "name": "Approval",
      "type": "event"
    },
    {
      "anonymous": false,
      "inputs": [
        {
          "indexed": true,
          "internalType": "address",
          "name": "owner",
          "type": "address"
        },
        {
          "indexed": true,
          "internalType": "address",
          "name": "operator",
          "type": "address"
        },
        {
          "indexed": false,
          "internalType": "bool",
          "name": "approved",
          "type": "bool"
        }
      ],
      "name": "ApprovalForAll",
      "type": "event"
    },
    {
      "anonymous": false,
      "inputs": [
        {
          "indexed": false,
          "internalType": "address",
          "name": "minter",
          "type": "address"
        },
        {
          "indexed": false,
          "internalType": "bytes32",
          "name": "queryId",
          "type": "bytes32"
        },
        {
          "indexed": false,
          "internalType": "uint256",
          "name": "seed",
          "type": "uint256"
        },
        {
          "indexed": false,
          "internalType": "uint256",
          "name": "tokenId",
          "type": "uint256"
        }
      ],
      "name": "LogMintQuery",
      "type": "event"
    },
    {
      "anonymous": false,
      "inputs": [
        {
          "indexed": true,
          "internalType": "address",
          "name": "from",
          "type": "address"
        },
        {
          "indexed": true,
          "internalType": "address",
          "name": "to",
          "type": "address"
        },
        {
          "indexed": true,
          "internalType": "uint256",
          "name": "tokenId",
          "type": "uint256"
        }
      ],
      "name": "Transfer",
      "type": "event"
    },
    {
      "constant": false,
      "inputs": [
        {
          "internalType": "address",
          "name": "to",
          "type": "address"
        },
        {
          "internalType": "uint256",
          "name": "tokenId",
          "type": "uint256"
        }
      ],
      "name": "approve",
      "outputs": [],
      "payable": false,
      "stateMutability": "nonpayable",
      "type": "function"
    },
    {
      "constant": true,
      "inputs": [
        {
          "internalType": "address",
          "name": "owner",
          "type": "address"
        }
      ],
      "name": "balanceOf",
      "outputs": [
        {
          "internalType": "uint256",
          "name": "",
          "type": "uint256"
        }
      ],
      "payable": false,
      "stateMutability": "view",
      "type": "function"
    },
    {
      "constant": true,
      "inputs": [],
      "name": "baseURI",
      "outputs": [
        {
          "internalType": "string",
          "name": "",
          "type": "string"
        }
      ],
      "payable": false,
      "stateMutability": "view",
      "type": "function"
    },
    {
      "constant": true,
      "inputs": [
        {
          "internalType": "uint256",
          "name": "tokenId",
          "type": "uint256"
        }
      ],
      "name": "getApproved",
      "outputs": [
        {
          "internalType": "address",
          "name": "",
          "type": "address"
        }
      ],
      "payable": false,
      "stateMutability": "view",
      "type": "function"
    },
    {
      "constant": true,
      "inputs": [
        {
          "internalType": "address",
          "name": "owner",
          "type": "address"
        },
        {
          "internalType": "address",
          "name": "operator",
          "type": "address"
        }
      ],
      "name": "isApprovedForAll",
      "outputs": [
        {
          "internalType": "bool",
          "name": "",
          "type": "bool"
        }
      ],
      "payable": false,
      "stateMutability": "view",
      "type": "function"
    },
    {
      "constant": true,
      "inputs": [],
      "name": "massPool",
      "outputs": [
        {
          "internalType": "uint256",
          "name": "",
          "type": "uint256"
        }
      ],
      "payable": false,
      "stateMutability": "view",
      "type": "function"
    },
    {
      "constant": true,
      "inputs": [],
      "name": "maxTokenId",
      "outputs": [
        {
          "internalType": "uint256",
          "name": "",
          "type": "uint256"
        }
      ],
      "payable": false,
      "stateMutability": "view",
      "type": "function"
    },
    {
      "constant": true,
      "inputs": [],
      "name": "name",
      "outputs": [
        {
          "internalType": "string",
          "name": "",
          "type": "string"
        }
      ],
      "payable": false,
      "stateMutability": "view",
      "type": "function"
    },
    {
      "constant": true,
      "inputs": [
        {
          "internalType": "uint256",
          "name": "",
          "type": "uint256"
        }
      ],
      "name": "nftSeed",
      "outputs": [
        {
          "internalType": "uint256",
          "name": "",
          "type": "uint256"
        }
      ],
      "payable": false,
      "stateMutability": "view",
      "type": "function"
    },
    {
      "constant": true,
      "inputs": [],
      "name": "owner",
      "outputs": [
        {
          "internalType": "address payable",
          "name": "",
          "type": "address"
        }
      ],
      "payable": false,
      "stateMutability": "view",
      "type": "function"
    },
    {
      "constant": true,
      "inputs": [
        {
          "internalType": "uint256",
          "name": "tokenId",
          "type": "uint256"
        }
      ],
      "name": "ownerOf",
      "outputs": [
        {
          "internalType": "address",
          "name": "",
          "type": "address"
        }
      ],
      "payable": false,
      "stateMutability": "view",
      "type": "function"
    },
    {
      "constant": true,
      "inputs": [
        {
          "internalType": "bytes32",
          "name": "",
          "type": "bytes32"
        }
      ],
      "name": "provableQueryToAddress",
      "outputs": [
        {
          "internalType": "address",
          "name": "",
          "type": "address"
        }
      ],
      "payable": false,
      "stateMutability": "view",
      "type": "function"
    },
    {
      "constant": true,
      "inputs": [
        {
          "internalType": "bytes32",
          "name": "",
          "type": "bytes32"
        }
      ],
      "name": "provableQueryToSeed",
      "outputs": [
        {
          "internalType": "uint16",
          "name": "",
          "type": "uint16"
        }
      ],
      "payable": false,
      "stateMutability": "view",
      "type": "function"
    },
    {
      "constant": true,
      "inputs": [
        {
          "internalType": "bytes32",
          "name": "",
          "type": "bytes32"
        }
      ],
      "name": "provableQueryToTokenId",
      "outputs": [
        {
          "internalType": "uint256",
          "name": "",
          "type": "uint256"
        }
      ],
      "payable": false,
      "stateMutability": "view",
      "type": "function"
    },
    {
      "constant": false,
      "inputs": [
        {
          "internalType": "address",
          "name": "from",
          "type": "address"
        },
        {
          "internalType": "address",
          "name": "to",
          "type": "address"
        },
        {
          "internalType": "uint256",
          "name": "tokenId",
          "type": "uint256"
        }
      ],
      "name": "safeTransferFrom",
      "outputs": [],
      "payable": false,
      "stateMutability": "nonpayable",
      "type": "function"
    },
    {
      "constant": false,
      "inputs": [
        {
          "internalType": "address",
          "name": "from",
          "type": "address"
        },
        {
          "internalType": "address",
          "name": "to",
          "type": "address"
        },
        {
          "internalType": "uint256",
          "name": "tokenId",
          "type": "uint256"
        },
        {
          "internalType": "bytes",
          "name": "_data",
          "type": "bytes"
        }
      ],
      "name": "safeTransferFrom",
      "outputs": [],
      "payable": false,
      "stateMutability": "nonpayable",
      "type": "function"
    },
    {
      "constant": false,
      "inputs": [
        {
          "internalType": "address",
          "name": "to",
          "type": "address"
        },
        {
          "internalType": "bool",
          "name": "approved",
          "type": "bool"
        }
      ],
      "name": "setApprovalForAll",
      "outputs": [],
      "payable": false,
      "stateMutability": "nonpayable",
      "type": "function"
    },
    {
      "constant": true,
      "inputs": [
        {
          "internalType": "bytes4",
          "name": "interfaceId",
          "type": "bytes4"
        }
      ],
      "name": "supportsInterface",
      "outputs": [
        {
          "internalType": "bool",
          "name": "",
          "type": "bool"
        }
      ],
      "payable": false,
      "stateMutability": "view",
      "type": "function"
    },
    {
      "constant": true,
      "inputs": [],
      "name": "symbol",
      "outputs": [
        {
          "internalType": "string",
          "name": "",
          "type": "string"
        }
      ],
      "payable": false,
      "stateMutability": "view",
      "type": "function"
    },
    {
      "constant": true,
      "inputs": [
        {
          "internalType": "uint256",
          "name": "index",
          "type": "uint256"
        }
      ],
      "name": "tokenByIndex",
      "outputs": [
        {
          "internalType": "uint256",
          "name": "",
          "type": "uint256"
        }
      ],
      "payable": false,
      "stateMutability": "view",
      "type": "function"
    },
    {
      "constant": true,
      "inputs": [
        {
          "internalType": "address",
          "name": "owner",
          "type": "address"
        },
        {
          "internalType": "uint256",
          "name": "index",
          "type": "uint256"
        }
      ],
      "name": "tokenOfOwnerByIndex",
      "outputs": [
        {
          "internalType": "uint256",
          "name": "",
          "type": "uint256"
        }
      ],
      "payable": false,
      "stateMutability": "view",
      "type": "function"
    },
    {
      "constant": true,
      "inputs": [
        {
          "internalType": "uint256",
          "name": "tokenId",
          "type": "uint256"
        }
      ],
      "name": "tokenURI",
      "outputs": [
        {
          "internalType": "string",
          "name": "",
          "type": "string"
        }
      ],
      "payable": false,
      "stateMutability": "view",
      "type": "function"
    },
    {
      "constant": true,
      "inputs": [],
      "name": "totalSupply",
      "outputs": [
        {
          "internalType": "uint256",
          "name": "",
          "type": "uint256"
        }
      ],
      "payable": false,
      "stateMutability": "view",
      "type": "function"
    },
    {
      "constant": false,
      "inputs": [
        {
          "internalType": "address",
          "name": "from",
          "type": "address"
        },
        {
          "internalType": "address",
          "name": "to",
          "type": "address"
        },
        {
          "internalType": "uint256",
          "name": "tokenId",
          "type": "uint256"
        }
      ],
      "name": "transferFrom",
      "outputs": [],
      "payable": false,
      "stateMutability": "nonpayable",
      "type": "function"
    },
    {
      "constant": false,
      "inputs": [
        {
          "internalType": "bytes32",
          "name": "_myid",
          "type": "bytes32"
        },
        {
          "internalType": "string",
          "name": "_result",
          "type": "string"
        }
      ],
      "name": "__callback",
      "outputs": [],
      "payable": false,
      "stateMutability": "nonpayable",
      "type": "function"
    },
    {
      "constant": false,
      "inputs": [
        {
          "internalType": "bytes32",
          "name": "_queryId",
          "type": "bytes32"
        },
        {
          "internalType": "string",
          "name": "_result",
          "type": "string"
        },
        {
          "internalType": "bytes",
          "name": "_proof",
          "type": "bytes"
        }
      ],
      "name": "__callback",
      "outputs": [],
      "payable": false,
      "stateMutability": "nonpayable",
      "type": "function"
    },
    {
      "constant": false,
      "inputs": [
        {
          "internalType": "uint256",
          "name": "seed",
          "type": "uint256"
        }
      ],
      "name": "mint",
      "outputs": [],
      "payable": true,
      "stateMutability": "payable",
      "type": "function"
    },
    {
      "constant": false,
      "inputs": [
        {
          "internalType": "uint256",
          "name": "id1",
          "type": "uint256"
        },
        {
          "internalType": "uint256",
          "name": "id2",
          "type": "uint256"
        }
      ],
      "name": "merge",
      "outputs": [],
      "payable": true,
      "stateMutability": "payable",
      "type": "function"
    },
    {
      "constant": false,
      "inputs": [
        {
          "internalType": "uint256",
          "name": "id",
          "type": "uint256"
        }
      ],
      "name": "split",
      "outputs": [],
      "payable": true,
      "stateMutability": "payable",
      "type": "function"
    },
    {
      "constant": true,
      "inputs": [
        {
          "internalType": "uint256",
          "name": "id",
          "type": "uint256"
        }
      ],
      "name": "get",
      "outputs": [
        {
          "internalType": "uint256",
          "name": "mass",
          "type": "uint256"
        },
        {
          "internalType": "uint32",
          "name": "wallWave",
          "type": "uint32"
        },
        {
          "internalType": "bool",
          "name": "wallRound",
          "type": "bool"
        },
        {
          "internalType": "uint24",
          "name": "wallColor",
          "type": "uint24"
        },
        {
          "internalType": "bool",
          "name": "nucleusHidden",
          "type": "bool"
        },
        {
          "internalType": "uint24",
          "name": "nucleusColor",
          "type": "uint24"
        },
        {
          "internalType": "uint8[8]",
          "name": "featureCategories",
          "type": "uint8[8]"
        },
        {
          "internalType": "uint8[8]",
          "name": "featureFamilies",
          "type": "uint8[8]"
        },
        {
          "internalType": "uint8[8]",
          "name": "featureCounts",
          "type": "uint8[8]"
        },
        {
          "internalType": "uint24[8]",
          "name": "featureColors",
          "type": "uint24[8]"
        }
      ],
      "payable": false,
      "stateMutability": "view",
      "type": "function"
    }
  ],
  "bytecode": "0x608060405273a096b47ebf7727d01ff4f09c34fc6591f2c375f0601460006101000a81548173ffffffffffffffffffffffffffffffffffffffff021916908373ffffffffffffffffffffffffffffffffffffffff16021790555063ef03be806017556203d0906018553480156200007557600080fd5b506040518060400160405280600481526020017f43656c6c000000000000000000000000000000000000000000000000000000008152506040518060400160405280600381526020017f28592900000000000000000000000000000000000000000000000000000000008152508181620000fc6301ffc9a760e01b620001cc60201b60201c565b620001146380ac58cd60e01b620001cc60201b60201c565b6200012c63780e9d6360e01b620001cc60201b60201c565b81600990805190602001906200014492919062001374565b5080600a90805190602001906200015d92919062001374565b5062000176635b5e139f60e01b620001cc60201b60201c565b50505050614e2060138190555062000196336001620002d560201b60201c565b6001601281905550620001b3603060f81b6200031360201b60201c565b620001c66017546200067960201b60201c565b62001423565b63ffffffff60e01b817bffffffffffffffffffffffffffffffffffffffffffffffffffffffff1916141562000269576040517f08c379a000000000000000000000000000000000000000000000000000000000815260040180806020018281038252601c8152602001807f4552433136353a20696e76616c696420696e746572666163652069640000000081525060200191505060405180910390fd5b6001600080837bffffffffffffffffffffffffffffffffffffffffffffffffffffffff19167bffffffffffffffffffffffffffffffffffffffffffffffffffffffff1916815260200190815260200160002060006101000a81548160ff02191690831515021790555050565b620002ec82826200099b60201b620048291760201c565b620002fe828262000bca60201b60201c565b6200030f8162000c9160201b60201c565b5050565b600073ffffffffffffffffffffffffffffffffffffffff16600e60009054906101000a900473ffffffffffffffffffffffffffffffffffffffff1673ffffffffffffffffffffffffffffffffffffffff161480620003a357506000620003a1600e60009054906101000a900473ffffffffffffffffffffffffffffffffffffffff1662000cdd60201b60201c565b145b15620003bd57620003bb600062000ce860201b60201c565b505b600e60009054906101000a900473ffffffffffffffffffffffffffffffffffffffff1673ffffffffffffffffffffffffffffffffffffffff166338cc48316040518163ffffffff1660e01b8152600401602060405180830381600087803b1580156200042857600080fd5b505af11580156200043d573d6000803e3d6000fd5b505050506040513d60208110156200045457600080fd5b810190808051906020019092919050505073ffffffffffffffffffffffffffffffffffffffff16600d60009054906101000a900473ffffffffffffffffffffffffffffffffffffffff1673ffffffffffffffffffffffffffffffffffffffff1614620005a357600e60009054906101000a900473ffffffffffffffffffffffffffffffffffffffff1673ffffffffffffffffffffffffffffffffffffffff166338cc48316040518163ffffffff1660e01b8152600401602060405180830381600087803b1580156200052557600080fd5b505af11580156200053a573d6000803e3d6000fd5b505050506040513d60208110156200055157600080fd5b8101908080519060200190929190505050600d60006101000a81548173ffffffffffffffffffffffffffffffffffffffff021916908373ffffffffffffffffffffffffffffffffffffffff1602179055505b600d60009054906101000a900473ffffffffffffffffffffffffffffffffffffffff1673ffffffffffffffffffffffffffffffffffffffff1663688dcfd7826040518263ffffffff1660e01b815260040180827effffffffffffffffffffffffffffffffffffffffffffffffffffffffffffff19167effffffffffffffffffffffffffffffffffffffffffffffffffffffffffffff19168152602001915050600060405180830381600087803b1580156200065d57600080fd5b505af115801562000672573d6000803e3d6000fd5b5050505050565b600073ffffffffffffffffffffffffffffffffffffffff16600e60009054906101000a900473ffffffffffffffffffffffffffffffffffffffff1673ffffffffffffffffffffffffffffffffffffffff161480620007095750600062000707600e60009054906101000a900473ffffffffffffffffffffffffffffffffffffffff1662000cdd60201b60201c565b145b15620007235762000721600062000ce860201b60201c565b505b600e60009054906101000a900473ffffffffffffffffffffffffffffffffffffffff1673ffffffffffffffffffffffffffffffffffffffff166338cc48316040518163ffffffff1660e01b8152600401602060405180830381600087803b1580156200078e57600080fd5b505af1158015620007a3573d6000803e3d6000fd5b505050506040513d6020811015620007ba57600080fd5b810190808051906020019092919050505073ffffffffffffffffffffffffffffffffffffffff16600d60009054906101000a900473ffffffffffffffffffffffffffffffffffffffff1673ffffffffffffffffffffffffffffffffffffffff16146200090957600e60009054906101000a900473ffffffffffffffffffffffffffffffffffffffff1673ffffffffffffffffffffffffffffffffffffffff166338cc48316040518163ffffffff1660e01b8152600401602060405180830381600087803b1580156200088b57600080fd5b505af1158015620008a0573d6000803e3d6000fd5b505050506040513d6020811015620008b757600080fd5b8101908080519060200190929190505050600d60006101000a81548173ffffffffffffffffffffffffffffffffffffffff021916908373ffffffffffffffffffffffffffffffffffffffff1602179055505b600d60009054906101000a900473ffffffffffffffffffffffffffffffffffffffff1673ffffffffffffffffffffffffffffffffffffffff1663ca6ad1e4826040518263ffffffff1660e01b815260040180828152602001915050600060405180830381600087803b1580156200097f57600080fd5b505af115801562000994573d6000803e3d6000fd5b5050505050565b600073ffffffffffffffffffffffffffffffffffffffff168273ffffffffffffffffffffffffffffffffffffffff16141562000a3f576040517f08c379a00000000000000000000000000000000000000000000000000000000081526004018080602001828103825260208152602001807f4552433732313a206d696e7420746f20746865207a65726f206164647265737381525060200191505060405180910390fd5b62000a508162000d0160201b60201c565b1562000ac4576040517f08c379a000000000000000000000000000000000000000000000000000000000815260040180806020018281038252601c8152602001807f4552433732313a20746f6b656e20616c7265616479206d696e7465640000000081525060200191505060405180910390fd5b816001600083815260200190815260200160002060006101000a81548173ffffffffffffffffffffffffffffffffffffffff021916908373ffffffffffffffffffffffffffffffffffffffff16021790555062000b6a600360008473ffffffffffffffffffffffffffffffffffffffff1673ffffffffffffffffffffffffffffffffffffffff16815260200190815260200160002062000d7360201b62004f071760201c565b808273ffffffffffffffffffffffffffffffffffffffff16600073ffffffffffffffffffffffffffffffffffffffff167fddf252ad1be2c89b69c2b068fc378daa952ba7f163c4a11628f55a4df523b3ef60405160405180910390a45050565b600560008373ffffffffffffffffffffffffffffffffffffffff1673ffffffffffffffffffffffffffffffffffffffff168152602001908152602001600020805490506006600083815260200190815260200160002081905550600560008373ffffffffffffffffffffffffffffffffffffffff1673ffffffffffffffffffffffffffffffffffffffff1681526020019081526020016000208190806001815401808255809150509060018203906000526020600020016000909192909190915055505050565b6007805490506008600083815260200190815260200160002081905550600781908060018154018082558091505090600182039060005260206000200160009091929091909150555050565b6000813b9050919050565b600062000cfa62000d8960201b60201c565b9050919050565b6000806001600084815260200190815260200160002060009054906101000a900473ffffffffffffffffffffffffffffffffffffffff169050600073ffffffffffffffffffffffffffffffffffffffff168173ffffffffffffffffffffffffffffffffffffffff161415915050919050565b6001816000016000828254019250508190555050565b60008062000db1731d3b2638a7cc9f2cb3d298a3da7a90b67e5506ed62000cdd60201b60201c565b111562000e5d57731d3b2638a7cc9f2cb3d298a3da7a90b67e5506ed600e60006101000a81548173ffffffffffffffffffffffffffffffffffffffff021916908373ffffffffffffffffffffffffffffffffffffffff16021790555062000e536040518060400160405280600b81526020017f6574685f6d61696e6e65740000000000000000000000000000000000000000008152506200135860201b60201c565b6001905062001355565b600062000e8473c03a2615d5efaf5f49f60b7bb6583eaec212fdf162000cdd60201b60201c565b111562000f305773c03a2615d5efaf5f49f60b7bb6583eaec212fdf1600e60006101000a81548173ffffffffffffffffffffffffffffffffffffffff021916908373ffffffffffffffffffffffffffffffffffffffff16021790555062000f266040518060400160405280600c81526020017f6574685f726f707374656e3300000000000000000000000000000000000000008152506200135860201b60201c565b6001905062001355565b600062000f5773b7a07bcf2ba2f2703b24c0691b5278999c59ac7e62000cdd60201b60201c565b1115620010035773b7a07bcf2ba2f2703b24c0691b5278999c59ac7e600e60006101000a81548173ffffffffffffffffffffffffffffffffffffffff021916908373ffffffffffffffffffffffffffffffffffffffff16021790555062000ff96040518060400160405280600981526020017f6574685f6b6f76616e00000000000000000000000000000000000000000000008152506200135860201b60201c565b6001905062001355565b60006200102a73146500cfd35b22e4a392fe0adc06de1a1368ed4862000cdd60201b60201c565b1115620010d65773146500cfd35b22e4a392fe0adc06de1a1368ed48600e60006101000a81548173ffffffffffffffffffffffffffffffffffffffff021916908373ffffffffffffffffffffffffffffffffffffffff160217905550620010cc6040518060400160405280600b81526020017f6574685f72696e6b6562790000000000000000000000000000000000000000008152506200135860201b60201c565b6001905062001355565b6000620010fd73a2998efd205fb9d4b4963afb70778d6354ad3a4162000cdd60201b60201c565b1115620011a95773a2998efd205fb9d4b4963afb70778d6354ad3a41600e60006101000a81548173ffffffffffffffffffffffffffffffffffffffff021916908373ffffffffffffffffffffffffffffffffffffffff1602179055506200119f6040518060400160405280600a81526020017f6574685f676f65726c69000000000000000000000000000000000000000000008152506200135860201b60201c565b6001905062001355565b6000620011d0736f485c8bf6fc43ea212e93bbf8ce046c7f1cb47562000cdd60201b60201c565b11156200123657736f485c8bf6fc43ea212e93bbf8ce046c7f1cb475600e60006101000a81548173ffffffffffffffffffffffffffffffffffffffff021916908373ffffffffffffffffffffffffffffffffffffffff1602179055506001905062001355565b60006200125d7320e12a1f859b3feae5fb2a0a32c18f5a65555bbf62000cdd60201b60201c565b1115620012c3577320e12a1f859b3feae5fb2a0a32c18f5a65555bbf600e60006101000a81548173ffffffffffffffffffffffffffffffffffffffff021916908373ffffffffffffffffffffffffffffffffffffffff1602179055506001905062001355565b6000620012ea7351efaf4c8b3c9afbd5ab9f4bbc82784ab6ef8faa62000cdd60201b60201c565b111562001350577351efaf4c8b3c9afbd5ab9f4bbc82784ab6ef8faa600e60006101000a81548173ffffffffffffffffffffffffffffffffffffffff021916908373ffffffffffffffffffffffffffffffffffffffff1602179055506001905062001355565b600090505b90565b80600f90805190602001906200137092919062001374565b5050565b828054600181600116156101000203166002900490600052602060002090601f016020900481019282601f10620013b757805160ff1916838001178555620013e8565b82800160010185558215620013e8579182015b82811115620013e7578251825591602001919060010190620013ca565b5b509050620013f79190620013fb565b5090565b6200142091905b808211156200141c57600081600090555060010162001402565b5090565b90565b615edf80620014336000396000f3fe6080604052600436106101cd5760003560e01c806370a08231116100f7578063a22cb46511610095578063dbceb00511610064578063dbceb00514610ef6578063e985e9c514610f24578063eb89ce7714610fad578063fb4092c014611028576101cd565b8063a22cb46514610c9b578063b88d4fde14610cf8578063c87b56dd14610e0a578063d1c2babb14610ebe576101cd565b80639290b5be116100d15780639290b5be14610a385780639507d39a14610a8757806395d89b4114610bdd578063a0712d6814610c6d576101cd565b806370a08231146109515780638da5cb5b146109b657806391ba317a14610a0d576101cd565b80632f745c591161016f5780634f6ccce71161013e5780634f6ccce7146107a0578063525125de146107ef5780636352211e146108465780636c0360eb146108c1576101cd565b80632f745c591461052257806338bbfa501461059157806342842e0e146106fa578063453b479114610775576101cd565b8063095ea7b3116101ab578063095ea7b31461034f57806318160ddd146103aa57806323b872dd146103d557806327dc297e14610450576101cd565b806301ffc9a7146101d257806306fdde0314610244578063081812fc146102d4575b600080fd5b3480156101de57600080fd5b5061022a600480360360208110156101f557600080fd5b8101908080357bffffffffffffffffffffffffffffffffffffffffffffffffffffffff19169060200190929190505050611077565b604051808215151515815260200191505060405180910390f35b34801561025057600080fd5b506102596110de565b6040518080602001828103825283818151815260200191508051906020019080838360005b8381101561029957808201518184015260208101905061027e565b50505050905090810190601f1680156102c65780820380516001836020036101000a031916815260200191505b509250505060405180910390f35b3480156102e057600080fd5b5061030d600480360360208110156102f757600080fd5b8101908080359060200190929190505050611180565b604051808273ffffffffffffffffffffffffffffffffffffffff1673ffffffffffffffffffffffffffffffffffffffff16815260200191505060405180910390f35b34801561035b57600080fd5b506103a86004803603604081101561037257600080fd5b81019080803573ffffffffffffffffffffffffffffffffffffffff1690602001909291908035906020019092919050505061121b565b005b3480156103b657600080fd5b506103bf611402565b6040518082815260200191505060405180910390f35b3480156103e157600080fd5b5061044e600480360360608110156103f857600080fd5b81019080803573ffffffffffffffffffffffffffffffffffffffff169060200190929190803573ffffffffffffffffffffffffffffffffffffffff1690602001909291908035906020019092919050505061140f565b005b34801561045c57600080fd5b506105206004803603604081101561047357600080fd5b81019080803590602001909291908035906020019064010000000081111561049a57600080fd5b8201836020820111156104ac57600080fd5b803590602001918460018302840111640100000000831117156104ce57600080fd5b91908080601f016020809104026020016040519081016040528093929190818152602001838380828437600081840152601f19601f820116905080830192505050505050509192919290505050611485565b005b34801561052e57600080fd5b5061057b6004803603604081101561054557600080fd5b81019080803573ffffffffffffffffffffffffffffffffffffffff169060200190929190803590602001909291905050506114c8565b6040518082815260200191505060405180910390f35b34801561059d57600080fd5b506106f8600480360360608110156105b457600080fd5b8101908080359060200190929190803590602001906401000000008111156105db57600080fd5b8201836020820111156105ed57600080fd5b8035906020019184600183028401116401000000008311171561060f57600080fd5b91908080601f016020809104026020016040519081016040528093929190818152602001838380828437600081840152601f19601f8201169050808301925050505050505091929192908035906020019064010000000081111561067257600080fd5b82018360208201111561068457600080fd5b803590602001918460018302840111640100000000831117156106a657600080fd5b91908080601f016020809104026020016040519081016040528093929190818152602001838380828437600081840152601f19601f820116905080830192505050505050509192919290505050611587565b005b34801561070657600080fd5b506107736004803603606081101561071d57600080fd5b81019080803573ffffffffffffffffffffffffffffffffffffffff169060200190929190803573ffffffffffffffffffffffffffffffffffffffff16906020019092919080359060200190929190505050611774565b005b34801561078157600080fd5b5061078a611794565b6040518082815260200191505060405180910390f35b3480156107ac57600080fd5b506107d9600480360360208110156107c357600080fd5b810190808035906020019092919050505061179a565b6040518082815260200191505060405180910390f35b3480156107fb57600080fd5b506108286004803603602081101561081257600080fd5b810190808035906020019092919050505061181a565b604051808261ffff1661ffff16815260200191505060405180910390f35b34801561085257600080fd5b5061087f6004803603602081101561086957600080fd5b810190808035906020019092919050505061183b565b604051808273ffffffffffffffffffffffffffffffffffffffff1673ffffffffffffffffffffffffffffffffffffffff16815260200191505060405180910390f35b3480156108cd57600080fd5b506108d6611903565b6040518080602001828103825283818151815260200191508051906020019080838360005b838110156109165780820151818401526020810190506108fb565b50505050905090810190601f1680156109435780820380516001836020036101000a031916815260200191505b509250505060405180910390f35b34801561095d57600080fd5b506109a06004803603602081101561097457600080fd5b81019080803573ffffffffffffffffffffffffffffffffffffffff1690602001909291905050506119a5565b6040518082815260200191505060405180910390f35b3480156109c257600080fd5b506109cb611a7a565b604051808273ffffffffffffffffffffffffffffffffffffffff1673ffffffffffffffffffffffffffffffffffffffff16815260200191505060405180910390f35b348015610a1957600080fd5b50610a22611aa0565b6040518082815260200191505060405180910390f35b348015610a4457600080fd5b50610a7160048036036020811015610a5b57600080fd5b8101908080359060200190929190505050611aa6565b6040518082815260200191505060405180910390f35b348015610a9357600080fd5b50610ac060048036036020811015610aaa57600080fd5b8101908080359060200190929190505050611abe565b604051808b81526020018a63ffffffff1663ffffffff168152602001891515151581526020018862ffffff1662ffffff168152602001871515151581526020018662ffffff1662ffffff16815260200185600860200280838360005b83811015610b37578082015181840152602081019050610b1c565b5050505090500184600860200280838360005b83811015610b65578082015181840152602081019050610b4a565b5050505090500183600860200280838360005b83811015610b93578082015181840152602081019050610b78565b5050505090500182600860200280838360005b83811015610bc1578082015181840152602081019050610ba6565b505050509050019a505050505050505050505060405180910390f35b348015610be957600080fd5b50610bf2611cdb565b6040518080602001828103825283818151815260200191508051906020019080838360005b83811015610c32578082015181840152602081019050610c17565b50505050905090810190601f168015610c5f5780820380516001836020036101000a031916815260200191505b509250505060405180910390f35b610c9960048036036020811015610c8357600080fd5b8101908080359060200190929190505050611d7d565b005b348015610ca757600080fd5b50610cf660048036036040811015610cbe57600080fd5b81019080803573ffffffffffffffffffffffffffffffffffffffff169060200190929190803515159060200190929190505050612146565b005b348015610d0457600080fd5b50610e0860048036036080811015610d1b57600080fd5b81019080803573ffffffffffffffffffffffffffffffffffffffff169060200190929190803573ffffffffffffffffffffffffffffffffffffffff1690602001909291908035906020019092919080359060200190640100000000811115610d8257600080fd5b820183602082011115610d9457600080fd5b80359060200191846001830284011164010000000083111715610db657600080fd5b91908080601f016020809104026020016040519081016040528093929190818152602001838380828437600081840152601f19601f8201169050808301925050505050505091929192905050506122fe565b005b348015610e1657600080fd5b50610e4360048036036020811015610e2d57600080fd5b8101908080359060200190929190505050612376565b6040518080602001828103825283818151815260200191508051906020019080838360005b83811015610e83578082015181840152602081019050610e68565b50505050905090810190601f168015610eb05780820380516001836020036101000a031916815260200191505b509250505060405180910390f35b610ef460048036036040811015610ed457600080fd5b810190808035906020019092919080359060200190929190505050612578565b005b610f2260048036036020811015610f0c57600080fd5b8101908080359060200190929190505050612c4c565b005b348015610f3057600080fd5b50610f9360048036036040811015610f4757600080fd5b81019080803573ffffffffffffffffffffffffffffffffffffffff169060200190929190803573ffffffffffffffffffffffffffffffffffffffff16906020019092919050505061347e565b604051808215151515815260200191505060405180910390f35b348015610fb957600080fd5b50610fe660048036036020811015610fd057600080fd5b8101908080359060200190929190505050613512565b604051808273ffffffffffffffffffffffffffffffffffffffff1673ffffffffffffffffffffffffffffffffffffffff16815260200191505060405180910390f35b34801561103457600080fd5b506110616004803603602081101561104b57600080fd5b8101908080359060200190929190505050613545565b6040518082815260200191505060405180910390f35b6000806000837bffffffffffffffffffffffffffffffffffffffffffffffffffffffff19167bffffffffffffffffffffffffffffffffffffffffffffffffffffffff1916815260200190815260200160002060009054906101000a900460ff169050919050565b606060098054600181600116156101000203166002900480601f0160208091040260200160405190810160405280929190818152602001828054600181600116156101000203166002900480156111765780601f1061114b57610100808354040283529160200191611176565b820191906000526020600020905b81548152906001019060200180831161115957829003601f168201915b5050505050905090565b600061118b8261355d565b6111e0576040517f08c379a000000000000000000000000000000000000000000000000000000000815260040180806020018281038252602c815260200180615d61602c913960400191505060405180910390fd5b6002600083815260200190815260200160002060009054906101000a900473ffffffffffffffffffffffffffffffffffffffff169050919050565b60006112268261183b565b90508073ffffffffffffffffffffffffffffffffffffffff168373ffffffffffffffffffffffffffffffffffffffff1614156112ad576040517f08c379a0000000000000000000000000000000000000000000000000000000008152600401808060200182810382526021815260200180615de56021913960400191505060405180910390fd5b8073ffffffffffffffffffffffffffffffffffffffff166112cc6135cf565b73ffffffffffffffffffffffffffffffffffffffff1614806112fb57506112fa816112f56135cf565b61347e565b5b611350576040517f08c379a0000000000000000000000000000000000000000000000000000000008152600401808060200182810382526038815260200180615cd66038913960400191505060405180910390fd5b826002600084815260200190815260200160002060006101000a81548173ffffffffffffffffffffffffffffffffffffffff021916908373ffffffffffffffffffffffffffffffffffffffff160217905550818373ffffffffffffffffffffffffffffffffffffffff168273ffffffffffffffffffffffffffffffffffffffff167f8c5be1e5ebec7d5bd14f71427d1e84f3dd0314c0f7b2291e5b200ac8c7c3b92560405160405180910390a4505050565b6000600780549050905090565b61142061141a6135cf565b826135d7565b611475576040517f08c379a0000000000000000000000000000000000000000000000000000000008152600401808060200182810382526031815260200180615e296031913960400191505060405180910390fd5b6114808383836136cb565b505050565b6114c4828260006040519080825280601f01601f1916602001820160405280156114be5781602001600182028038833980820191505090505b50611587565b5050565b60006114d3836119a5565b821061152a576040517f08c379a000000000000000000000000000000000000000000000000000000000815260040180806020018281038252602b815260200180615bef602b913960400191505060405180910390fd5b600560008473ffffffffffffffffffffffffffffffffffffffff1673ffffffffffffffffffffffffffffffffffffffff168152602001908152602001600020828154811061157457fe5b9060005260206000200154905092915050565b61158f6136ef565b73ffffffffffffffffffffffffffffffffffffffff163373ffffffffffffffffffffffffffffffffffffffff16146115c657600080fd5b6000601a600085815260200190815260200160002060009054906101000a900461ffff1690506000601b600086815260200190815260200160002060009054906101000a900473ffffffffffffffffffffffffffffffffffffffff1690506000601c600087815260200190815260200160002054905060008361ffff1660001b6001430340876040516020018082805190602001908083835b60208310611682578051825260208201915060208101905060208303925061165f565b6001836020036101000a03801982511681845116808217855250505050505090500191505060405160208183030381529060405280519060200120181860001c90506116d961ffff82613a0f90919063ffffffff16565b601d6000848152602001908152602001600020819055506116fa8383613a59565b601a600088815260200190815260200160002060006101000a81549061ffff0219169055601b600088815260200190815260200160002060006101000a81549073ffffffffffffffffffffffffffffffffffffffff0219169055601c60008881526020019081526020016000206000905550505050505050565b61178f838383604051806020016040528060008152506122fe565b505050565b60135481565b60006117a4611402565b82106117fb576040517f08c379a000000000000000000000000000000000000000000000000000000000815260040180806020018281038252602c815260200180615e5a602c913960400191505060405180910390fd5b6007828154811061180857fe5b90600052602060002001549050919050565b601a6020528060005260406000206000915054906101000a900461ffff1681565b6000806001600084815260200190815260200160002060009054906101000a900473ffffffffffffffffffffffffffffffffffffffff169050600073ffffffffffffffffffffffffffffffffffffffff168173ffffffffffffffffffffffffffffffffffffffff1614156118fa576040517f08c379a0000000000000000000000000000000000000000000000000000000008152600401808060200182810382526029815260200180615d386029913960400191505060405180910390fd5b80915050919050565b6060600b8054600181600116156101000203166002900480601f01602080910402602001604051908101604052809291908181526020018280546001816001161561010002031660029004801561199b5780601f106119705761010080835404028352916020019161199b565b820191906000526020600020905b81548152906001019060200180831161197e57829003601f168201915b5050505050905090565b60008073ffffffffffffffffffffffffffffffffffffffff168273ffffffffffffffffffffffffffffffffffffffff161415611a2c576040517f08c379a000000000000000000000000000000000000000000000000000000000815260040180806020018281038252602a815260200180615d0e602a913960400191505060405180910390fd5b611a73600360008473ffffffffffffffffffffffffffffffffffffffff1673ffffffffffffffffffffffffffffffffffffffff168152602001908152602001600020613a77565b9050919050565b601460009054906101000a900473ffffffffffffffffffffffffffffffffffffffff1681565b60125481565b601d6020528060005260406000206000915090505481565b600080600080600080611acf6159e7565b611ad76159e7565b611adf6159e7565b611ae7615a0a565b6000601960008d8152602001908152602001600020905080600001549a508060010160000160009054906101000a900463ffffffff1699508060010160000160049054906101000a900460ff1698508060010160000160059054906101000a900462ffffff1697508060020160000160009054906101000a900460ff1696508060020160000160019054906101000a900462ffffff16955060008090505b6008811015611ccc57611b96615a2d565b8260030160008381526020019081526020016000206040518060800160405290816000820160009054906101000a900460ff1660ff1660ff1681526020016000820160019054906101000a900460ff1660ff1660ff1681526020016000820160029054906101000a900460ff1660ff1660ff1681526020016000820160039054906101000a900462ffffff1662ffffff1662ffffff168152505090508060000151878360088110611c4357fe5b602002019060ff16908160ff16815250508060200151868360088110611c6557fe5b602002019060ff16908160ff16815250508060400151858360088110611c8757fe5b602002019060ff16908160ff16815250508060600151848360088110611ca957fe5b602002019062ffffff16908162ffffff1681525050508080600101915050611b85565b50509193959799509193959799565b6060600a8054600181600116156101000203166002900480601f016020809104026020016040519081016040528092919081815260200182805460018160011615610100020316600290048015611d735780601f10611d4857610100808354040283529160200191611d73565b820191906000526020600020905b815481529060010190602001808311611d5657829003601f168201915b5050505050905090565b661c6bf5263400003414611d9057600080fd5b60086013541015611da057600080fd5b6012600081548092919060010191905055506000601960006012548152602001908152602001600020905060088160000181905550611de26012548301613a85565b8160010160008201518160000160006101000a81548163ffffffff021916908363ffffffff16021790555060208201518160000160046101000a81548160ff02191690831515021790555060408201518160000160056101000a81548162ffffff021916908362ffffff160217905550905050611e626012548301613b0a565b8160020160008201518160000160006101000a81548160ff02191690831515021790555060208201518160000160016101000a81548162ffffff021916908362ffffff16021790555090505060008090505b600a811015611f7957611ecc81601254850101613b6e565b82600301600083815260200190815260200160002060008201518160000160006101000a81548160ff021916908360ff16021790555060208201518160000160016101000a81548160ff021916908360ff16021790555060408201518160000160026101000a81548160ff021916908360ff16021790555060608201518160000160036101000a81548162ffffff021916908362ffffff1602179055509050508080600101915050611eb4565b50806019600060125481526020019081526020016000206000820154816000015560018201816001016000820160009054906101000a900463ffffffff168160000160006101000a81548163ffffffff021916908363ffffffff1602179055506000820160049054906101000a900460ff168160000160046101000a81548160ff0219169083151502179055506000820160059054906101000a900462ffffff168160000160056101000a81548162ffffff021916908362ffffff160217905550505060028201816002016000820160009054906101000a900460ff168160000160006101000a81548160ff0219169083151502179055506000820160019054906101000a900462ffffff168160000160016101000a81548162ffffff021916908362ffffff16021790555050509050506120c06008601354613c0690919063ffffffff16565b6013819055506120d233601254613c50565b612142661c6bf52634000061211e601460009054906101000a900473ffffffffffffffffffffffffffffffffffffffff1673ffffffffffffffffffffffffffffffffffffffff16613c71565b73ffffffffffffffffffffffffffffffffffffffff16613c7b90919063ffffffff16565b5050565b61214e6135cf565b73ffffffffffffffffffffffffffffffffffffffff168273ffffffffffffffffffffffffffffffffffffffff1614156121ef576040517f08c379a00000000000000000000000000000000000000000000000000000000081526004018080602001828103825260198152602001807f4552433732313a20617070726f766520746f2063616c6c65720000000000000081525060200191505060405180910390fd5b80600460006121fc6135cf565b73ffffffffffffffffffffffffffffffffffffffff1673ffffffffffffffffffffffffffffffffffffffff16815260200190815260200160002060008473ffffffffffffffffffffffffffffffffffffffff1673ffffffffffffffffffffffffffffffffffffffff16815260200190815260200160002060006101000a81548160ff0219169083151502179055508173ffffffffffffffffffffffffffffffffffffffff166122a96135cf565b73ffffffffffffffffffffffffffffffffffffffff167f17307eab39ab6107e8899845ad3d59bd9653f200f220920489ca2b5937696c3183604051808215151515815260200191505060405180910390a35050565b61230f6123096135cf565b836135d7565b612364576040517f08c379a0000000000000000000000000000000000000000000000000000000008152600401808060200182810382526031815260200180615e296031913960400191505060405180910390fd5b61237084848484613db5565b50505050565b60606123818261355d565b6123d6576040517f08c379a000000000000000000000000000000000000000000000000000000000815260040180806020018281038252602f815260200180615db6602f913960400191505060405180910390fd5b6060600c60008481526020019081526020016000208054600181600116156101000203166002900480601f01602080910402602001604051908101604052809291908181526020018280546001816001161561010002031660029004801561247f5780601f106124545761010080835404028352916020019161247f565b820191906000526020600020905b81548152906001019060200180831161246257829003601f168201915b505050505090506000815114156124a85760405180602001604052806000815250915050612573565b600b8160405160200180838054600181600116156101000203166002900480156125095780601f106124e7576101008083540402835291820191612509565b820191906000526020600020905b8154815290600101906020018083116124f5575b505082805190602001908083835b6020831061253a5780518252602082019150602081019050602083039250612517565b6001836020036101000a038019825116818451168082178552505050505050905001925050506040516020818303038152906040529150505b919050565b66071afd498d0000341461258b57600080fd5b60006013541161259a57600080fd5b3373ffffffffffffffffffffffffffffffffffffffff166125ba8361183b565b73ffffffffffffffffffffffffffffffffffffffff16146125da57600080fd5b3373ffffffffffffffffffffffffffffffffffffffff166125fa8261183b565b73ffffffffffffffffffffffffffffffffffffffff161461261a57600080fd5b601260008154809291906001019190505550600060196000848152602001908152602001600020905060006019600084815260200190815260200160002090506000601960006012548152602001908152602001600020905061268e82600001548460000154613e2790919063ffffffff16565b816000018190555060006126a86104d28360000154613eaf565b90508082600001546013540103601381905550808260000181905550600082600001546064866000015402816126da57fe5b0490506126e5615a63565b6126ef607b614008565b905060008090505b600881101561290357828282600c811061270d57fe5b602002015160ff161061280a578560030160008281526020019081526020016000208560030160008381526020019081526020016000206000820160009054906101000a900460ff168160000160006101000a81548160ff021916908360ff1602179055506000820160019054906101000a900460ff168160000160016101000a81548160ff021916908360ff1602179055506000820160029054906101000a900460ff168160000160026101000a81548160ff021916908360ff1602179055506000820160039054906101000a900462ffffff168160000160036101000a81548162ffffff021916908362ffffff1602179055509050506128f6565b8660030160008281526020019081526020016000208560030160008381526020019081526020016000206000820160009054906101000a900460ff168160000160006101000a81548160ff021916908360ff1602179055506000820160019054906101000a900460ff168160000160016101000a81548160ff021916908360ff1602179055506000820160029054906101000a900460ff168160000160026101000a81548160ff021916908360ff1602179055506000820160039054906101000a900462ffffff168160000160036101000a81548162ffffff021916908362ffffff1602179055509050505b80806001019150506126f7565b5081816008600c811061291257fe5b602002015160ff1610612961578460010160000160009054906101000a900463ffffffff168460010160000160006101000a81548163ffffffff021916908363ffffffff16021790555061299f565b8560010160000160009054906101000a900463ffffffff168460010160000160006101000a81548163ffffffff021916908363ffffffff1602179055505b81816009600c81106129ad57fe5b602002015160ff16106129f2578460010160000160049054906101000a900460ff168460010160000160046101000a81548160ff021916908315150217905550612a26565b8560010160000160049054906101000a900460ff168460010160000160046101000a81548160ff0219169083151502179055505b8181600a600c8110612a3457fe5b602002015160ff1610612a80578460010160000160059054906101000a900462ffffff168460010160000160056101000a81548162ffffff021916908362ffffff160217905550612abb565b8560010160000160059054906101000a900462ffffff168460010160000160056101000a81548162ffffff021916908362ffffff1602179055505b8181600b600c8110612ac957fe5b602002015160ff1610612b475784600201846002016000820160009054906101000a900460ff168160000160006101000a81548160ff0219169083151502179055506000820160019054906101000a900462ffffff168160000160016101000a81548162ffffff021916908362ffffff160217905550905050612bb4565b85600201846002016000820160009054906101000a900460ff168160000160006101000a81548160ff0219169083151502179055506000820160019054906101000a900462ffffff168160000160016101000a81548162ffffff021916908362ffffff1602179055509050505b612bc033601254613c50565b612bc98861406c565b612bd28761406c565b612c4266071afd498d0000612c1e601460009054906101000a900473ffffffffffffffffffffffffffffffffffffffff1673ffffffffffffffffffffffffffffffffffffffff16613c71565b73ffffffffffffffffffffffffffffffffffffffff16613c7b90919063ffffffff16565b5050505050505050565b66071afd498d00003414612c5f57600080fd5b600060135411612c6e57600080fd5b3373ffffffffffffffffffffffffffffffffffffffff16612c8e8261183b565b73ffffffffffffffffffffffffffffffffffffffff1614612cae57600080fd5b60126000815480929190600101919050555060006019600083815260200190815260200160002090506000612ce3607b614081565b905060006019600060125481526020019081526020016000209050606483600001548360ff160281612d1157fe5b04816000018190555082600101816001016000820160009054906101000a900463ffffffff168160000160006101000a81548163ffffffff021916908363ffffffff1602179055506000820160049054906101000a900460ff168160000160046101000a81548160ff0219169083151502179055506000820160059054906101000a900462ffffff168160000160056101000a81548162ffffff021916908362ffffff16021790555090505082600201816002016000820160009054906101000a900460ff168160000160006101000a81548160ff0219169083151502179055506000820160019054906101000a900462ffffff168160000160016101000a81548162ffffff021916908362ffffff16021790555090505060008090505b6008811015612f30578360030160008281526020019081526020016000208260030160008381526020019081526020016000206000820160009054906101000a900460ff168160000160006101000a81548160ff021916908360ff1602179055506000820160019054906101000a900460ff168160000160016101000a81548160ff021916908360ff1602179055506000820160029054906101000a900460ff168160000160026101000a81548160ff021916908360ff1602179055506000820160039054906101000a900462ffffff168160000160036101000a81548162ffffff021916908362ffffff1602179055509050508080600101915050612e2f565b50806019600060125481526020019081526020016000206000820154816000015560018201816001016000820160009054906101000a900463ffffffff168160000160006101000a81548163ffffffff021916908363ffffffff1602179055506000820160049054906101000a900460ff168160000160046101000a81548160ff0219169083151502179055506000820160059054906101000a900462ffffff168160000160056101000a81548162ffffff021916908362ffffff160217905550505060028201816002016000820160009054906101000a900460ff168160000160006101000a81548160ff0219169083151502179055506000820160019054906101000a900462ffffff168160000160016101000a81548162ffffff021916908362ffffff160217905550505090505061306d33601254613c50565b601260008154809291906001019190505550600060196000601254815260200190815260200160002090508160000154846000015403816000018190555083600101816001016000820160009054906101000a900463ffffffff168160000160006101000a81548163ffffffff021916908363ffffffff1602179055506000820160049054906101000a900460ff168160000160046101000a81548160ff0219169083151502179055506000820160059054906101000a900462ffffff168160000160056101000a81548162ffffff021916908362ffffff16021790555090505083600201816002016000820160009054906101000a900460ff168160000160006101000a81548160ff0219169083151502179055506000820160019054906101000a900462ffffff168160000160016101000a81548162ffffff021916908362ffffff16021790555090505060008090505b60088110156132c1578460030160008281526020019081526020016000208260030160008381526020019081526020016000206000820160009054906101000a900460ff168160000160006101000a81548160ff021916908360ff1602179055506000820160019054906101000a900460ff168160000160016101000a81548160ff021916908360ff1602179055506000820160029054906101000a900460ff168160000160026101000a81548160ff021916908360ff1602179055506000820160039054906101000a900462ffffff168160000160036101000a81548162ffffff021916908362ffffff16021790555090505080806001019150506131c0565b50806019600060125481526020019081526020016000206000820154816000015560018201816001016000820160009054906101000a900463ffffffff168160000160006101000a81548163ffffffff021916908363ffffffff1602179055506000820160049054906101000a900460ff168160000160046101000a81548160ff0219169083151502179055506000820160059054906101000a900462ffffff168160000160056101000a81548162ffffff021916908362ffffff160217905550505060028201816002016000820160009054906101000a900460ff168160000160006101000a81548160ff0219169083151502179055506000820160019054906101000a900462ffffff168160000160016101000a81548162ffffff021916908362ffffff16021790555050509050506133fe33601254613c50565b6134078561406c565b61347766071afd498d0000613453601460009054906101000a900473ffffffffffffffffffffffffffffffffffffffff1673ffffffffffffffffffffffffffffffffffffffff16613c71565b73ffffffffffffffffffffffffffffffffffffffff16613c7b90919063ffffffff16565b5050505050565b6000600460008473ffffffffffffffffffffffffffffffffffffffff1673ffffffffffffffffffffffffffffffffffffffff16815260200190815260200160002060008373ffffffffffffffffffffffffffffffffffffffff1673ffffffffffffffffffffffffffffffffffffffff16815260200190815260200160002060009054906101000a900460ff16905092915050565b601b6020528060005260406000206000915054906101000a900473ffffffffffffffffffffffffffffffffffffffff1681565b601c6020528060005260406000206000915090505481565b6000806001600084815260200190815260200160002060009054906101000a900473ffffffffffffffffffffffffffffffffffffffff169050600073ffffffffffffffffffffffffffffffffffffffff168173ffffffffffffffffffffffffffffffffffffffff161415915050919050565b600033905090565b60006135e28261355d565b613637576040517f08c379a000000000000000000000000000000000000000000000000000000000815260040180806020018281038252602c815260200180615caa602c913960400191505060405180910390fd5b60006136428361183b565b90508073ffffffffffffffffffffffffffffffffffffffff168473ffffffffffffffffffffffffffffffffffffffff1614806136b157508373ffffffffffffffffffffffffffffffffffffffff1661369984611180565b73ffffffffffffffffffffffffffffffffffffffff16145b806136c257506136c1818561347e565b5b91505092915050565b6136d68383836140a7565b6136e08382614302565b6136ea82826144a0565b505050565b60008073ffffffffffffffffffffffffffffffffffffffff16600e60009054906101000a900473ffffffffffffffffffffffffffffffffffffffff1673ffffffffffffffffffffffffffffffffffffffff16148061377757506000613775600e60009054906101000a900473ffffffffffffffffffffffffffffffffffffffff16614567565b145b15613788576137866000614572565b505b600e60009054906101000a900473ffffffffffffffffffffffffffffffffffffffff1673ffffffffffffffffffffffffffffffffffffffff166338cc48316040518163ffffffff1660e01b8152600401602060405180830381600087803b1580156137f257600080fd5b505af1158015613806573d6000803e3d6000fd5b505050506040513d602081101561381c57600080fd5b810190808051906020019092919050505073ffffffffffffffffffffffffffffffffffffffff16600d60009054906101000a900473ffffffffffffffffffffffffffffffffffffffff1673ffffffffffffffffffffffffffffffffffffffff161461396757600e60009054906101000a900473ffffffffffffffffffffffffffffffffffffffff1673ffffffffffffffffffffffffffffffffffffffff166338cc48316040518163ffffffff1660e01b8152600401602060405180830381600087803b1580156138eb57600080fd5b505af11580156138ff573d6000803e3d6000fd5b505050506040513d602081101561391557600080fd5b8101908080519060200190929190505050600d60006101000a81548173ffffffffffffffffffffffffffffffffffffffff021916908373ffffffffffffffffffffffffffffffffffffffff1602179055505b600d60009054906101000a900473ffffffffffffffffffffffffffffffffffffffff1673ffffffffffffffffffffffffffffffffffffffff1663c281d19e6040518163ffffffff1660e01b815260040160206040518083038186803b1580156139cf57600080fd5b505afa1580156139e3573d6000803e3d6000fd5b505050506040513d60208110156139f957600080fd5b8101908080519060200190929190505050905090565b6000613a5183836040518060400160405280601881526020017f536166654d6174683a206d6f64756c6f206279207a65726f0000000000000000815250614583565b905092915050565b613a73828260405180602001604052806000815250614644565b5050565b600081600001549050919050565b613a8d615a86565b6060613a9a6001846146b5565b90506000613aae8260006301ffffff6146cf565b905060006001613ac184600060016146cf565b1490506000613ad584600062ffffff6146cf565b905060405180606001604052808463ffffffff16815260200183151581526020018262ffffff16815250945050505050919050565b613b12615ab4565b6060613b1f6002846146b5565b905060006001613b3283600060016146cf565b1490506000613b4683600062ffffff6146cf565b9050604051806040016040528083151581526020018262ffffff168152509350505050919050565b613b76615a2d565b6060613b836003846146b5565b90506000613b9482600060076146cf565b90506000613ba583600060076146cf565b90506000613bb6846000600f6146cf565b90506000613bc985600062ffffff6146cf565b905060405180608001604052808560ff1681526020018460ff1681526020018360ff1681526020018262ffffff1681525095505050505050919050565b6000613c4883836040518060400160405280601e81526020017f536166654d6174683a207375627472616374696f6e206f766572666c6f770000815250614769565b905092915050565b613c5a8282614829565b613c6482826144a0565b613c6d81614a41565b5050565b6000819050919050565b80471015613cf1576040517f08c379a000000000000000000000000000000000000000000000000000000000815260040180806020018281038252601d8152602001807f416464726573733a20696e73756666696369656e742062616c616e636500000081525060200191505060405180910390fd5b60008273ffffffffffffffffffffffffffffffffffffffff168260405180600001905060006040518083038185875af1925050503d8060008114613d51576040519150601f19603f3d011682016040523d82523d6000602084013e613d56565b606091505b5050905080613db0576040517f08c379a000000000000000000000000000000000000000000000000000000000815260040180806020018281038252603a815260200180615c70603a913960400191505060405180910390fd5b505050565b613dc08484846136cb565b613dcc84848484614a8d565b613e21576040517f08c379a0000000000000000000000000000000000000000000000000000000008152600401808060200182810382526032815260200180615c1a6032913960400191505060405180910390fd5b50505050565b600080828401905083811015613ea5576040517f08c379a000000000000000000000000000000000000000000000000000000000815260040180806020018281038252601b8152602001807f536166654d6174683a206164646974696f6e206f766572666c6f77000000000081525060200191505060405180910390fd5b8091505092915050565b60006060613ebe6006856146b5565b90506000613ecf82600160646146cf565b905060008490506000600190505b6008821115613f005760028281613ef057fe5b0491508080600101915050613edd565b60018360ff1611613f205760646001870281613f1857fe5b049450613ffe565b60038360ff1611613f405760646046870281613f3857fe5b049450613ffd565b600a8360ff1611613f60576064605a870281613f5857fe5b049450613ffc565b60238360ff1611613f80576064605f870281613f7857fe5b049450613ffb565b60418360ff1611613f9357859450613ffa565b605a8360ff1611613fba576103e860135481613fab57fe5b048160ff160286019450613ff9565b60618360ff1611613fe15761014d60135481613fd257fe5b048160ff160286019450613ff8565b606460135481613fed57fe5b048160ff1602860194505b5b5b5b5b5b5b5050505092915050565b614010615a63565b606061401d6005846146b5565b905060008090505b600c8110156140655761403b82600160646146cf565b8382600c811061404757fe5b602002019060ff16908160ff16815250508080600101915050614025565b5050919050565b61407e6140788261183b565b82614dc9565b50565b600060606140906006846146b5565b905061409f81601e60466146cf565b915050919050565b8273ffffffffffffffffffffffffffffffffffffffff166140c78261183b565b73ffffffffffffffffffffffffffffffffffffffff1614614133576040517f08c379a0000000000000000000000000000000000000000000000000000000008152600401808060200182810382526029815260200180615d8d6029913960400191505060405180910390fd5b600073ffffffffffffffffffffffffffffffffffffffff168273ffffffffffffffffffffffffffffffffffffffff1614156141b9576040517f08c379a0000000000000000000000000000000000000000000000000000000008152600401808060200182810382526024815260200180615c4c6024913960400191505060405180910390fd5b6141c281614e26565b614209600360008573ffffffffffffffffffffffffffffffffffffffff1673ffffffffffffffffffffffffffffffffffffffff168152602001908152602001600020614ee4565b614250600360008473ffffffffffffffffffffffffffffffffffffffff1673ffffffffffffffffffffffffffffffffffffffff168152602001908152602001600020614f07565b816001600083815260200190815260200160002060006101000a81548173ffffffffffffffffffffffffffffffffffffffff021916908373ffffffffffffffffffffffffffffffffffffffff160217905550808273ffffffffffffffffffffffffffffffffffffffff168473ffffffffffffffffffffffffffffffffffffffff167fddf252ad1be2c89b69c2b068fc378daa952ba7f163c4a11628f55a4df523b3ef60405160405180910390a4505050565b600061435a6001600560008673ffffffffffffffffffffffffffffffffffffffff1673ffffffffffffffffffffffffffffffffffffffff16815260200190815260200160002080549050613c0690919063ffffffff16565b9050600060066000848152602001908152602001600020549050818114614447576000600560008673ffffffffffffffffffffffffffffffffffffffff1673ffffffffffffffffffffffffffffffffffffffff16815260200190815260200160002083815481106143c757fe5b9060005260206000200154905080600560008773ffffffffffffffffffffffffffffffffffffffff1673ffffffffffffffffffffffffffffffffffffffff168152602001908152602001600020838154811061441f57fe5b9060005260206000200181905550816006600083815260200190815260200160002081905550505b600560008573ffffffffffffffffffffffffffffffffffffffff1673ffffffffffffffffffffffffffffffffffffffff1681526020019081526020016000208054809190600190036144999190615ad5565b5050505050565b600560008373ffffffffffffffffffffffffffffffffffffffff1673ffffffffffffffffffffffffffffffffffffffff168152602001908152602001600020805490506006600083815260200190815260200160002081905550600560008373ffffffffffffffffffffffffffffffffffffffff1673ffffffffffffffffffffffffffffffffffffffff1681526020019081526020016000208190806001815401808255809150509060018203906000526020600020016000909192909190915055505050565b6000813b9050919050565b600061457c614f1d565b9050919050565b6000808314158290614630576040517f08c379a00000000000000000000000000000000000000000000000000000000081526004018080602001828103825283818151815260200191508051906020019080838360005b838110156145f55780820151818401526020810190506145da565b50505050905090810190601f1680156146225780820380516001836020036101000a031916815260200191505b509250505060405180910390fd5b5082848161463a57fe5b0690509392505050565b61464e8383613c50565b61465b6000848484614a8d565b6146b0576040517f08c379a0000000000000000000000000000000000000000000000000000000008152600401808060200182810382526032815260200180615c1a6032913960400191505060405180910390fd5b505050565b60606146c78343036001430384615474565b905092915050565b600081831315614747576040517f08c379a00000000000000000000000000000000000000000000000000000000081526004018080602001828103825260208152602001807f52616e646f6d2e756e69666f726d3a20696e76616c696420696e74657276616c81525060200191505060405180910390fd5b82600184840301614757866155c0565b8161475e57fe5b060190509392505050565b6000838311158290614816576040517f08c379a00000000000000000000000000000000000000000000000000000000081526004018080602001828103825283818151815260200191508051906020019080838360005b838110156147db5780820151818401526020810190506147c0565b50505050905090810190601f1680156148085780820380516001836020036101000a031916815260200191505b509250505060405180910390fd5b5060008385039050809150509392505050565b600073ffffffffffffffffffffffffffffffffffffffff168273ffffffffffffffffffffffffffffffffffffffff1614156148cc576040517f08c379a00000000000000000000000000000000000000000000000000000000081526004018080602001828103825260208152602001807f4552433732313a206d696e7420746f20746865207a65726f206164647265737381525060200191505060405180910390fd5b6148d58161355d565b15614948576040517f08c379a000000000000000000000000000000000000000000000000000000000815260040180806020018281038252601c8152602001807f4552433732313a20746f6b656e20616c7265616479206d696e7465640000000081525060200191505060405180910390fd5b816001600083815260200190815260200160002060006101000a81548173ffffffffffffffffffffffffffffffffffffffff021916908373ffffffffffffffffffffffffffffffffffffffff1602179055506149e1600360008473ffffffffffffffffffffffffffffffffffffffff1673ffffffffffffffffffffffffffffffffffffffff168152602001908152602001600020614f07565b808273ffffffffffffffffffffffffffffffffffffffff16600073ffffffffffffffffffffffffffffffffffffffff167fddf252ad1be2c89b69c2b068fc378daa952ba7f163c4a11628f55a4df523b3ef60405160405180910390a45050565b6007805490506008600083815260200190815260200160002081905550600781908060018154018082558091505090600182039060005260206000200160009091929091909150555050565b6000614aae8473ffffffffffffffffffffffffffffffffffffffff166156ff565b614abb5760019050614dc1565b600060608573ffffffffffffffffffffffffffffffffffffffff168673ffffffffffffffffffffffffffffffffffffffff1663150b7a02905060e01b614aff6135cf565b898888604051602401808573ffffffffffffffffffffffffffffffffffffffff1673ffffffffffffffffffffffffffffffffffffffff1681526020018473ffffffffffffffffffffffffffffffffffffffff1673ffffffffffffffffffffffffffffffffffffffff16815260200183815260200180602001828103825283818151815260200191508051906020019080838360005b83811015614baf578082015181840152602081019050614b94565b50505050905090810190601f168015614bdc5780820380516001836020036101000a031916815260200191505b5095505050505050604051602081830303815290604052907bffffffffffffffffffffffffffffffffffffffffffffffffffffffff19166020820180517bffffffffffffffffffffffffffffffffffffffffffffffffffffffff83818316178352505050506040518082805190602001908083835b60208310614c745780518252602082019150602081019050602083039250614c51565b6001836020036101000a0380198251168184511680821785525050505050509050019150506000604051808303816000865af19150503d8060008114614cd6576040519150601f19603f3d011682016040523d82523d6000602084013e614cdb565b606091505b509150915081614d4957600081511115614cf85780518082602001fd5b6040517f08c379a0000000000000000000000000000000000000000000000000000000008152600401808060200182810382526032815260200180615c1a6032913960400191505060405180910390fd5b6000818060200190516020811015614d6057600080fd5b8101908080519060200190929190505050905063150b7a0260e01b7bffffffffffffffffffffffffffffffffffffffffffffffffffffffff1916817bffffffffffffffffffffffffffffffffffffffffffffffffffffffff19161493505050505b949350505050565b614dd3828261574a565b6000600c600083815260200190815260200160002080546001816001161561010002031660029004905014614e2257600c60008281526020019081526020016000206000614e219190615b01565b5b5050565b600073ffffffffffffffffffffffffffffffffffffffff166002600083815260200190815260200160002060009054906101000a900473ffffffffffffffffffffffffffffffffffffffff1673ffffffffffffffffffffffffffffffffffffffff1614614ee15760006002600083815260200190815260200160002060006101000a81548173ffffffffffffffffffffffffffffffffffffffff021916908373ffffffffffffffffffffffffffffffffffffffff1602179055505b50565b614efc60018260000154613c0690919063ffffffff16565b816000018190555050565b6001816000016000828254019250508190555050565b600080614f3d731d3b2638a7cc9f2cb3d298a3da7a90b67e5506ed614567565b1115614fdf57731d3b2638a7cc9f2cb3d298a3da7a90b67e5506ed600e60006101000a81548173ffffffffffffffffffffffffffffffffffffffff021916908373ffffffffffffffffffffffffffffffffffffffff160217905550614fd66040518060400160405280600b81526020017f6574685f6d61696e6e6574000000000000000000000000000000000000000000815250615784565b60019050615471565b6000614ffe73c03a2615d5efaf5f49f60b7bb6583eaec212fdf1614567565b11156150a05773c03a2615d5efaf5f49f60b7bb6583eaec212fdf1600e60006101000a81548173ffffffffffffffffffffffffffffffffffffffff021916908373ffffffffffffffffffffffffffffffffffffffff1602179055506150976040518060400160405280600c81526020017f6574685f726f707374656e330000000000000000000000000000000000000000815250615784565b60019050615471565b60006150bf73b7a07bcf2ba2f2703b24c0691b5278999c59ac7e614567565b11156151615773b7a07bcf2ba2f2703b24c0691b5278999c59ac7e600e60006101000a81548173ffffffffffffffffffffffffffffffffffffffff021916908373ffffffffffffffffffffffffffffffffffffffff1602179055506151586040518060400160405280600981526020017f6574685f6b6f76616e0000000000000000000000000000000000000000000000815250615784565b60019050615471565b600061518073146500cfd35b22e4a392fe0adc06de1a1368ed48614567565b11156152225773146500cfd35b22e4a392fe0adc06de1a1368ed48600e60006101000a81548173ffffffffffffffffffffffffffffffffffffffff021916908373ffffffffffffffffffffffffffffffffffffffff1602179055506152196040518060400160405280600b81526020017f6574685f72696e6b656279000000000000000000000000000000000000000000815250615784565b60019050615471565b600061524173a2998efd205fb9d4b4963afb70778d6354ad3a41614567565b11156152e35773a2998efd205fb9d4b4963afb70778d6354ad3a41600e60006101000a81548173ffffffffffffffffffffffffffffffffffffffff021916908373ffffffffffffffffffffffffffffffffffffffff1602179055506152da6040518060400160405280600a81526020017f6574685f676f65726c6900000000000000000000000000000000000000000000815250615784565b60019050615471565b6000615302736f485c8bf6fc43ea212e93bbf8ce046c7f1cb475614567565b111561536657736f485c8bf6fc43ea212e93bbf8ce046c7f1cb475600e60006101000a81548173ffffffffffffffffffffffffffffffffffffffff021916908373ffffffffffffffffffffffffffffffffffffffff16021790555060019050615471565b60006153857320e12a1f859b3feae5fb2a0a32c18f5a65555bbf614567565b11156153e9577320e12a1f859b3feae5fb2a0a32c18f5a65555bbf600e60006101000a81548173ffffffffffffffffffffffffffffffffffffffff021916908373ffffffffffffffffffffffffffffffffffffffff16021790555060019050615471565b60006154087351efaf4c8b3c9afbd5ab9f4bbc82784ab6ef8faa614567565b111561546c577351efaf4c8b3c9afbd5ab9f4bbc82784ab6ef8faa600e60006101000a81548173ffffffffffffffffffffffffffffffffffffffff021916908373ffffffffffffffffffffffffffffffffffffffff16021790555060019050615471565b600090505b90565b60608260014303101580156154895750838310155b6154de576040517f08c379a0000000000000000000000000000000000000000000000000000000008152600401808060200182810382526023815260200180615e066023913960400191505060405180910390fd5b60606002858503016040519080825280602002602001820160405280156155145781602001602082028038833980820191505090505b50905060004384604051602001808381526020018281526020019250505060405160208183030381529060405280519060200120905060008090505b86860381116155b357808701408260405160200180838152602001828152602001925050506040516020818303038152906040528051906020012083600183018151811061559a57fe5b6020026020010181815250508080600101915050615550565b5081925050509392505050565b60006001825111615639576040517f08c379a00000000000000000000000000000000000000000000000000000000081526004018080602001828103825260198152602001807f52616e646f6d2e6e6578743a20696e76616c696420706f6f6c0000000000000081525060200191505060405180910390fd5b60006001808451038460008151811061564e57fe5b602002602001015160001c8161566057fe5b06019050600083828151811061567257fe5b6020026020010151604051602001808281526020019150506040516020818303038152906040528051906020012090506001846000815181106156b157fe5b602002602001015160001c0160001b846000815181106156cd57fe5b602002602001018181525050808483815181106156e657fe5b6020026020010181815250508060001c92505050919050565b60008060007fc5d2460186f7233c927e7db2dcc703c0e500b653ca82273b7bfad8045d85a47060001b9050833f915080821415801561574157506000801b8214155b92505050919050565b615754828261579e565b61575e8282614302565b600060066000838152602001908152602001600020819055506157808161592d565b5050565b80600f908051906020019061579a929190615b49565b5050565b8173ffffffffffffffffffffffffffffffffffffffff166157be8261183b565b73ffffffffffffffffffffffffffffffffffffffff161461582a576040517f08c379a0000000000000000000000000000000000000000000000000000000008152600401808060200182810382526025815260200180615e866025913960400191505060405180910390fd5b61583381614e26565b61587a600360008473ffffffffffffffffffffffffffffffffffffffff1673ffffffffffffffffffffffffffffffffffffffff168152602001908152602001600020614ee4565b60006001600083815260200190815260200160002060006101000a81548173ffffffffffffffffffffffffffffffffffffffff021916908373ffffffffffffffffffffffffffffffffffffffff16021790555080600073ffffffffffffffffffffffffffffffffffffffff168373ffffffffffffffffffffffffffffffffffffffff167fddf252ad1be2c89b69c2b068fc378daa952ba7f163c4a11628f55a4df523b3ef60405160405180910390a45050565b60006159486001600780549050613c0690919063ffffffff16565b905060006008600084815260200190815260200160002054905060006007838154811061597157fe5b90600052602060002001549050806007838154811061598c57fe5b906000526020600020018190555081600860008381526020019081526020016000208190555060078054809190600190036159c79190615ad5565b506000600860008681526020019081526020016000208190555050505050565b604051806101000160405280600890602082028038833980820191505090505090565b604051806101000160405280600890602082028038833980820191505090505090565b6040518060800160405280600060ff168152602001600060ff168152602001600060ff168152602001600062ffffff1681525090565b604051806101800160405280600c90602082028038833980820191505090505090565b6040518060600160405280600063ffffffff168152602001600015158152602001600062ffffff1681525090565b6040518060400160405280600015158152602001600062ffffff1681525090565b815481835581811115615afc57818360005260206000209182019101615afb9190615bc9565b5b505050565b50805460018160011615610100020316600290046000825580601f10615b275750615b46565b601f016020900490600052602060002090810190615b459190615bc9565b5b50565b828054600181600116156101000203166002900490600052602060002090601f016020900481019282601f10615b8a57805160ff1916838001178555615bb8565b82800160010185558215615bb8579182015b82811115615bb7578251825591602001919060010190615b9c565b5b509050615bc59190615bc9565b5090565b615beb91905b80821115615be7576000816000905550600101615bcf565b5090565b9056fe455243373231456e756d657261626c653a206f776e657220696e646578206f7574206f6620626f756e64734552433732313a207472616e7366657220746f206e6f6e20455243373231526563656976657220696d706c656d656e7465724552433732313a207472616e7366657220746f20746865207a65726f2061646472657373416464726573733a20756e61626c6520746f2073656e642076616c75652c20726563697069656e74206d617920686176652072657665727465644552433732313a206f70657261746f7220717565727920666f72206e6f6e6578697374656e7420746f6b656e4552433732313a20617070726f76652063616c6c6572206973206e6f74206f776e6572206e6f7220617070726f76656420666f7220616c6c4552433732313a2062616c616e636520717565727920666f7220746865207a65726f20616464726573734552433732313a206f776e657220717565727920666f72206e6f6e6578697374656e7420746f6b656e4552433732313a20617070726f76656420717565727920666f72206e6f6e6578697374656e7420746f6b656e4552433732313a207472616e73666572206f6620746f6b656e2074686174206973206e6f74206f776e4552433732314d657461646174613a2055524920717565727920666f72206e6f6e6578697374656e7420746f6b656e4552433732313a20617070726f76616c20746f2063757272656e74206f776e657252616e646f6d2e696e69743a20696e76616c696420626c6f636b20696e74657276616c4552433732313a207472616e736665722063616c6c6572206973206e6f74206f776e6572206e6f7220617070726f766564455243373231456e756d657261626c653a20676c6f62616c20696e646578206f7574206f6620626f756e64734552433732313a206275726e206f6620746f6b656e2074686174206973206e6f74206f776ea265627a7a72315820bca6858dd1c316b5296927ea1172e4babf0459be661bcbe000443e1cc153fa7264736f6c63430005100032",
  "source": "pragma solidity ^0.5.0;\r\n\r\nimport \"@openzeppelin/contracts/token/ERC721/ERC721Full.sol\";\r\nimport \"@openzeppelin/contracts/math/SafeMath.sol\";\r\nimport \"./provableAPI_0.5.sol\";\r\n\r\ncontract OwnableDelegateProxy { }\r\n\r\ncontract ProxyRegistry {\r\n    mapping(address => OwnableDelegateProxy) public proxies;\r\n}\r\n\r\nlibrary Random\r\n{\r\n\t/**\r\n\t* Initialize the pool with the entropy of the blockhashes of the blocks in the closed interval [earliestBlock, latestBlock]\r\n\t* The argument \"seed\" is optional and can be left zero in most cases.\r\n\t* This extra seed allows you to select a different sequence of random numbers for the same block range.\r\n\t*/\r\n\tfunction init(uint256 earliestBlock, uint256 latestBlock, uint256 seed) internal view returns (bytes32[] memory) {\r\n\t\t//require(block.number-1 >= latestBlock && latestBlock >= earliestBlock && earliestBlock >= block.number-256, \"Random.init: invalid block interval\");\r\n\t\trequire(block.number-1 >= latestBlock && latestBlock >= earliestBlock, \"Random.init: invalid block interval\");\r\n\t\tbytes32[] memory pool = new bytes32[](latestBlock-earliestBlock+2);\r\n\t\tbytes32 salt = keccak256(abi.encodePacked(block.number,seed));\r\n\t\tfor(uint256 i=0; i<=latestBlock-earliestBlock; i++) {\r\n\t\t\t// Add some salt to each blockhash so that we don't reuse those hash chains\r\n\t\t\t// when this function gets called again in another block.\r\n\t\t\tpool[i+1] = keccak256(abi.encodePacked(blockhash(earliestBlock+i),salt));\r\n\t\t}\r\n\t\treturn pool;\r\n\t}\r\n\t\r\n\t/**\r\n\t* Initialize the pool from the latest \"num\" blocks.\r\n\t*/\r\n\tfunction initLatest(uint256 num, uint256 seed) internal view returns (bytes32[] memory) {\r\n\t\treturn init(block.number-num, block.number-1, seed);\r\n\t}\r\n\t\r\n\t/**\r\n\t* Advances to the next 256-bit random number in the pool of hash chains.\r\n\t*/\r\n\tfunction next(bytes32[] memory pool) internal pure returns (uint256) {\r\n\t\trequire(pool.length > 1, \"Random.next: invalid pool\");\r\n\t\tuint256 roundRobinIdx = uint256(pool[0]) % (pool.length-1) + 1;\r\n\t\tbytes32 hash = keccak256(abi.encodePacked(pool[roundRobinIdx]));\r\n\t\tpool[0] = bytes32(uint256(pool[0])+1);\r\n\t\tpool[roundRobinIdx] = hash;\r\n\t\treturn uint256(hash);\r\n\t}\r\n\t\r\n\t/**\r\n\t* Produces random integer values, uniformly distributed on the closed interval [a, b]\r\n\t*/\r\n\tfunction uniform(bytes32[] memory pool, int256 a, int256 b) internal pure returns (int256) {\r\n\t\trequire(a <= b, \"Random.uniform: invalid interval\");\r\n\t\treturn int256(next(pool)%uint256(b-a+1))+a;\r\n\t}\r\n}\r\n\r\n\r\n\r\n\r\ncontract Cell is ERC721Full, usingProvable {\r\n    using Address for address payable;\r\n    using SafeMath for uint256;\r\n\r\n    uint public maxTokenId;\r\n    uint public massPool;\r\n    address payable public owner = address(0xA096b47EbF7727d01Ff4F09c34Fc6591f2c375F0);\r\n    address proxyRegistryAddress;\r\n    uint constant private NUM_RANDOM_BYTES_REQUESTED = 2; //The variable `ceiling` should never be greater than: `(256 ^ NUM_RANDOM_BYTES_REQUESTED) - 1`.\r\n    uint private _currentTokenId;\r\n    uint private gasPrice = 4010000000; //many set exactly 4gwei, so adding 0.01 gwei increases speed much more than expected.\r\n    uint private gasAmount = 250000;\r\n    \r\n    struct Wall {\r\n        uint32 wave;\r\n        bool round;\r\n        uint24 color;\r\n    }\r\n\r\n    struct Nucleus {\r\n        bool hidden;\r\n        uint24 color;\r\n    }\r\n\r\n    struct Feature {\r\n        uint8 category;\r\n        uint8 family;\r\n        uint8 count;\r\n        uint24 color;\r\n    }\r\n\r\n    struct Metadata {\r\n        uint mass;\r\n        Wall wall;\r\n        Nucleus nucleus;\r\n        mapping(uint => Feature) features;\r\n    }\r\n\r\n    mapping(uint => Metadata) id_to_cell;\r\n    mapping(bytes32 => uint16) public provableQueryToSeed;\r\n    mapping(bytes32 => address) public provableQueryToAddress;\r\n    mapping(bytes32 => uint) public provableQueryToTokenId;\r\n    mapping(uint => uint) public nftSeed;\r\n    \r\n    event LogMintQuery(address minter, bytes32 queryId, uint seed, uint tokenId);\r\n\r\n    constructor() ERC721Full(\"Cell\", \"(Y)\") public {\r\n        massPool = 20000;\r\n        _mint(msg.sender, 1);\r\n        maxTokenId = 1;\r\n        provable_setProof(proofType_Ledger);\r\n        provable_setCustomGasPrice(gasPrice);\r\n    }\r\n\r\n    function __callback(bytes32 _queryId, string memory _result, bytes memory _proof) public {\r\n        require(msg.sender == provable_cbAddress());\r\n\r\n        uint16 seed = provableQueryToSeed[_queryId];\r\n        address minterAddr = provableQueryToAddress[_queryId];\r\n        uint tokenIdR = provableQueryToTokenId[_queryId];\r\n\r\n        uint rand = uint(\r\n                keccak256(abi.encodePacked(_result)) ^ blockhash(block.number-1) ^ bytes32(uint(seed))\r\n            );\r\n        nftSeed[tokenIdR] = rand.mod(65535);\r\n\r\n        _safeMint(minterAddr,tokenIdR);\r\n        \r\n        delete provableQueryToSeed[_queryId];\r\n        delete provableQueryToAddress[_queryId];\r\n        delete provableQueryToTokenId[_queryId];\r\n    }\r\n\r\n    function _parseRandom(uint random, uint min, uint max, uint offset) internal pure returns (uint) {\r\n        uint diff = max.sub(min);\r\n        uint value = random;\r\n        for (uint i = 0; i < offset; i++) {\r\n            value /= diff;\r\n        }\r\n        return value % diff + min;\r\n    }\r\n    \r\nfunction getWall(uint256 seed) internal view returns (Wall memory cellWall){\r\n\r\n        bytes32[] memory pool = Random.initLatest(1, seed);        \r\n        \r\n\tuint32\twallWaveRNG = uint32(Random.uniform(pool, 0, 33554431)); \r\n\tbool\twallRoundRNG = Random.uniform(pool, 0, 1) == 1;\r\n\tuint24\twallColorRNG = uint24(Random.uniform(pool, 0, 16777215)); \r\n    \r\n    return Wall(wallWaveRNG, wallRoundRNG, wallColorRNG);\r\n    }\r\n\r\nfunction getNucleus(uint256 seed) internal view returns (Nucleus memory cellNucleus){\r\n\r\n        bytes32[] memory pool = Random.initLatest(2, seed);        \r\n        \r\n\t\tbool nucleusHiddenRNG = Random.uniform(pool, 0, 1) == 1; \r\n\t\tuint24 nucleusColorRNG = uint24(Random.uniform(pool, 0, 16777215));\r\n\t\t\r\n\t\treturn Nucleus(nucleusHiddenRNG, nucleusColorRNG);\r\n\r\n    }\r\n\r\nfunction getFeatures(uint256 seed) internal view returns (Feature memory cellFeature){\r\n\r\n        bytes32[] memory pool = Random.initLatest(3, seed);        \r\n        \r\n\t\tuint8 featureCategoryRNG = uint8(Random.uniform(pool, 0, 7)); \r\n\t\tuint8 featureFamilyRNG = uint8(Random.uniform(pool, 0, 7)); \r\n\t\tuint8 featureCountRNG = uint8(Random.uniform(pool, 0, 15)); \r\n\t\tuint24 featureColorRNG = uint24(Random.uniform(pool, 0, 16777215)); \r\n\t\t\r\n\t\treturn Feature(featureCategoryRNG, featureFamilyRNG, featureCountRNG, featureColorRNG);\t\t\r\n    }\r\n\r\n    function getMassOffset(uint256 seed) internal view returns (int8 massOffsetRNG){\r\n\r\n        bytes32[] memory pool = Random.initLatest(4, seed);        \r\n        \r\n\t\tmassOffsetRNG = int8(Random.uniform(pool, -2, 2)); \r\n\r\n    } \r\n\r\nfunction getMerge(uint256 seed) internal view returns (uint8[12] memory combineCellsRNG){\r\n\r\n        bytes32[] memory pool = Random.initLatest(5, seed);        \r\n \t\t\r\n\t\tuint i;\r\n\t\t    \r\n\t\tfor(i=0; i<12; i++) {\r\n\t\t\tcombineCellsRNG[i] = uint8(Random.uniform(pool, 1, 100)); \r\n\t\t}       \r\n\r\n    } \r\n    \r\n    function getDivide(uint256 seed) internal view returns (uint8 divideCellsRNG){\r\n\r\n        bytes32[] memory pool = Random.initLatest(6, seed);        \r\n        \r\n\t\tdivideCellsRNG = uint8(Random.uniform(pool, 30, 70)); \r\n\r\n    } \r\n    \r\n    function getRektBoost(uint256 seed, uint mass) internal view returns (uint256 rektBoostMass){\r\n\r\n        bytes32[] memory pool = Random.initLatest(6, seed);        \r\n        \r\n\t\tuint8 rektBoostRNG = uint8(Random.uniform(pool, 1, 100)); \r\n\t    \r\n        uint x = mass;\r\n        uint8 level = 1;\r\n        while (x > 8) {\r\n         x /= 2;\r\n         level++;\r\n        }\r\n\r\n        if (rektBoostRNG <= 1) {\r\n        rektBoostMass = mass * 1 / 100;\t\r\n\t\t\r\n\t\t} else if (rektBoostRNG <= 3) {\r\n        rektBoostMass = mass * 70 / 100;\t\t\t    \t    \r\n\t    \r\n\t\t} else if (rektBoostRNG <= 10) {\r\n        rektBoostMass = mass * 90 / 100;\t\t    \r\n\t    \r\n\t\t} else if (rektBoostRNG <= 35) {\r\n        rektBoostMass = mass * 95 / 100;\t\t    \r\n\t    \r\n\t\t} else if (rektBoostRNG <= 65) {\r\n        rektBoostMass = mass;\t\t    \r\n\t    \r\n\t\t} else if (rektBoostRNG <= 90) {\r\n        rektBoostMass = mass + uint256(level*(massPool/1000));\t\t    \r\n\t    \r\n\t\t} else if (rektBoostRNG <= 97) {\r\n        rektBoostMass = mass + uint256(level*(massPool/333));\t\t    \r\n\t    \t    \r\n\t    } else {\r\n        rektBoostMass = mass + uint256(level*(massPool/100));\t\r\n        \r\n\t\t}\r\n\t\t\r\n        \r\n    }     \r\n\r\n\r\n    function mint(uint256 seed) public payable {\r\n        require(msg.value == 8 finney);\r\n        require(massPool >= 8);\r\n        maxTokenId++;\r\n        Metadata storage cell = id_to_cell[maxTokenId];\r\n        \r\n        cell.mass = 8;\r\n        cell.wall = getWall(seed + maxTokenId);\r\n        cell.nucleus = getNucleus(seed + maxTokenId);\r\n        \r\n        for (uint i = 0; i < 10; i++) {\r\n        cell.features[i] = getFeatures(seed + maxTokenId + i);\r\n        }\r\n        \r\n        id_to_cell[maxTokenId] = cell;\r\n        massPool = massPool.sub(8);\r\n        _mint(msg.sender, maxTokenId);\r\n        owner.toPayable().sendValue(8 finney);\r\n/*\r\n        bytes32 queryId = provable_newRandomDSQuery(\r\n            0, //Execution delay\r\n            NUM_RANDOM_BYTES_REQUESTED,\r\n            gasAmount\r\n        );\r\n        emit LogMintQuery(msg.sender, queryId, seed, _currentTokenId);\r\n        provableQueryToSeed[queryId] = seed;\r\n        provableQueryToAddress[queryId] = msg.sender;\r\n        provableQueryToTokenId[queryId] = maxTokenId;\r\n*/\r\n    }\r\n\r\n    function merge(uint id1, uint id2) public payable {\r\n        require(msg.value == 2 finney);\r\n        require(massPool > 0);\r\n        require(ownerOf(id1) == msg.sender);\r\n        require(ownerOf(id2) == msg.sender);\r\n        maxTokenId++;\r\n        \r\n        Metadata storage cellA = id_to_cell[id1];        \r\n        Metadata storage cellB = id_to_cell[id2];       \r\n        Metadata storage cell = id_to_cell[maxTokenId];\r\n        \r\n        cell.mass = cellA.mass.add(cellB.mass);\r\n        uint256 rektBoostMass = getRektBoost(1234, cell.mass);\r\n        massPool = massPool + cell.mass - rektBoostMass;\r\n        cell.mass = rektBoostMass;\r\n        uint256 mergeRatio = (cellA.mass*100/cell.mass);\r\n    \r\n        uint8[12] memory mergeSelectRNG = getMerge(123);\r\n        for (uint i = 0; i < 8; i++) {\r\n\t    if (mergeSelectRNG[i] >= mergeRatio) {\r\n        cell.features[i] = cellB.features[i];\t\r\n\t\t} else { \r\n        cell.features[i] = cellA.features[i];\t\t\t    \t    \r\n\t\t}    \r\n        }\r\n\r\n        if (mergeSelectRNG[8] >= mergeRatio) {\r\n        cell.wall.wave = cellB.wall.wave;\t\r\n\t\t} else { \r\n        cell.wall.wave = cellA.wall.wave;\t\t\t    \t    \r\n\t\t}\r\n\r\n        if (mergeSelectRNG[9] >= mergeRatio) {\r\n        cell.wall.round = cellB.wall.round;\t\r\n\t\t} else { \r\n        cell.wall.round = cellA.wall.round;\t\t\t    \t    \r\n\t\t}\r\n\r\n        if (mergeSelectRNG[10] >= mergeRatio) {\r\n        cell.wall.color = cellB.wall.color;\t\r\n\t\t} else { \r\n        cell.wall.color = cellA.wall.color;\t\t\t    \t    \r\n\t\t}\r\n\t\t\r\n\t    if (mergeSelectRNG[11] >= mergeRatio) {\r\n        cell.nucleus = cellB.nucleus;\t\r\n\t\t} else { \r\n        cell.nucleus = cellA.nucleus;\t\t\t    \t    \r\n\t\t}\r\n    \r\n        \r\n        _mint(msg.sender, maxTokenId);\r\n        _burn(id1);\r\n        _burn(id2);\r\n        owner.toPayable().sendValue(2 finney);\r\n    }\r\n\r\n    function split(uint id) public payable {\r\n        require(msg.value == 2 finney);\r\n        require(massPool > 0);\r\n        require(ownerOf(id) == msg.sender);\r\n        maxTokenId++;\r\n        \r\n        Metadata storage cell = id_to_cell[id];\r\n        \r\n        uint8 divideRatio = getDivide(123);\r\n        \r\n        Metadata storage cell1 = id_to_cell[maxTokenId];\r\n        cell1.mass = (divideRatio*cell.mass)/100;\r\n        cell1.wall = cell.wall;\r\n        cell1.nucleus = cell.nucleus;\r\n        for (uint i = 0; i < 8; i++) {\r\n        cell1.features[i] = cell.features[i];\r\n        }\r\n        id_to_cell[maxTokenId] = cell1;\r\n        _mint(msg.sender, maxTokenId);\r\n        maxTokenId++;\r\n        \r\n        Metadata storage cell2 = id_to_cell[maxTokenId];\r\n        cell2.mass = cell.mass - cell1.mass;\r\n        cell2.wall = cell.wall;\r\n        cell2.nucleus = cell.nucleus;\r\n        for (uint i = 0; i < 8; i++) {\r\n        cell2.features[i] = cell.features[i];\r\n        }\r\n        id_to_cell[maxTokenId] = cell2;\r\n        _mint(msg.sender, maxTokenId);\r\n        \r\n        _burn(id);\r\n        owner.toPayable().sendValue(2 finney);\r\n    }\r\n\r\n    function get(uint id) external view returns (uint mass,\r\n        uint32 wallWave, bool wallRound, uint24 wallColor,\r\n        bool nucleusHidden, uint24 nucleusColor,\r\n        uint8[8] memory featureCategories, uint8[8] memory featureFamilies,\r\n        uint8[8] memory featureCounts, uint24[8] memory featureColors\r\n    ) {\r\n        Metadata storage cell = id_to_cell[id];\r\n        mass = cell.mass;\r\n        wallWave = cell.wall.wave;\r\n        wallRound = cell.wall.round;\r\n        wallColor = cell.wall.color;\r\n        nucleusHidden = cell.nucleus.hidden;\r\n        nucleusColor = cell.nucleus.color;\r\n        for (uint i = 0; i < 8; i++) {\r\n            Feature memory feature = cell.features[i];\r\n            featureCategories[i] = feature.category;\r\n            featureFamilies[i] = feature.family;\r\n            featureCounts[i] = feature.count;\r\n            featureColors[i] = feature.color;\r\n        }\r\n    }\r\n}",
  "sourcePath": "C:/Users/alexh/Source/cell/contracts/Cell.sol",
  "compiler": {
    "name": "solc",
    "version": "0.5.16+commit.9c3226ce.Emscripten.clang"
  },
  "schemaVersion": "3.0.21",
  "updatedAt": "2020-02-16T19:11:51.395Z",
  "devdoc": {
    "methods": {
      "__callback(bytes32,string)": {
        "details": "The following `__callback` functions are just placeholders ideally     meant to be defined in child contract when proofs are used.     The function bodies simply silence compiler warnings."
      },
      "approve(address,uint256)": {
        "details": "Approves another address to transfer the given token ID The zero address indicates there is no approved address. There can only be one approved address per token at a given time. Can only be called by the token owner or an approved operator.",
        "params": {
          "to": "address to be approved for the given token ID",
          "tokenId": "uint256 ID of the token to be approved"
        }
      },
      "balanceOf(address)": {
        "details": "Gets the balance of the specified address.",
        "params": {
          "owner": "address to query the balance of"
        },
        "return": "uint256 representing the amount owned by the passed address"
      },
      "baseURI()": {
        "details": "Returns the base URI set via {_setBaseURI}. This will be automatically added as a preffix in {tokenURI} to each token's URI, when they are non-empty.    * _Available since v2.5.0._"
      },
      "getApproved(uint256)": {
        "details": "Gets the approved address for a token ID, or zero if no address set Reverts if the token ID does not exist.",
        "params": {
          "tokenId": "uint256 ID of the token to query the approval of"
        },
        "return": "address currently approved for the given token ID"
      },
      "isApprovedForAll(address,address)": {
        "details": "Tells whether an operator is approved by a given owner.",
        "params": {
          "operator": "operator address which you want to query the approval of",
          "owner": "owner address which you want to query the approval of"
        },
        "return": "bool whether the given operator is approved by the given owner"
      },
      "name()": {
        "details": "Gets the token name.",
        "return": "string representing the token name"
      },
      "ownerOf(uint256)": {
        "details": "Gets the owner of the specified token ID.",
        "params": {
          "tokenId": "uint256 ID of the token to query the owner of"
        },
        "return": "address currently marked as the owner of the given token ID"
      },
      "safeTransferFrom(address,address,uint256)": {
        "details": "Safely transfers the ownership of a given token ID to another address If the target address is a contract, it must implement {IERC721Receiver-onERC721Received}, which is called upon a safe transfer, and return the magic value `bytes4(keccak256(\"onERC721Received(address,address,uint256,bytes)\"))`; otherwise, the transfer is reverted. Requires the msg.sender to be the owner, approved, or operator",
        "params": {
          "from": "current owner of the token",
          "to": "address to receive the ownership of the given token ID",
          "tokenId": "uint256 ID of the token to be transferred"
        }
      },
      "safeTransferFrom(address,address,uint256,bytes)": {
        "details": "Safely transfers the ownership of a given token ID to another address If the target address is a contract, it must implement {IERC721Receiver-onERC721Received}, which is called upon a safe transfer, and return the magic value `bytes4(keccak256(\"onERC721Received(address,address,uint256,bytes)\"))`; otherwise, the transfer is reverted. Requires the _msgSender() to be the owner, approved, or operator",
        "params": {
          "_data": "bytes data to send along with a safe transfer check",
          "from": "current owner of the token",
          "to": "address to receive the ownership of the given token ID",
          "tokenId": "uint256 ID of the token to be transferred"
        }
      },
      "setApprovalForAll(address,bool)": {
        "details": "Sets or unsets the approval of a given operator An operator is allowed to transfer all tokens of the sender on their behalf.",
        "params": {
          "approved": "representing the status of the approval to be set",
          "to": "operator address to set the approval"
        }
      },
      "supportsInterface(bytes4)": {
        "details": "See {IERC165-supportsInterface}.     * Time complexity O(1), guaranteed to always use less than 30 000 gas."
      },
      "symbol()": {
        "details": "Gets the token symbol.",
        "return": "string representing the token symbol"
      },
      "tokenByIndex(uint256)": {
        "details": "Gets the token ID at a given index of all the tokens in this contract Reverts if the index is greater or equal to the total number of tokens.",
        "params": {
          "index": "uint256 representing the index to be accessed of the tokens list"
        },
        "return": "uint256 token ID at the given index of the tokens list"
      },
      "tokenOfOwnerByIndex(address,uint256)": {
        "details": "Gets the token ID at a given index of the tokens list of the requested owner.",
        "params": {
          "index": "uint256 representing the index to be accessed of the requested tokens list",
          "owner": "address owning the tokens list to be accessed"
        },
        "return": "uint256 token ID at the given index of the tokens list owned by the requested address"
      },
      "tokenURI(uint256)": {
        "details": "Returns the URI for a given token ID. May return an empty string.     * If the token's URI is non-empty and a base URI was set (via {_setBaseURI}), it will be added to the token ID's URI as a prefix.     * Reverts if the token ID does not exist."
      },
      "totalSupply()": {
        "details": "Gets the total amount of tokens stored by the contract.",
        "return": "uint256 representing the total amount of tokens"
      },
      "transferFrom(address,address,uint256)": {
        "details": "Transfers the ownership of a given token ID to another address. Usage of this method is discouraged, use {safeTransferFrom} whenever possible. Requires the msg.sender to be the owner, approved, or operator.",
        "params": {
          "from": "current owner of the token",
          "to": "address to receive the ownership of the given token ID",
          "tokenId": "uint256 ID of the token to be transferred"
        }
      }
    }
  },
  "userdoc": {
    "methods": {}
  }
}