{
  "contractName": "Cell",
  "abi": [
    {
      "inputs": [
        {
          "internalType": "address",
          "name": "_proxyRegistryAddress",
          "type": "address"
        }
      ],
      "payable": false,
      "stateMutability": "nonpayable",
      "type": "constructor"
    },
    {
      "anonymous": false,
      "inputs": [
        {
          "indexed": true,
          "internalType": "address",
          "name": "owner",
          "type": "address"
        },
        {
          "indexed": true,
          "internalType": "address",
          "name": "approved",
          "type": "address"
        },
        {
          "indexed": true,
          "internalType": "uint256",
          "name": "tokenId",
          "type": "uint256"
        }
      ],
      "name": "Approval",
      "type": "event"
    },
    {
      "anonymous": false,
      "inputs": [
        {
          "indexed": true,
          "internalType": "address",
          "name": "owner",
          "type": "address"
        },
        {
          "indexed": true,
          "internalType": "address",
          "name": "operator",
          "type": "address"
        },
        {
          "indexed": false,
          "internalType": "bool",
          "name": "approved",
          "type": "bool"
        }
      ],
      "name": "ApprovalForAll",
      "type": "event"
    },
    {
      "anonymous": false,
      "inputs": [
        {
          "indexed": false,
          "internalType": "address",
          "name": "minter",
          "type": "address"
        },
        {
          "indexed": false,
          "internalType": "bytes32",
          "name": "queryId",
          "type": "bytes32"
        },
        {
          "indexed": false,
          "internalType": "uint256",
          "name": "seed",
          "type": "uint256"
        },
        {
          "indexed": false,
          "internalType": "uint256",
          "name": "tokenId",
          "type": "uint256"
        }
      ],
      "name": "LogMintQuery",
      "type": "event"
    },
    {
      "anonymous": false,
      "inputs": [
        {
          "indexed": true,
          "internalType": "address",
          "name": "from",
          "type": "address"
        },
        {
          "indexed": true,
          "internalType": "address",
          "name": "to",
          "type": "address"
        },
        {
          "indexed": true,
          "internalType": "uint256",
          "name": "tokenId",
          "type": "uint256"
        }
      ],
      "name": "Transfer",
      "type": "event"
    },
    {
      "constant": false,
      "inputs": [
        {
          "internalType": "address",
          "name": "to",
          "type": "address"
        },
        {
          "internalType": "uint256",
          "name": "tokenId",
          "type": "uint256"
        }
      ],
      "name": "approve",
      "outputs": [],
      "payable": false,
      "stateMutability": "nonpayable",
      "type": "function"
    },
    {
      "constant": true,
      "inputs": [
        {
          "internalType": "address",
          "name": "owner",
          "type": "address"
        }
      ],
      "name": "balanceOf",
      "outputs": [
        {
          "internalType": "uint256",
          "name": "",
          "type": "uint256"
        }
      ],
      "payable": false,
      "stateMutability": "view",
      "type": "function"
    },
    {
      "constant": true,
      "inputs": [],
      "name": "baseURI",
      "outputs": [
        {
          "internalType": "string",
          "name": "",
          "type": "string"
        }
      ],
      "payable": false,
      "stateMutability": "view",
      "type": "function"
    },
    {
      "constant": true,
      "inputs": [
        {
          "internalType": "uint256",
          "name": "tokenId",
          "type": "uint256"
        }
      ],
      "name": "getApproved",
      "outputs": [
        {
          "internalType": "address",
          "name": "",
          "type": "address"
        }
      ],
      "payable": false,
      "stateMutability": "view",
      "type": "function"
    },
    {
      "constant": true,
      "inputs": [
        {
          "internalType": "address",
          "name": "owner",
          "type": "address"
        },
        {
          "internalType": "address",
          "name": "operator",
          "type": "address"
        }
      ],
      "name": "isApprovedForAll",
      "outputs": [
        {
          "internalType": "bool",
          "name": "",
          "type": "bool"
        }
      ],
      "payable": false,
      "stateMutability": "view",
      "type": "function"
    },
    {
      "constant": true,
      "inputs": [],
      "name": "massPool",
      "outputs": [
        {
          "internalType": "uint256",
          "name": "",
          "type": "uint256"
        }
      ],
      "payable": false,
      "stateMutability": "view",
      "type": "function"
    },
    {
      "constant": true,
      "inputs": [],
      "name": "maxTokenId",
      "outputs": [
        {
          "internalType": "uint256",
          "name": "",
          "type": "uint256"
        }
      ],
      "payable": false,
      "stateMutability": "view",
      "type": "function"
    },
    {
      "constant": true,
      "inputs": [],
      "name": "name",
      "outputs": [
        {
          "internalType": "string",
          "name": "",
          "type": "string"
        }
      ],
      "payable": false,
      "stateMutability": "view",
      "type": "function"
    },
    {
      "constant": true,
      "inputs": [
        {
          "internalType": "uint256",
          "name": "",
          "type": "uint256"
        }
      ],
      "name": "nftSeed",
      "outputs": [
        {
          "internalType": "uint256",
          "name": "",
          "type": "uint256"
        }
      ],
      "payable": false,
      "stateMutability": "view",
      "type": "function"
    },
    {
      "constant": true,
      "inputs": [],
      "name": "owner",
      "outputs": [
        {
          "internalType": "address payable",
          "name": "",
          "type": "address"
        }
      ],
      "payable": false,
      "stateMutability": "view",
      "type": "function"
    },
    {
      "constant": true,
      "inputs": [
        {
          "internalType": "uint256",
          "name": "tokenId",
          "type": "uint256"
        }
      ],
      "name": "ownerOf",
      "outputs": [
        {
          "internalType": "address",
          "name": "",
          "type": "address"
        }
      ],
      "payable": false,
      "stateMutability": "view",
      "type": "function"
    },
    {
      "constant": true,
      "inputs": [
        {
          "internalType": "bytes32",
          "name": "",
          "type": "bytes32"
        }
      ],
      "name": "provableQueryToAddress",
      "outputs": [
        {
          "internalType": "address",
          "name": "",
          "type": "address"
        }
      ],
      "payable": false,
      "stateMutability": "view",
      "type": "function"
    },
    {
      "constant": true,
      "inputs": [
        {
          "internalType": "bytes32",
          "name": "",
          "type": "bytes32"
        }
      ],
      "name": "provableQueryToSeed",
      "outputs": [
        {
          "internalType": "uint16",
          "name": "",
          "type": "uint16"
        }
      ],
      "payable": false,
      "stateMutability": "view",
      "type": "function"
    },
    {
      "constant": true,
      "inputs": [
        {
          "internalType": "bytes32",
          "name": "",
          "type": "bytes32"
        }
      ],
      "name": "provableQueryToTokenId",
      "outputs": [
        {
          "internalType": "uint256",
          "name": "",
          "type": "uint256"
        }
      ],
      "payable": false,
      "stateMutability": "view",
      "type": "function"
    },
    {
      "constant": false,
      "inputs": [
        {
          "internalType": "address",
          "name": "from",
          "type": "address"
        },
        {
          "internalType": "address",
          "name": "to",
          "type": "address"
        },
        {
          "internalType": "uint256",
          "name": "tokenId",
          "type": "uint256"
        }
      ],
      "name": "safeTransferFrom",
      "outputs": [],
      "payable": false,
      "stateMutability": "nonpayable",
      "type": "function"
    },
    {
      "constant": false,
      "inputs": [
        {
          "internalType": "address",
          "name": "from",
          "type": "address"
        },
        {
          "internalType": "address",
          "name": "to",
          "type": "address"
        },
        {
          "internalType": "uint256",
          "name": "tokenId",
          "type": "uint256"
        },
        {
          "internalType": "bytes",
          "name": "_data",
          "type": "bytes"
        }
      ],
      "name": "safeTransferFrom",
      "outputs": [],
      "payable": false,
      "stateMutability": "nonpayable",
      "type": "function"
    },
    {
      "constant": false,
      "inputs": [
        {
          "internalType": "address",
          "name": "to",
          "type": "address"
        },
        {
          "internalType": "bool",
          "name": "approved",
          "type": "bool"
        }
      ],
      "name": "setApprovalForAll",
      "outputs": [],
      "payable": false,
      "stateMutability": "nonpayable",
      "type": "function"
    },
    {
      "constant": true,
      "inputs": [
        {
          "internalType": "bytes4",
          "name": "interfaceId",
          "type": "bytes4"
        }
      ],
      "name": "supportsInterface",
      "outputs": [
        {
          "internalType": "bool",
          "name": "",
          "type": "bool"
        }
      ],
      "payable": false,
      "stateMutability": "view",
      "type": "function"
    },
    {
      "constant": true,
      "inputs": [],
      "name": "symbol",
      "outputs": [
        {
          "internalType": "string",
          "name": "",
          "type": "string"
        }
      ],
      "payable": false,
      "stateMutability": "view",
      "type": "function"
    },
    {
      "constant": true,
      "inputs": [
        {
          "internalType": "uint256",
          "name": "index",
          "type": "uint256"
        }
      ],
      "name": "tokenByIndex",
      "outputs": [
        {
          "internalType": "uint256",
          "name": "",
          "type": "uint256"
        }
      ],
      "payable": false,
      "stateMutability": "view",
      "type": "function"
    },
    {
      "constant": true,
      "inputs": [
        {
          "internalType": "address",
          "name": "owner",
          "type": "address"
        },
        {
          "internalType": "uint256",
          "name": "index",
          "type": "uint256"
        }
      ],
      "name": "tokenOfOwnerByIndex",
      "outputs": [
        {
          "internalType": "uint256",
          "name": "",
          "type": "uint256"
        }
      ],
      "payable": false,
      "stateMutability": "view",
      "type": "function"
    },
    {
      "constant": true,
      "inputs": [
        {
          "internalType": "uint256",
          "name": "tokenId",
          "type": "uint256"
        }
      ],
      "name": "tokenURI",
      "outputs": [
        {
          "internalType": "string",
          "name": "",
          "type": "string"
        }
      ],
      "payable": false,
      "stateMutability": "view",
      "type": "function"
    },
    {
      "constant": true,
      "inputs": [],
      "name": "totalSupply",
      "outputs": [
        {
          "internalType": "uint256",
          "name": "",
          "type": "uint256"
        }
      ],
      "payable": false,
      "stateMutability": "view",
      "type": "function"
    },
    {
      "constant": false,
      "inputs": [
        {
          "internalType": "address",
          "name": "from",
          "type": "address"
        },
        {
          "internalType": "address",
          "name": "to",
          "type": "address"
        },
        {
          "internalType": "uint256",
          "name": "tokenId",
          "type": "uint256"
        }
      ],
      "name": "transferFrom",
      "outputs": [],
      "payable": false,
      "stateMutability": "nonpayable",
      "type": "function"
    },
    {
      "constant": false,
      "inputs": [
        {
          "internalType": "bytes32",
          "name": "_myid",
          "type": "bytes32"
        },
        {
          "internalType": "string",
          "name": "_result",
          "type": "string"
        }
      ],
      "name": "__callback",
      "outputs": [],
      "payable": false,
      "stateMutability": "nonpayable",
      "type": "function"
    },
    {
      "constant": false,
      "inputs": [
        {
          "internalType": "bytes32",
          "name": "_queryId",
          "type": "bytes32"
        },
        {
          "internalType": "string",
          "name": "_result",
          "type": "string"
        },
        {
          "internalType": "bytes",
          "name": "_proof",
          "type": "bytes"
        }
      ],
      "name": "__callback",
      "outputs": [],
      "payable": false,
      "stateMutability": "nonpayable",
      "type": "function"
    },
    {
      "constant": false,
      "inputs": [
        {
          "internalType": "uint16",
          "name": "seed",
          "type": "uint16"
        }
      ],
      "name": "mint",
      "outputs": [],
      "payable": true,
      "stateMutability": "payable",
      "type": "function"
    },
    {
      "constant": false,
      "inputs": [
        {
          "internalType": "uint256",
          "name": "id1",
          "type": "uint256"
        },
        {
          "internalType": "uint256",
          "name": "id2",
          "type": "uint256"
        }
      ],
      "name": "merge",
      "outputs": [],
      "payable": true,
      "stateMutability": "payable",
      "type": "function"
    },
    {
      "constant": false,
      "inputs": [
        {
          "internalType": "uint256",
          "name": "id",
          "type": "uint256"
        }
      ],
      "name": "split",
      "outputs": [],
      "payable": true,
      "stateMutability": "payable",
      "type": "function"
    },
    {
      "constant": true,
      "inputs": [
        {
          "internalType": "uint256",
          "name": "id",
          "type": "uint256"
        }
      ],
      "name": "get",
      "outputs": [
        {
          "internalType": "uint256",
          "name": "mass",
          "type": "uint256"
        },
        {
          "internalType": "uint32",
          "name": "wallWave",
          "type": "uint32"
        },
        {
          "internalType": "bool",
          "name": "wallRound",
          "type": "bool"
        },
        {
          "internalType": "uint24",
          "name": "wallColor",
          "type": "uint24"
        },
        {
          "internalType": "bool",
          "name": "nucleusHidden",
          "type": "bool"
        },
        {
          "internalType": "uint24",
          "name": "nucleusColor",
          "type": "uint24"
        },
        {
          "internalType": "uint8[8]",
          "name": "featureCategories",
          "type": "uint8[8]"
        },
        {
          "internalType": "uint8[8]",
          "name": "featureFamilies",
          "type": "uint8[8]"
        },
        {
          "internalType": "uint8[8]",
          "name": "featureCounts",
          "type": "uint8[8]"
        },
        {
          "internalType": "uint24[8]",
          "name": "featureColors",
          "type": "uint24[8]"
        }
      ],
      "payable": false,
      "stateMutability": "view",
      "type": "function"
    }
  ],
  "bytecode": "0x608060405273a096b47ebf7727d01ff4f09c34fc6591f2c375f0601460006101000a81548173ffffffffffffffffffffffffffffffffffffffff021916908373ffffffffffffffffffffffffffffffffffffffff16021790555063ef03be806017556203d0906018553480156200007557600080fd5b5060405162007bbd38038062007bbd833981810160405260208110156200009b57600080fd5b81019080805190602001909291905050506040518060400160405280600481526020017f43656c6c000000000000000000000000000000000000000000000000000000008152506040518060400160405280600381526020017f28592900000000000000000000000000000000000000000000000000000000008152508181620001326301ffc9a760e01b6200025260201b60201c565b6200014a6380ac58cd60e01b6200025260201b60201c565b6200016263780e9d6360e01b6200025260201b60201c565b81600990805190602001906200017a929190620013fa565b5080600a908051906020019062000193929190620013fa565b50620001ac635b5e139f60e01b6200025260201b60201c565b505050506f27df6dbfa09e777e1ea7ee5000000000601381905550620001da3360016200035b60201b60201c565b600160128190555080601560006101000a81548173ffffffffffffffffffffffffffffffffffffffff021916908373ffffffffffffffffffffffffffffffffffffffff16021790555062000238603060f81b6200039960201b60201c565b6200024b601754620006ff60201b60201c565b50620014a9565b63ffffffff60e01b817bffffffffffffffffffffffffffffffffffffffffffffffffffffffff19161415620002ef576040517f08c379a000000000000000000000000000000000000000000000000000000000815260040180806020018281038252601c8152602001807f4552433136353a20696e76616c696420696e746572666163652069640000000081525060200191505060405180910390fd5b6001600080837bffffffffffffffffffffffffffffffffffffffffffffffffffffffff19167bffffffffffffffffffffffffffffffffffffffffffffffffffffffff1916815260200190815260200160002060006101000a81548160ff02191690831515021790555050565b62000372828262000a2160201b620041661760201c565b62000384828262000c5060201b60201c565b620003958162000d1760201b60201c565b5050565b600073ffffffffffffffffffffffffffffffffffffffff16600e60009054906101000a900473ffffffffffffffffffffffffffffffffffffffff1673ffffffffffffffffffffffffffffffffffffffff161480620004295750600062000427600e60009054906101000a900473ffffffffffffffffffffffffffffffffffffffff1662000d6360201b60201c565b145b15620004435762000441600062000d6e60201b60201c565b505b600e60009054906101000a900473ffffffffffffffffffffffffffffffffffffffff1673ffffffffffffffffffffffffffffffffffffffff166338cc48316040518163ffffffff1660e01b8152600401602060405180830381600087803b158015620004ae57600080fd5b505af1158015620004c3573d6000803e3d6000fd5b505050506040513d6020811015620004da57600080fd5b810190808051906020019092919050505073ffffffffffffffffffffffffffffffffffffffff16600d60009054906101000a900473ffffffffffffffffffffffffffffffffffffffff1673ffffffffffffffffffffffffffffffffffffffff16146200062957600e60009054906101000a900473ffffffffffffffffffffffffffffffffffffffff1673ffffffffffffffffffffffffffffffffffffffff166338cc48316040518163ffffffff1660e01b8152600401602060405180830381600087803b158015620005ab57600080fd5b505af1158015620005c0573d6000803e3d6000fd5b505050506040513d6020811015620005d757600080fd5b8101908080519060200190929190505050600d60006101000a81548173ffffffffffffffffffffffffffffffffffffffff021916908373ffffffffffffffffffffffffffffffffffffffff1602179055505b600d60009054906101000a900473ffffffffffffffffffffffffffffffffffffffff1673ffffffffffffffffffffffffffffffffffffffff1663688dcfd7826040518263ffffffff1660e01b815260040180827effffffffffffffffffffffffffffffffffffffffffffffffffffffffffffff19167effffffffffffffffffffffffffffffffffffffffffffffffffffffffffffff19168152602001915050600060405180830381600087803b158015620006e357600080fd5b505af1158015620006f8573d6000803e3d6000fd5b5050505050565b600073ffffffffffffffffffffffffffffffffffffffff16600e60009054906101000a900473ffffffffffffffffffffffffffffffffffffffff1673ffffffffffffffffffffffffffffffffffffffff1614806200078f575060006200078d600e60009054906101000a900473ffffffffffffffffffffffffffffffffffffffff1662000d6360201b60201c565b145b15620007a957620007a7600062000d6e60201b60201c565b505b600e60009054906101000a900473ffffffffffffffffffffffffffffffffffffffff1673ffffffffffffffffffffffffffffffffffffffff166338cc48316040518163ffffffff1660e01b8152600401602060405180830381600087803b1580156200081457600080fd5b505af115801562000829573d6000803e3d6000fd5b505050506040513d60208110156200084057600080fd5b810190808051906020019092919050505073ffffffffffffffffffffffffffffffffffffffff16600d60009054906101000a900473ffffffffffffffffffffffffffffffffffffffff1673ffffffffffffffffffffffffffffffffffffffff16146200098f57600e60009054906101000a900473ffffffffffffffffffffffffffffffffffffffff1673ffffffffffffffffffffffffffffffffffffffff166338cc48316040518163ffffffff1660e01b8152600401602060405180830381600087803b1580156200091157600080fd5b505af115801562000926573d6000803e3d6000fd5b505050506040513d60208110156200093d57600080fd5b8101908080519060200190929190505050600d60006101000a81548173ffffffffffffffffffffffffffffffffffffffff021916908373ffffffffffffffffffffffffffffffffffffffff1602179055505b600d60009054906101000a900473ffffffffffffffffffffffffffffffffffffffff1673ffffffffffffffffffffffffffffffffffffffff1663ca6ad1e4826040518263ffffffff1660e01b815260040180828152602001915050600060405180830381600087803b15801562000a0557600080fd5b505af115801562000a1a573d6000803e3d6000fd5b5050505050565b600073ffffffffffffffffffffffffffffffffffffffff168273ffffffffffffffffffffffffffffffffffffffff16141562000ac5576040517f08c379a00000000000000000000000000000000000000000000000000000000081526004018080602001828103825260208152602001807f4552433732313a206d696e7420746f20746865207a65726f206164647265737381525060200191505060405180910390fd5b62000ad68162000d8760201b60201c565b1562000b4a576040517f08c379a000000000000000000000000000000000000000000000000000000000815260040180806020018281038252601c8152602001807f4552433732313a20746f6b656e20616c7265616479206d696e7465640000000081525060200191505060405180910390fd5b816001600083815260200190815260200160002060006101000a81548173ffffffffffffffffffffffffffffffffffffffff021916908373ffffffffffffffffffffffffffffffffffffffff16021790555062000bf0600360008473ffffffffffffffffffffffffffffffffffffffff1673ffffffffffffffffffffffffffffffffffffffff16815260200190815260200160002062000df960201b6200509c1760201c565b808273ffffffffffffffffffffffffffffffffffffffff16600073ffffffffffffffffffffffffffffffffffffffff167fddf252ad1be2c89b69c2b068fc378daa952ba7f163c4a11628f55a4df523b3ef60405160405180910390a45050565b600560008373ffffffffffffffffffffffffffffffffffffffff1673ffffffffffffffffffffffffffffffffffffffff168152602001908152602001600020805490506006600083815260200190815260200160002081905550600560008373ffffffffffffffffffffffffffffffffffffffff1673ffffffffffffffffffffffffffffffffffffffff1681526020019081526020016000208190806001815401808255809150509060018203906000526020600020016000909192909190915055505050565b6007805490506008600083815260200190815260200160002081905550600781908060018154018082558091505090600182039060005260206000200160009091929091909150555050565b6000813b9050919050565b600062000d8062000e0f60201b60201c565b9050919050565b6000806001600084815260200190815260200160002060009054906101000a900473ffffffffffffffffffffffffffffffffffffffff169050600073ffffffffffffffffffffffffffffffffffffffff168173ffffffffffffffffffffffffffffffffffffffff161415915050919050565b6001816000016000828254019250508190555050565b60008062000e37731d3b2638a7cc9f2cb3d298a3da7a90b67e5506ed62000d6360201b60201c565b111562000ee357731d3b2638a7cc9f2cb3d298a3da7a90b67e5506ed600e60006101000a81548173ffffffffffffffffffffffffffffffffffffffff021916908373ffffffffffffffffffffffffffffffffffffffff16021790555062000ed96040518060400160405280600b81526020017f6574685f6d61696e6e6574000000000000000000000000000000000000000000815250620013de60201b60201c565b60019050620013db565b600062000f0a73c03a2615d5efaf5f49f60b7bb6583eaec212fdf162000d6360201b60201c565b111562000fb65773c03a2615d5efaf5f49f60b7bb6583eaec212fdf1600e60006101000a81548173ffffffffffffffffffffffffffffffffffffffff021916908373ffffffffffffffffffffffffffffffffffffffff16021790555062000fac6040518060400160405280600c81526020017f6574685f726f707374656e330000000000000000000000000000000000000000815250620013de60201b60201c565b60019050620013db565b600062000fdd73b7a07bcf2ba2f2703b24c0691b5278999c59ac7e62000d6360201b60201c565b1115620010895773b7a07bcf2ba2f2703b24c0691b5278999c59ac7e600e60006101000a81548173ffffffffffffffffffffffffffffffffffffffff021916908373ffffffffffffffffffffffffffffffffffffffff1602179055506200107f6040518060400160405280600981526020017f6574685f6b6f76616e0000000000000000000000000000000000000000000000815250620013de60201b60201c565b60019050620013db565b6000620010b073146500cfd35b22e4a392fe0adc06de1a1368ed4862000d6360201b60201c565b11156200115c5773146500cfd35b22e4a392fe0adc06de1a1368ed48600e60006101000a81548173ffffffffffffffffffffffffffffffffffffffff021916908373ffffffffffffffffffffffffffffffffffffffff160217905550620011526040518060400160405280600b81526020017f6574685f72696e6b656279000000000000000000000000000000000000000000815250620013de60201b60201c565b60019050620013db565b60006200118373a2998efd205fb9d4b4963afb70778d6354ad3a4162000d6360201b60201c565b11156200122f5773a2998efd205fb9d4b4963afb70778d6354ad3a41600e60006101000a81548173ffffffffffffffffffffffffffffffffffffffff021916908373ffffffffffffffffffffffffffffffffffffffff160217905550620012256040518060400160405280600a81526020017f6574685f676f65726c6900000000000000000000000000000000000000000000815250620013de60201b60201c565b60019050620013db565b600062001256736f485c8bf6fc43ea212e93bbf8ce046c7f1cb47562000d6360201b60201c565b1115620012bc57736f485c8bf6fc43ea212e93bbf8ce046c7f1cb475600e60006101000a81548173ffffffffffffffffffffffffffffffffffffffff021916908373ffffffffffffffffffffffffffffffffffffffff16021790555060019050620013db565b6000620012e37320e12a1f859b3feae5fb2a0a32c18f5a65555bbf62000d6360201b60201c565b111562001349577320e12a1f859b3feae5fb2a0a32c18f5a65555bbf600e60006101000a81548173ffffffffffffffffffffffffffffffffffffffff021916908373ffffffffffffffffffffffffffffffffffffffff16021790555060019050620013db565b6000620013707351efaf4c8b3c9afbd5ab9f4bbc82784ab6ef8faa62000d6360201b60201c565b1115620013d6577351efaf4c8b3c9afbd5ab9f4bbc82784ab6ef8faa600e60006101000a81548173ffffffffffffffffffffffffffffffffffffffff021916908373ffffffffffffffffffffffffffffffffffffffff16021790555060019050620013db565b600090505b90565b80600f9080519060200190620013f6929190620013fa565b5050565b828054600181600116156101000203166002900490600052602060002090601f016020900481019282601f106200143d57805160ff19168380011785556200146e565b828001600101855582156200146e579182015b828111156200146d57825182559160200191906001019062001450565b5b5090506200147d919062001481565b5090565b620014a691905b80821115620014a257600081600090555060010162001488565b5090565b90565b61670480620014b96000396000f3fe6080604052600436106101cd5760003560e01c80636c0360eb116100f7578063a22cb46511610095578063dbceb00511610064578063dbceb00514610efa578063e985e9c514610f28578063eb89ce7714610fb1578063fb4092c01461102c576101cd565b8063a22cb46514610c9f578063b88d4fde14610cfc578063c87b56dd14610e0e578063d1c2babb14610ec2576101cd565b806391ba317a116100d157806391ba317a14610a3f5780639290b5be14610a6a5780639507d39a14610ab957806395d89b4114610c0f576101cd565b80636c0360eb146108f357806370a08231146109835780638da5cb5b146109e8576101cd565b806327dc297e1161016f578063453b47911161013e578063453b4791146107a75780634f6ccce7146107d2578063525125de146108215780636352211e14610878576101cd565b806327dc297e146104825780632f745c591461055457806338bbfa50146105c357806342842e0e1461072c576101cd565b8063095ea7b3116101ab578063095ea7b31461034f57806318160ddd146103aa57806323b872dd146103d557806323cf0a2214610450576101cd565b806301ffc9a7146101d257806306fdde0314610244578063081812fc146102d4575b600080fd5b3480156101de57600080fd5b5061022a600480360360208110156101f557600080fd5b8101908080357bffffffffffffffffffffffffffffffffffffffffffffffffffffffff1916906020019092919050505061107b565b604051808215151515815260200191505060405180910390f35b34801561025057600080fd5b506102596110e2565b6040518080602001828103825283818151815260200191508051906020019080838360005b8381101561029957808201518184015260208101905061027e565b50505050905090810190601f1680156102c65780820380516001836020036101000a031916815260200191505b509250505060405180910390f35b3480156102e057600080fd5b5061030d600480360360208110156102f757600080fd5b8101908080359060200190929190505050611184565b604051808273ffffffffffffffffffffffffffffffffffffffff1673ffffffffffffffffffffffffffffffffffffffff16815260200191505060405180910390f35b34801561035b57600080fd5b506103a86004803603604081101561037257600080fd5b81019080803573ffffffffffffffffffffffffffffffffffffffff1690602001909291908035906020019092919050505061121f565b005b3480156103b657600080fd5b506103bf611406565b6040518082815260200191505060405180910390f35b3480156103e157600080fd5b5061044e600480360360608110156103f857600080fd5b81019080803573ffffffffffffffffffffffffffffffffffffffff169060200190929190803573ffffffffffffffffffffffffffffffffffffffff16906020019092919080359060200190929190505050611413565b005b6104806004803603602081101561046657600080fd5b81019080803561ffff169060200190929190505050611489565b005b34801561048e57600080fd5b50610552600480360360408110156104a557600080fd5b8101908080359060200190929190803590602001906401000000008111156104cc57600080fd5b8201836020820111156104de57600080fd5b8035906020019184600183028401116401000000008311171561050057600080fd5b91908080601f016020809104026020016040519081016040528093929190818152602001838380828437600081840152601f19601f820116905080830192505050505050509192919290505050611887565b005b34801561056057600080fd5b506105ad6004803603604081101561057757600080fd5b81019080803573ffffffffffffffffffffffffffffffffffffffff169060200190929190803590602001909291905050506118ca565b6040518082815260200191505060405180910390f35b3480156105cf57600080fd5b5061072a600480360360608110156105e657600080fd5b81019080803590602001909291908035906020019064010000000081111561060d57600080fd5b82018360208201111561061f57600080fd5b8035906020019184600183028401116401000000008311171561064157600080fd5b91908080601f016020809104026020016040519081016040528093929190818152602001838380828437600081840152601f19601f820116905080830192505050505050509192919290803590602001906401000000008111156106a457600080fd5b8201836020820111156106b657600080fd5b803590602001918460018302840111640100000000831117156106d857600080fd5b91908080601f016020809104026020016040519081016040528093929190818152602001838380828437600081840152601f19601f820116905080830192505050505050509192919290505050611989565b005b34801561073857600080fd5b506107a56004803603606081101561074f57600080fd5b81019080803573ffffffffffffffffffffffffffffffffffffffff169060200190929190803573ffffffffffffffffffffffffffffffffffffffff16906020019092919080359060200190929190505050611b76565b005b3480156107b357600080fd5b506107bc611b96565b6040518082815260200191505060405180910390f35b3480156107de57600080fd5b5061080b600480360360208110156107f557600080fd5b8101908080359060200190929190505050611b9c565b6040518082815260200191505060405180910390f35b34801561082d57600080fd5b5061085a6004803603602081101561084457600080fd5b8101908080359060200190929190505050611c1c565b604051808261ffff1661ffff16815260200191505060405180910390f35b34801561088457600080fd5b506108b16004803603602081101561089b57600080fd5b8101908080359060200190929190505050611c3d565b604051808273ffffffffffffffffffffffffffffffffffffffff1673ffffffffffffffffffffffffffffffffffffffff16815260200191505060405180910390f35b3480156108ff57600080fd5b50610908611d05565b6040518080602001828103825283818151815260200191508051906020019080838360005b8381101561094857808201518184015260208101905061092d565b50505050905090810190601f1680156109755780820380516001836020036101000a031916815260200191505b509250505060405180910390f35b34801561098f57600080fd5b506109d2600480360360208110156109a657600080fd5b81019080803573ffffffffffffffffffffffffffffffffffffffff169060200190929190505050611da7565b6040518082815260200191505060405180910390f35b3480156109f457600080fd5b506109fd611e7c565b604051808273ffffffffffffffffffffffffffffffffffffffff1673ffffffffffffffffffffffffffffffffffffffff16815260200191505060405180910390f35b348015610a4b57600080fd5b50610a54611ea2565b6040518082815260200191505060405180910390f35b348015610a7657600080fd5b50610aa360048036036020811015610a8d57600080fd5b8101908080359060200190929190505050611ea8565b6040518082815260200191505060405180910390f35b348015610ac557600080fd5b50610af260048036036020811015610adc57600080fd5b8101908080359060200190929190505050611ec0565b604051808b81526020018a63ffffffff1663ffffffff168152602001891515151581526020018862ffffff1662ffffff168152602001871515151581526020018662ffffff1662ffffff16815260200185600860200280838360005b83811015610b69578082015181840152602081019050610b4e565b5050505090500184600860200280838360005b83811015610b97578082015181840152602081019050610b7c565b5050505090500183600860200280838360005b83811015610bc5578082015181840152602081019050610baa565b5050505090500182600860200280838360005b83811015610bf3578082015181840152602081019050610bd8565b505050509050019a505050505050505050505060405180910390f35b348015610c1b57600080fd5b50610c246120dd565b6040518080602001828103825283818151815260200191508051906020019080838360005b83811015610c64578082015181840152602081019050610c49565b50505050905090810190601f168015610c915780820380516001836020036101000a031916815260200191505b509250505060405180910390f35b348015610cab57600080fd5b50610cfa60048036036040811015610cc257600080fd5b81019080803573ffffffffffffffffffffffffffffffffffffffff16906020019092919080351515906020019092919050505061217f565b005b348015610d0857600080fd5b50610e0c60048036036080811015610d1f57600080fd5b81019080803573ffffffffffffffffffffffffffffffffffffffff169060200190929190803573ffffffffffffffffffffffffffffffffffffffff1690602001909291908035906020019092919080359060200190640100000000811115610d8657600080fd5b820183602082011115610d9857600080fd5b80359060200191846001830284011164010000000083111715610dba57600080fd5b91908080601f016020809104026020016040519081016040528093929190818152602001838380828437600081840152601f19601f820116905080830192505050505050509192919290505050612337565b005b348015610e1a57600080fd5b50610e4760048036036020811015610e3157600080fd5b81019080803590602001909291905050506123af565b6040518080602001828103825283818151815260200191508051906020019080838360005b83811015610e87578082015181840152602081019050610e6c565b50505050905090810190601f168015610eb45780820380516001836020036101000a031916815260200191505b509250505060405180910390f35b610ef860048036036040811015610ed857600080fd5b8101908080359060200190929190803590602001909291905050506125b1565b005b610f2660048036036020811015610f1057600080fd5b81019080803590602001909291905050506128f6565b005b348015610f3457600080fd5b50610f9760048036036040811015610f4b57600080fd5b81019080803573ffffffffffffffffffffffffffffffffffffffff169060200190929190803573ffffffffffffffffffffffffffffffffffffffff169060200190929190505050612e0e565b604051808215151515815260200191505060405180910390f35b348015610fbd57600080fd5b50610fea60048036036020811015610fd457600080fd5b8101908080359060200190929190505050612ea2565b604051808273ffffffffffffffffffffffffffffffffffffffff1673ffffffffffffffffffffffffffffffffffffffff16815260200191505060405180910390f35b34801561103857600080fd5b506110656004803603602081101561104f57600080fd5b8101908080359060200190929190505050612ed5565b6040518082815260200191505060405180910390f35b6000806000837bffffffffffffffffffffffffffffffffffffffffffffffffffffffff19167bffffffffffffffffffffffffffffffffffffffffffffffffffffffff1916815260200190815260200160002060009054906101000a900460ff169050919050565b606060098054600181600116156101000203166002900480601f01602080910402602001604051908101604052809291908181526020018280546001816001161561010002031660029004801561117a5780601f1061114f5761010080835404028352916020019161117a565b820191906000526020600020905b81548152906001019060200180831161115d57829003601f168201915b5050505050905090565b600061118f82612eed565b6111e4576040517f08c379a000000000000000000000000000000000000000000000000000000000815260040180806020018281038252602c8152602001806165a9602c913960400191505060405180910390fd5b6002600083815260200190815260200160002060009054906101000a900473ffffffffffffffffffffffffffffffffffffffff169050919050565b600061122a82611c3d565b90508073ffffffffffffffffffffffffffffffffffffffff168373ffffffffffffffffffffffffffffffffffffffff1614156112b1576040517f08c379a000000000000000000000000000000000000000000000000000000000815260040180806020018281038252602181526020018061662d6021913960400191505060405180910390fd5b8073ffffffffffffffffffffffffffffffffffffffff166112d0612f5f565b73ffffffffffffffffffffffffffffffffffffffff1614806112ff57506112fe816112f9612f5f565b612e0e565b5b611354576040517f08c379a000000000000000000000000000000000000000000000000000000000815260040180806020018281038252603881526020018061651e6038913960400191505060405180910390fd5b826002600084815260200190815260200160002060006101000a81548173ffffffffffffffffffffffffffffffffffffffff021916908373ffffffffffffffffffffffffffffffffffffffff160217905550818373ffffffffffffffffffffffffffffffffffffffff168273ffffffffffffffffffffffffffffffffffffffff167f8c5be1e5ebec7d5bd14f71427d1e84f3dd0314c0f7b2291e5b200ac8c7c3b92560405160405180910390a4505050565b6000600780549050905090565b61142461141e612f5f565b82612f67565b611479576040517f08c379a000000000000000000000000000000000000000000000000000000000815260040180806020018281038252603181526020018061664e6031913960400191505060405180910390fd5b61148483838361305b565b505050565b66071afd498d0000341461149c57600080fd5b600860135410156114ac57600080fd5b60126000815480929190600101919050555060006019600060125481526020019081526020016000209050600281600001819055506040518060600160405280600163ffffffff168152602001600115158152602001600162ffffff168152508160010160008201518160000160006101000a81548163ffffffff021916908363ffffffff16021790555060208201518160000160046101000a81548160ff02191690831515021790555060408201518160000160056101000a81548162ffffff021916908362ffffff1602179055509050506040518060400160405280600115158152602001600162ffffff168152508160020160008201518160000160006101000a81548160ff02191690831515021790555060208201518160000160016101000a81548162ffffff021916908362ffffff1602179055509050506040518060800160405280600160ff168152602001600160ff168152602001600160ff168152602001600162ffffff1681525081600301600080815260200190815260200160002060008201518160000160006101000a81548160ff021916908360ff16021790555060208201518160000160016101000a81548160ff021916908360ff16021790555060408201518160000160026101000a81548160ff021916908360ff16021790555060608201518160000160036101000a81548162ffffff021916908362ffffff1602179055509050506116d2600860135461307f90919063ffffffff16565b6013819055506116e4336012546130c9565b61175466071afd498d0000611730601460009054906101000a900473ffffffffffffffffffffffffffffffffffffffff1673ffffffffffffffffffffffffffffffffffffffff166130ea565b73ffffffffffffffffffffffffffffffffffffffff166130f490919063ffffffff16565b60006117656000600260185461322e565b90507fde943e32fd65498630e5644176185884dd5c05112d2e96be2315156ceedebf22338285601654604051808573ffffffffffffffffffffffffffffffffffffffff1673ffffffffffffffffffffffffffffffffffffffff1681526020018481526020018361ffff16815260200182815260200194505050505060405180910390a182601a600083815260200190815260200160002060006101000a81548161ffff021916908361ffff16021790555033601b600083815260200190815260200160002060006101000a81548173ffffffffffffffffffffffffffffffffffffffff021916908373ffffffffffffffffffffffffffffffffffffffff160217905550601254601c600083815260200190815260200160002081905550505050565b6118c6828260006040519080825280601f01601f1916602001820160405280156118c05781602001600182028038833980820191505090505b50611989565b5050565b60006118d583611da7565b821061192c576040517f08c379a000000000000000000000000000000000000000000000000000000000815260040180806020018281038252602b815260200180616437602b913960400191505060405180910390fd5b600560008473ffffffffffffffffffffffffffffffffffffffff1673ffffffffffffffffffffffffffffffffffffffff168152602001908152602001600020828154811061197657fe5b9060005260206000200154905092915050565b6119916137c9565b73ffffffffffffffffffffffffffffffffffffffff163373ffffffffffffffffffffffffffffffffffffffff16146119c857600080fd5b6000601a600085815260200190815260200160002060009054906101000a900461ffff1690506000601b600086815260200190815260200160002060009054906101000a900473ffffffffffffffffffffffffffffffffffffffff1690506000601c600087815260200190815260200160002054905060008361ffff1660001b6001430340876040516020018082805190602001908083835b60208310611a845780518252602082019150602081019050602083039250611a61565b6001836020036101000a03801982511681845116808217855250505050505090500191505060405160208183030381529060405280519060200120181860001c9050611adb61ffff82613ae990919063ffffffff16565b601d600084815260200190815260200160002081905550611afc8383613b33565b601a600088815260200190815260200160002060006101000a81549061ffff0219169055601b600088815260200190815260200160002060006101000a81549073ffffffffffffffffffffffffffffffffffffffff0219169055601c60008881526020019081526020016000206000905550505050505050565b611b9183838360405180602001604052806000815250612337565b505050565b60135481565b6000611ba6611406565b8210611bfd576040517f08c379a000000000000000000000000000000000000000000000000000000000815260040180806020018281038252602c81526020018061667f602c913960400191505060405180910390fd5b60078281548110611c0a57fe5b90600052602060002001549050919050565b601a6020528060005260406000206000915054906101000a900461ffff1681565b6000806001600084815260200190815260200160002060009054906101000a900473ffffffffffffffffffffffffffffffffffffffff169050600073ffffffffffffffffffffffffffffffffffffffff168173ffffffffffffffffffffffffffffffffffffffff161415611cfc576040517f08c379a00000000000000000000000000000000000000000000000000000000081526004018080602001828103825260298152602001806165806029913960400191505060405180910390fd5b80915050919050565b6060600b8054600181600116156101000203166002900480601f016020809104026020016040519081016040528092919081815260200182805460018160011615610100020316600290048015611d9d5780601f10611d7257610100808354040283529160200191611d9d565b820191906000526020600020905b815481529060010190602001808311611d8057829003601f168201915b5050505050905090565b60008073ffffffffffffffffffffffffffffffffffffffff168273ffffffffffffffffffffffffffffffffffffffff161415611e2e576040517f08c379a000000000000000000000000000000000000000000000000000000000815260040180806020018281038252602a815260200180616556602a913960400191505060405180910390fd5b611e75600360008473ffffffffffffffffffffffffffffffffffffffff1673ffffffffffffffffffffffffffffffffffffffff168152602001908152602001600020613b51565b9050919050565b601460009054906101000a900473ffffffffffffffffffffffffffffffffffffffff1681565b60125481565b601d6020528060005260406000206000915090505481565b600080600080600080611ed1616260565b611ed9616260565b611ee1616260565b611ee9616283565b6000601960008d8152602001908152602001600020905080600001549a508060010160000160009054906101000a900463ffffffff1699508060010160000160049054906101000a900460ff1698508060010160000160059054906101000a900462ffffff1697508060020160000160009054906101000a900460ff1696508060020160000160019054906101000a900462ffffff16955060008090505b60088110156120ce57611f986162a6565b8260030160008381526020019081526020016000206040518060800160405290816000820160009054906101000a900460ff1660ff1660ff1681526020016000820160019054906101000a900460ff1660ff1660ff1681526020016000820160029054906101000a900460ff1660ff1660ff1681526020016000820160039054906101000a900462ffffff1662ffffff1662ffffff16815250509050806000015187836008811061204557fe5b602002019060ff16908160ff1681525050806020015186836008811061206757fe5b602002019060ff16908160ff1681525050806040015185836008811061208957fe5b602002019060ff16908160ff168152505080606001518483600881106120ab57fe5b602002019062ffffff16908162ffffff1681525050508080600101915050611f87565b50509193959799509193959799565b6060600a8054600181600116156101000203166002900480601f0160208091040260200160405190810160405280929190818152602001828054600181600116156101000203166002900480156121755780601f1061214a57610100808354040283529160200191612175565b820191906000526020600020905b81548152906001019060200180831161215857829003601f168201915b5050505050905090565b612187612f5f565b73ffffffffffffffffffffffffffffffffffffffff168273ffffffffffffffffffffffffffffffffffffffff161415612228576040517f08c379a00000000000000000000000000000000000000000000000000000000081526004018080602001828103825260198152602001807f4552433732313a20617070726f766520746f2063616c6c65720000000000000081525060200191505060405180910390fd5b8060046000612235612f5f565b73ffffffffffffffffffffffffffffffffffffffff1673ffffffffffffffffffffffffffffffffffffffff16815260200190815260200160002060008473ffffffffffffffffffffffffffffffffffffffff1673ffffffffffffffffffffffffffffffffffffffff16815260200190815260200160002060006101000a81548160ff0219169083151502179055508173ffffffffffffffffffffffffffffffffffffffff166122e2612f5f565b73ffffffffffffffffffffffffffffffffffffffff167f17307eab39ab6107e8899845ad3d59bd9653f200f220920489ca2b5937696c3183604051808215151515815260200191505060405180910390a35050565b612348612342612f5f565b83612f67565b61239d576040517f08c379a000000000000000000000000000000000000000000000000000000000815260040180806020018281038252603181526020018061664e6031913960400191505060405180910390fd5b6123a984848484613b5f565b50505050565b60606123ba82612eed565b61240f576040517f08c379a000000000000000000000000000000000000000000000000000000000815260040180806020018281038252602f8152602001806165fe602f913960400191505060405180910390fd5b6060600c60008481526020019081526020016000208054600181600116156101000203166002900480601f0160208091040260200160405190810160405280929190818152602001828054600181600116156101000203166002900480156124b85780601f1061248d576101008083540402835291602001916124b8565b820191906000526020600020905b81548152906001019060200180831161249b57829003601f168201915b505050505090506000815114156124e157604051806020016040528060008152509150506125ac565b600b8160405160200180838054600181600116156101000203166002900480156125425780601f10612520576101008083540402835291820191612542565b820191906000526020600020905b81548152906001019060200180831161252e575b505082805190602001908083835b602083106125735780518252602082019150602081019050602083039250612550565b6001836020036101000a038019825116818451168082178552505050505050905001925050506040516020818303038152906040529150505b919050565b66071afd498d000034146125c457600080fd5b6000601354116125d357600080fd5b3373ffffffffffffffffffffffffffffffffffffffff166125f383611c3d565b73ffffffffffffffffffffffffffffffffffffffff161461261357600080fd5b3373ffffffffffffffffffffffffffffffffffffffff1661263382611c3d565b73ffffffffffffffffffffffffffffffffffffffff161461265357600080fd5b60126000815480929190600101919050555060006019600060125481526020019081526020016000209050600281600001819055506040518060600160405280600163ffffffff168152602001600115158152602001600162ffffff168152508160010160008201518160000160006101000a81548163ffffffff021916908363ffffffff16021790555060208201518160000160046101000a81548160ff02191690831515021790555060408201518160000160056101000a81548162ffffff021916908362ffffff1602179055509050506040518060400160405280600115158152602001600162ffffff168152508160020160008201518160000160006101000a81548160ff02191690831515021790555060208201518160000160016101000a81548162ffffff021916908362ffffff1602179055509050506040518060800160405280600160ff168152602001600160ff168152602001600160ff168152602001600162ffffff1681525081600301600080815260200190815260200160002060008201518160000160006101000a81548160ff021916908360ff16021790555060208201518160000160016101000a81548160ff021916908360ff16021790555060408201518160000160026101000a81548160ff021916908360ff16021790555060608201518160000160036101000a81548162ffffff021916908362ffffff16021790555090505061286f336012546130c9565b61287883613bd1565b61288182613bd1565b6128f166071afd498d00006128cd601460009054906101000a900473ffffffffffffffffffffffffffffffffffffffff1673ffffffffffffffffffffffffffffffffffffffff166130ea565b73ffffffffffffffffffffffffffffffffffffffff166130f490919063ffffffff16565b505050565b66071afd498d0000341461290957600080fd5b60006013541161291857600080fd5b3373ffffffffffffffffffffffffffffffffffffffff1661293882611c3d565b73ffffffffffffffffffffffffffffffffffffffff161461295857600080fd5b60126000815480929190600101919050555060006019600060125481526020019081526020016000209050600281600001819055506040518060600160405280600163ffffffff168152602001600115158152602001600162ffffff168152508160010160008201518160000160006101000a81548163ffffffff021916908363ffffffff16021790555060208201518160000160046101000a81548160ff02191690831515021790555060408201518160000160056101000a81548162ffffff021916908362ffffff1602179055509050506040518060400160405280600115158152602001600162ffffff168152508160020160008201518160000160006101000a81548160ff02191690831515021790555060208201518160000160016101000a81548162ffffff021916908362ffffff1602179055509050506040518060800160405280600160ff168152602001600160ff168152602001600160ff168152602001600162ffffff1681525081600301600080815260200190815260200160002060008201518160000160006101000a81548160ff021916908360ff16021790555060208201518160000160016101000a81548160ff021916908360ff16021790555060408201518160000160026101000a81548160ff021916908360ff16021790555060608201518160000160036101000a81548162ffffff021916908362ffffff160217905550905050612b74336012546130c9565b60126000815480929190600101919050555060006019600060125481526020019081526020016000209050600281600001819055506040518060600160405280600163ffffffff168152602001600115158152602001600162ffffff168152508160010160008201518160000160006101000a81548163ffffffff021916908363ffffffff16021790555060208201518160000160046101000a81548160ff02191690831515021790555060408201518160000160056101000a81548162ffffff021916908362ffffff1602179055509050506040518060400160405280600115158152602001600162ffffff168152508160020160008201518160000160006101000a81548160ff02191690831515021790555060208201518160000160016101000a81548162ffffff021916908362ffffff1602179055509050506040518060800160405280600160ff168152602001600160ff168152602001600160ff168152602001600162ffffff1681525081600301600080815260200190815260200160002060008201518160000160006101000a81548160ff021916908360ff16021790555060208201518160000160016101000a81548160ff021916908360ff16021790555060408201518160000160026101000a81548160ff021916908360ff16021790555060608201518160000160036101000a81548162ffffff021916908362ffffff160217905550905050612d90336012546130c9565b612d9983613bd1565b612e0966071afd498d0000612de5601460009054906101000a900473ffffffffffffffffffffffffffffffffffffffff1673ffffffffffffffffffffffffffffffffffffffff166130ea565b73ffffffffffffffffffffffffffffffffffffffff166130f490919063ffffffff16565b505050565b6000600460008473ffffffffffffffffffffffffffffffffffffffff1673ffffffffffffffffffffffffffffffffffffffff16815260200190815260200160002060008373ffffffffffffffffffffffffffffffffffffffff1673ffffffffffffffffffffffffffffffffffffffff16815260200190815260200160002060009054906101000a900460ff16905092915050565b601b6020528060005260406000206000915054906101000a900473ffffffffffffffffffffffffffffffffffffffff1681565b601c6020528060005260406000206000915090505481565b6000806001600084815260200190815260200160002060009054906101000a900473ffffffffffffffffffffffffffffffffffffffff169050600073ffffffffffffffffffffffffffffffffffffffff168173ffffffffffffffffffffffffffffffffffffffff161415915050919050565b600033905090565b6000612f7282612eed565b612fc7576040517f08c379a000000000000000000000000000000000000000000000000000000000815260040180806020018281038252602c8152602001806164f2602c913960400191505060405180910390fd5b6000612fd283611c3d565b90508073ffffffffffffffffffffffffffffffffffffffff168473ffffffffffffffffffffffffffffffffffffffff16148061304157508373ffffffffffffffffffffffffffffffffffffffff1661302984611184565b73ffffffffffffffffffffffffffffffffffffffff16145b8061305257506130518185612e0e565b5b91505092915050565b613066838383613be6565b6130708382613e41565b61307a8282613fdf565b505050565b60006130c183836040518060400160405280601e81526020017f536166654d6174683a207375627472616374696f6e206f766572666c6f7700008152506140a6565b905092915050565b6130d38282614166565b6130dd8282613fdf565b6130e68161437e565b5050565b6000819050919050565b8047101561316a576040517f08c379a000000000000000000000000000000000000000000000000000000000815260040180806020018281038252601d8152602001807f416464726573733a20696e73756666696369656e742062616c616e636500000081525060200191505060405180910390fd5b60008273ffffffffffffffffffffffffffffffffffffffff168260405180600001905060006040518083038185875af1925050503d80600081146131ca576040519150601f19603f3d011682016040523d82523d6000602084013e6131cf565b606091505b5050905080613229576040517f08c379a000000000000000000000000000000000000000000000000000000000815260040180806020018281038252603a8152602001806164b8603a913960400191505060405180910390fd5b505050565b60008083118015613240575060208311155b61324957600080fd5b600a84029350606060016040519080825280601f01601f1916602001820160405280156132855781602001600182028038833980820191505090505b5090508360f81b8160008151811061329957fe5b60200101907effffffffffffffffffffffffffffffffffffffffffffffffffffffffffffff1916908160001a905350606060206040519080825280601f01601f1916602001820160405280156132fe5781602001600182028038833980820191505090505b509050606060206040519080825280601f01601f1916602001820160405280156133375781602001600182028038833980820191505090505b50905060006133446143ca565b905060208352424118600143034018602084015260208252806020830152606060206040519080825280601f01601f1916602001820160405280156133985781602001600182028038833980820191505090505b509050886020820152606060086040519080825280601f01601f1916602001820160405280156133d75781602001600182028038833980820191505090505b5090506133ea82601860088460006146ea565b506133f36162dc565b604051806080016040528087815260200188815260200186815260200184815250905060006134586040518060400160405280600681526020017f72616e646f6d0000000000000000000000000000000000000000000000000000815250838c614749565b9050606060086040519080825280601f01601f1916602001820160405280156134905781602001600182028038833980820191505090505b50905060208401517f0100000000000000000000000000000000000000000000000000000000000000810460278301537e01000000000000000000000000000000000000000000000000000000000000810460268301537d010000000000000000000000000000000000000000000000000000000000810460258301537c0100000000000000000000000000000000000000000000000000000000810460248301537b01000000000000000000000000000000000000000000000000000000810460238301537a0100000000000000000000000000000000000000000000000000008104602283015379010000000000000000000000000000000000000000000000000081046021830153780100000000000000000000000000000000000000000000000081046020830153506137b68282856001600481106135cf57fe5b60200201516002876000600481106135e357fe5b60200201516040518082805190602001908083835b6020831061361b57805182526020820191506020810190506020830392506135f8565b6001836020036101000a038019825116818451168082178552505050505050905001915050602060405180830381855afa15801561365d573d6000803e3d6000fd5b5050506040513d602081101561367257600080fd5b81019080805190602001909291905050508760026004811061369057fe5b60200201516040516020018085805190602001908083835b602083106136cb57805182526020820191506020810190506020830392506136a8565b6001836020036101000a03801982511681845116808217855250505050505090500184805190602001908083835b6020831061371c57805182526020820191506020810190506020830392506136f9565b6001836020036101000a03801982511681845116808217855250505050505090500183815260200182805190602001908083835b602083106137735780518252602082019150602081019050602083039250613750565b6001836020036101000a03801982511681845116808217855250505050505090500194505050505060405160208183030381529060405280519060200120614ab8565b8199505050505050505050509392505050565b60008073ffffffffffffffffffffffffffffffffffffffff16600e60009054906101000a900473ffffffffffffffffffffffffffffffffffffffff1673ffffffffffffffffffffffffffffffffffffffff1614806138515750600061384f600e60009054906101000a900473ffffffffffffffffffffffffffffffffffffffff16614ad4565b145b15613862576138606000614adf565b505b600e60009054906101000a900473ffffffffffffffffffffffffffffffffffffffff1673ffffffffffffffffffffffffffffffffffffffff166338cc48316040518163ffffffff1660e01b8152600401602060405180830381600087803b1580156138cc57600080fd5b505af11580156138e0573d6000803e3d6000fd5b505050506040513d60208110156138f657600080fd5b810190808051906020019092919050505073ffffffffffffffffffffffffffffffffffffffff16600d60009054906101000a900473ffffffffffffffffffffffffffffffffffffffff1673ffffffffffffffffffffffffffffffffffffffff1614613a4157600e60009054906101000a900473ffffffffffffffffffffffffffffffffffffffff1673ffffffffffffffffffffffffffffffffffffffff166338cc48316040518163ffffffff1660e01b8152600401602060405180830381600087803b1580156139c557600080fd5b505af11580156139d9573d6000803e3d6000fd5b505050506040513d60208110156139ef57600080fd5b8101908080519060200190929190505050600d60006101000a81548173ffffffffffffffffffffffffffffffffffffffff021916908373ffffffffffffffffffffffffffffffffffffffff1602179055505b600d60009054906101000a900473ffffffffffffffffffffffffffffffffffffffff1673ffffffffffffffffffffffffffffffffffffffff1663c281d19e6040518163ffffffff1660e01b815260040160206040518083038186803b158015613aa957600080fd5b505afa158015613abd573d6000803e3d6000fd5b505050506040513d6020811015613ad357600080fd5b8101908080519060200190929190505050905090565b6000613b2b83836040518060400160405280601881526020017f536166654d6174683a206d6f64756c6f206279207a65726f0000000000000000815250614af0565b905092915050565b613b4d828260405180602001604052806000815250614bb1565b5050565b600081600001549050919050565b613b6a84848461305b565b613b7684848484614c22565b613bcb576040517f08c379a00000000000000000000000000000000000000000000000000000000081526004018080602001828103825260328152602001806164626032913960400191505060405180910390fd5b50505050565b613be3613bdd82611c3d565b82614f5e565b50565b8273ffffffffffffffffffffffffffffffffffffffff16613c0682611c3d565b73ffffffffffffffffffffffffffffffffffffffff1614613c72576040517f08c379a00000000000000000000000000000000000000000000000000000000081526004018080602001828103825260298152602001806165d56029913960400191505060405180910390fd5b600073ffffffffffffffffffffffffffffffffffffffff168273ffffffffffffffffffffffffffffffffffffffff161415613cf8576040517f08c379a00000000000000000000000000000000000000000000000000000000081526004018080602001828103825260248152602001806164946024913960400191505060405180910390fd5b613d0181614fbb565b613d48600360008573ffffffffffffffffffffffffffffffffffffffff1673ffffffffffffffffffffffffffffffffffffffff168152602001908152602001600020615079565b613d8f600360008473ffffffffffffffffffffffffffffffffffffffff1673ffffffffffffffffffffffffffffffffffffffff16815260200190815260200160002061509c565b816001600083815260200190815260200160002060006101000a81548173ffffffffffffffffffffffffffffffffffffffff021916908373ffffffffffffffffffffffffffffffffffffffff160217905550808273ffffffffffffffffffffffffffffffffffffffff168473ffffffffffffffffffffffffffffffffffffffff167fddf252ad1be2c89b69c2b068fc378daa952ba7f163c4a11628f55a4df523b3ef60405160405180910390a4505050565b6000613e996001600560008673ffffffffffffffffffffffffffffffffffffffff1673ffffffffffffffffffffffffffffffffffffffff1681526020019081526020016000208054905061307f90919063ffffffff16565b9050600060066000848152602001908152602001600020549050818114613f86576000600560008673ffffffffffffffffffffffffffffffffffffffff1673ffffffffffffffffffffffffffffffffffffffff1681526020019081526020016000208381548110613f0657fe5b9060005260206000200154905080600560008773ffffffffffffffffffffffffffffffffffffffff1673ffffffffffffffffffffffffffffffffffffffff1681526020019081526020016000208381548110613f5e57fe5b9060005260206000200181905550816006600083815260200190815260200160002081905550505b600560008573ffffffffffffffffffffffffffffffffffffffff1673ffffffffffffffffffffffffffffffffffffffff168152602001908152602001600020805480919060019003613fd89190616303565b5050505050565b600560008373ffffffffffffffffffffffffffffffffffffffff1673ffffffffffffffffffffffffffffffffffffffff168152602001908152602001600020805490506006600083815260200190815260200160002081905550600560008373ffffffffffffffffffffffffffffffffffffffff1673ffffffffffffffffffffffffffffffffffffffff1681526020019081526020016000208190806001815401808255809150509060018203906000526020600020016000909192909190915055505050565b6000838311158290614153576040517f08c379a00000000000000000000000000000000000000000000000000000000081526004018080602001828103825283818151815260200191508051906020019080838360005b838110156141185780820151818401526020810190506140fd565b50505050905090810190601f1680156141455780820380516001836020036101000a031916815260200191505b509250505060405180910390fd5b5060008385039050809150509392505050565b600073ffffffffffffffffffffffffffffffffffffffff168273ffffffffffffffffffffffffffffffffffffffff161415614209576040517f08c379a00000000000000000000000000000000000000000000000000000000081526004018080602001828103825260208152602001807f4552433732313a206d696e7420746f20746865207a65726f206164647265737381525060200191505060405180910390fd5b61421281612eed565b15614285576040517f08c379a000000000000000000000000000000000000000000000000000000000815260040180806020018281038252601c8152602001807f4552433732313a20746f6b656e20616c7265616479206d696e7465640000000081525060200191505060405180910390fd5b816001600083815260200190815260200160002060006101000a81548173ffffffffffffffffffffffffffffffffffffffff021916908373ffffffffffffffffffffffffffffffffffffffff16021790555061431e600360008473ffffffffffffffffffffffffffffffffffffffff1673ffffffffffffffffffffffffffffffffffffffff16815260200190815260200160002061509c565b808273ffffffffffffffffffffffffffffffffffffffff16600073ffffffffffffffffffffffffffffffffffffffff167fddf252ad1be2c89b69c2b068fc378daa952ba7f163c4a11628f55a4df523b3ef60405160405180910390a45050565b6007805490506008600083815260200190815260200160002081905550600781908060018154018082558091505090600182039060005260206000200160009091929091909150555050565b60008073ffffffffffffffffffffffffffffffffffffffff16600e60009054906101000a900473ffffffffffffffffffffffffffffffffffffffff1673ffffffffffffffffffffffffffffffffffffffff16148061445257506000614450600e60009054906101000a900473ffffffffffffffffffffffffffffffffffffffff16614ad4565b145b15614463576144616000614adf565b505b600e60009054906101000a900473ffffffffffffffffffffffffffffffffffffffff1673ffffffffffffffffffffffffffffffffffffffff166338cc48316040518163ffffffff1660e01b8152600401602060405180830381600087803b1580156144cd57600080fd5b505af11580156144e1573d6000803e3d6000fd5b505050506040513d60208110156144f757600080fd5b810190808051906020019092919050505073ffffffffffffffffffffffffffffffffffffffff16600d60009054906101000a900473ffffffffffffffffffffffffffffffffffffffff1673ffffffffffffffffffffffffffffffffffffffff161461464257600e60009054906101000a900473ffffffffffffffffffffffffffffffffffffffff1673ffffffffffffffffffffffffffffffffffffffff166338cc48316040518163ffffffff1660e01b8152600401602060405180830381600087803b1580156145c657600080fd5b505af11580156145da573d6000803e3d6000fd5b505050506040513d60208110156145f057600080fd5b8101908080519060200190929190505050600d60006101000a81548173ffffffffffffffffffffffffffffffffffffffff021916908373ffffffffffffffffffffffffffffffffffffffff1602179055505b600d60009054906101000a900473ffffffffffffffffffffffffffffffffffffffff1673ffffffffffffffffffffffffffffffffffffffff1663abaa5f3e6040518163ffffffff1660e01b815260040160206040518083038186803b1580156146aa57600080fd5b505afa1580156146be573d6000803e3d6000fd5b505050506040513d60208110156146d457600080fd5b8101908080519060200190929190505050905090565b606060008285019050808451101561470157600080fd5b600086602001905060008460200190505b86886020010182101561473a5781890151808288015250602082019150602081019050614712565b85935050505095945050505050565b60008073ffffffffffffffffffffffffffffffffffffffff16600e60009054906101000a900473ffffffffffffffffffffffffffffffffffffffff1673ffffffffffffffffffffffffffffffffffffffff1614806147d1575060006147cf600e60009054906101000a900473ffffffffffffffffffffffffffffffffffffffff16614ad4565b145b156147e2576147e06000614adf565b505b600e60009054906101000a900473ffffffffffffffffffffffffffffffffffffffff1673ffffffffffffffffffffffffffffffffffffffff166338cc48316040518163ffffffff1660e01b8152600401602060405180830381600087803b15801561484c57600080fd5b505af1158015614860573d6000803e3d6000fd5b505050506040513d602081101561487657600080fd5b810190808051906020019092919050505073ffffffffffffffffffffffffffffffffffffffff16600d60009054906101000a900473ffffffffffffffffffffffffffffffffffffffff1673ffffffffffffffffffffffffffffffffffffffff16146149c157600e60009054906101000a900473ffffffffffffffffffffffffffffffffffffffff1673ffffffffffffffffffffffffffffffffffffffff166338cc48316040518163ffffffff1660e01b8152600401602060405180830381600087803b15801561494557600080fd5b505af1158015614959573d6000803e3d6000fd5b505050506040513d602081101561496f57600080fd5b8101908080519060200190929190505050600d60006101000a81548173ffffffffffffffffffffffffffffffffffffffff021916908373ffffffffffffffffffffffffffffffffffffffff1602179055505b606060046040519080825280602002602001820160405280156149f857816020015b60608152602001906001900390816149e35790505b50905083600060048110614a0857fe5b602002015181600081518110614a1a57fe5b602002602001018190525083600160048110614a3257fe5b602002015181600181518110614a4457fe5b602002602001018190525083600260048110614a5c57fe5b602002015181600281518110614a6e57fe5b602002602001018190525083600360048110614a8657fe5b602002015181600381518110614a9857fe5b6020026020010181905250614aae8582856150b2565b9150509392505050565b8060106000848152602001908152602001600020819055505050565b6000813b9050919050565b6000614ae9615618565b9050919050565b6000808314158290614b9d576040517f08c379a00000000000000000000000000000000000000000000000000000000081526004018080602001828103825283818151815260200191508051906020019080838360005b83811015614b62578082015181840152602081019050614b47565b50505050905090810190601f168015614b8f5780820380516001836020036101000a031916815260200191505b509250505060405180910390fd5b50828481614ba757fe5b0690509392505050565b614bbb83836130c9565b614bc86000848484614c22565b614c1d576040517f08c379a00000000000000000000000000000000000000000000000000000000081526004018080602001828103825260328152602001806164626032913960400191505060405180910390fd5b505050565b6000614c438473ffffffffffffffffffffffffffffffffffffffff16615b6f565b614c505760019050614f56565b600060608573ffffffffffffffffffffffffffffffffffffffff168673ffffffffffffffffffffffffffffffffffffffff1663150b7a02905060e01b614c94612f5f565b898888604051602401808573ffffffffffffffffffffffffffffffffffffffff1673ffffffffffffffffffffffffffffffffffffffff1681526020018473ffffffffffffffffffffffffffffffffffffffff1673ffffffffffffffffffffffffffffffffffffffff16815260200183815260200180602001828103825283818151815260200191508051906020019080838360005b83811015614d44578082015181840152602081019050614d29565b50505050905090810190601f168015614d715780820380516001836020036101000a031916815260200191505b5095505050505050604051602081830303815290604052907bffffffffffffffffffffffffffffffffffffffffffffffffffffffff19166020820180517bffffffffffffffffffffffffffffffffffffffffffffffffffffffff83818316178352505050506040518082805190602001908083835b60208310614e095780518252602082019150602081019050602083039250614de6565b6001836020036101000a0380198251168184511680821785525050505050509050019150506000604051808303816000865af19150503d8060008114614e6b576040519150601f19603f3d011682016040523d82523d6000602084013e614e70565b606091505b509150915081614ede57600081511115614e8d5780518082602001fd5b6040517f08c379a00000000000000000000000000000000000000000000000000000000081526004018080602001828103825260328152602001806164626032913960400191505060405180910390fd5b6000818060200190516020811015614ef557600080fd5b8101908080519060200190929190505050905063150b7a0260e01b7bffffffffffffffffffffffffffffffffffffffffffffffffffffffff1916817bffffffffffffffffffffffffffffffffffffffffffffffffffffffff19161493505050505b949350505050565b614f688282615bba565b6000600c600083815260200190815260200160002080546001816001161561010002031660029004905014614fb757600c60008281526020019081526020016000206000614fb6919061632f565b5b5050565b600073ffffffffffffffffffffffffffffffffffffffff166002600083815260200190815260200160002060009054906101000a900473ffffffffffffffffffffffffffffffffffffffff1673ffffffffffffffffffffffffffffffffffffffff16146150765760006002600083815260200190815260200160002060006101000a81548173ffffffffffffffffffffffffffffffffffffffff021916908373ffffffffffffffffffffffffffffffffffffffff1602179055505b50565b6150916001826000015461307f90919063ffffffff16565b816000018190555050565b6001816000016000828254019250508190555050565b60008073ffffffffffffffffffffffffffffffffffffffff16600e60009054906101000a900473ffffffffffffffffffffffffffffffffffffffff1673ffffffffffffffffffffffffffffffffffffffff16148061513a57506000615138600e60009054906101000a900473ffffffffffffffffffffffffffffffffffffffff16614ad4565b145b1561514b576151496000614adf565b505b600e60009054906101000a900473ffffffffffffffffffffffffffffffffffffffff1673ffffffffffffffffffffffffffffffffffffffff166338cc48316040518163ffffffff1660e01b8152600401602060405180830381600087803b1580156151b557600080fd5b505af11580156151c9573d6000803e3d6000fd5b505050506040513d60208110156151df57600080fd5b810190808051906020019092919050505073ffffffffffffffffffffffffffffffffffffffff16600d60009054906101000a900473ffffffffffffffffffffffffffffffffffffffff1673ffffffffffffffffffffffffffffffffffffffff161461532a57600e60009054906101000a900473ffffffffffffffffffffffffffffffffffffffff1673ffffffffffffffffffffffffffffffffffffffff166338cc48316040518163ffffffff1660e01b8152600401602060405180830381600087803b1580156152ae57600080fd5b505af11580156152c2573d6000803e3d6000fd5b505050506040513d60208110156152d857600080fd5b8101908080519060200190929190505050600d60006101000a81548173ffffffffffffffffffffffffffffffffffffffff021916908373ffffffffffffffffffffffffffffffffffffffff1602179055505b6000600d60009054906101000a900473ffffffffffffffffffffffffffffffffffffffff1673ffffffffffffffffffffffffffffffffffffffff16632ef3accc86856040518363ffffffff1660e01b81526004018080602001838152602001828103825284818151815260200191508051906020019080838360005b838110156153c15780820151818401526020810190506153a6565b50505050905090810190601f1680156153ee5780820380516001836020036101000a031916815260200191505b509350505050602060405180830381600087803b15801561540e57600080fd5b505af1158015615422573d6000803e3d6000fd5b505050506040513d602081101561543857600080fd5b81019080805190602001909291905050509050823a02670de0b6b3a76400000181111561546b576000801b915050615611565b606061547685615bf4565b9050600d60009054906101000a900473ffffffffffffffffffffffffffffffffffffffff1673ffffffffffffffffffffffffffffffffffffffff1663c55c1cb68360008985896040518663ffffffff1660e01b8152600401808581526020018060200180602001848152602001838103835286818151815260200191508051906020019080838360005b8381101561551b578082015181840152602081019050615500565b50505050905090810190601f1680156155485780820380516001836020036101000a031916815260200191505b50838103825285818151815260200191508051906020019080838360005b83811015615581578082015181840152602081019050615566565b50505050905090810190601f1680156155ae5780820380516001836020036101000a031916815260200191505b5096505050505050506020604051808303818588803b1580156155d057600080fd5b505af11580156155e4573d6000803e3d6000fd5b50505050506040513d60208110156155fb57600080fd5b8101908080519060200190929190505050925050505b9392505050565b600080615638731d3b2638a7cc9f2cb3d298a3da7a90b67e5506ed614ad4565b11156156da57731d3b2638a7cc9f2cb3d298a3da7a90b67e5506ed600e60006101000a81548173ffffffffffffffffffffffffffffffffffffffff021916908373ffffffffffffffffffffffffffffffffffffffff1602179055506156d16040518060400160405280600b81526020017f6574685f6d61696e6e6574000000000000000000000000000000000000000000815250615c74565b60019050615b6c565b60006156f973c03a2615d5efaf5f49f60b7bb6583eaec212fdf1614ad4565b111561579b5773c03a2615d5efaf5f49f60b7bb6583eaec212fdf1600e60006101000a81548173ffffffffffffffffffffffffffffffffffffffff021916908373ffffffffffffffffffffffffffffffffffffffff1602179055506157926040518060400160405280600c81526020017f6574685f726f707374656e330000000000000000000000000000000000000000815250615c74565b60019050615b6c565b60006157ba73b7a07bcf2ba2f2703b24c0691b5278999c59ac7e614ad4565b111561585c5773b7a07bcf2ba2f2703b24c0691b5278999c59ac7e600e60006101000a81548173ffffffffffffffffffffffffffffffffffffffff021916908373ffffffffffffffffffffffffffffffffffffffff1602179055506158536040518060400160405280600981526020017f6574685f6b6f76616e0000000000000000000000000000000000000000000000815250615c74565b60019050615b6c565b600061587b73146500cfd35b22e4a392fe0adc06de1a1368ed48614ad4565b111561591d5773146500cfd35b22e4a392fe0adc06de1a1368ed48600e60006101000a81548173ffffffffffffffffffffffffffffffffffffffff021916908373ffffffffffffffffffffffffffffffffffffffff1602179055506159146040518060400160405280600b81526020017f6574685f72696e6b656279000000000000000000000000000000000000000000815250615c74565b60019050615b6c565b600061593c73a2998efd205fb9d4b4963afb70778d6354ad3a41614ad4565b11156159de5773a2998efd205fb9d4b4963afb70778d6354ad3a41600e60006101000a81548173ffffffffffffffffffffffffffffffffffffffff021916908373ffffffffffffffffffffffffffffffffffffffff1602179055506159d56040518060400160405280600a81526020017f6574685f676f65726c6900000000000000000000000000000000000000000000815250615c74565b60019050615b6c565b60006159fd736f485c8bf6fc43ea212e93bbf8ce046c7f1cb475614ad4565b1115615a6157736f485c8bf6fc43ea212e93bbf8ce046c7f1cb475600e60006101000a81548173ffffffffffffffffffffffffffffffffffffffff021916908373ffffffffffffffffffffffffffffffffffffffff16021790555060019050615b6c565b6000615a807320e12a1f859b3feae5fb2a0a32c18f5a65555bbf614ad4565b1115615ae4577320e12a1f859b3feae5fb2a0a32c18f5a65555bbf600e60006101000a81548173ffffffffffffffffffffffffffffffffffffffff021916908373ffffffffffffffffffffffffffffffffffffffff16021790555060019050615b6c565b6000615b037351efaf4c8b3c9afbd5ab9f4bbc82784ab6ef8faa614ad4565b1115615b67577351efaf4c8b3c9afbd5ab9f4bbc82784ab6ef8faa600e60006101000a81548173ffffffffffffffffffffffffffffffffffffffff021916908373ffffffffffffffffffffffffffffffffffffffff16021790555060019050615b6c565b600090505b90565b60008060007fc5d2460186f7233c927e7db2dcc703c0e500b653ca82273b7bfad8045d85a47060001b9050833f9150808214158015615bb157506000801b8214155b92505050919050565b615bc48282615c8e565b615bce8282613e41565b60006006600083815260200190815260200160002081905550615bf081615e1d565b5050565b6060615bfe615ed7565b615c06616377565b615c1281610400615ee3565b615c1b81615f2d565b60008090505b8351811015615c5d57615c50848281518110615c3957fe5b602002602001015183615f3b90919063ffffffff16565b8080600101915050615c21565b50615c6781615f60565b8060000151915050919050565b80600f9080519060200190615c8a929190616391565b5050565b8173ffffffffffffffffffffffffffffffffffffffff16615cae82611c3d565b73ffffffffffffffffffffffffffffffffffffffff1614615d1a576040517f08c379a00000000000000000000000000000000000000000000000000000000081526004018080602001828103825260258152602001806166ab6025913960400191505060405180910390fd5b615d2381614fbb565b615d6a600360008473ffffffffffffffffffffffffffffffffffffffff1673ffffffffffffffffffffffffffffffffffffffff168152602001908152602001600020615079565b60006001600083815260200190815260200160002060006101000a81548173ffffffffffffffffffffffffffffffffffffffff021916908373ffffffffffffffffffffffffffffffffffffffff16021790555080600073ffffffffffffffffffffffffffffffffffffffff168373ffffffffffffffffffffffffffffffffffffffff167fddf252ad1be2c89b69c2b068fc378daa952ba7f163c4a11628f55a4df523b3ef60405160405180910390a45050565b6000615e38600160078054905061307f90919063ffffffff16565b9050600060086000848152602001908152602001600020549050600060078381548110615e6157fe5b906000526020600020015490508060078381548110615e7c57fe5b90600052602060002001819055508160086000838152602001908152602001600020819055506007805480919060019003615eb79190616303565b506000600860008681526020019081526020016000208190555050505050565b60405180590338823950565b6000819050600060208281615ef457fe5b0614615f0d5760208181615f0457fe5b06602003810190505b808360200181815250506040518084526000815281810160405250505050565b615f38816004615f6e565b50565b615f488260028351615f8f565b615f5b81836160cf90919063ffffffff16565b505050565b615f6b816007615f6e565b50565b615f8b601f60058360ff16901b178361617a90919063ffffffff16565b5050565b60178111615fbb57615fb68160058460ff16901b60ff16178461617a90919063ffffffff16565b6160ca565b60ff8111615ffc57615fe0601860058460ff16901b178461617a90919063ffffffff16565b615ff6816001856161ba9092919063ffffffff16565b506160c9565b61ffff811161603e57616022601960058460ff16901b178461617a90919063ffffffff16565b616038816002856161ba9092919063ffffffff16565b506160c8565b63ffffffff811161608257616066601a60058460ff16901b178461617a90919063ffffffff16565b61607c816004856161ba9092919063ffffffff16565b506160c7565b67ffffffffffffffff81116160c6576160ae601b60058460ff16901b178461617a90919063ffffffff16565b6160c4816008856161ba9092919063ffffffff16565b505b5b5b5b5b505050565b6160d7616377565b826020015183600001515183510111156161075761610683600261610086602001518651616221565b0261623d565b5b60008060008451905085518051602081830101945086518101825260208701935050505b6020811061614e578151835260208301925060208201915060208103905061612b565b60006001826020036101000a039050801983511681855116818117865250508694505050505092915050565b816020015160018360000151510111156161a05761619f82600284602001510261623d565b5b815180516020818301018381536001820183525050505050565b6161c2616377565b8360200151846000015151830111156161f0576161ef8460026161e9876020015186616221565b0261623d565b5b60006001836101000a0390508451805184818301018684198251161781528582018352505050849150509392505050565b60008183111561623357829050616237565b8190505b92915050565b6060826000015190506162508383615ee3565b61625a83826160cf565b50505050565b604051806101000160405280600890602082028038833980820191505090505090565b604051806101000160405280600890602082028038833980820191505090505090565b6040518060800160405280600060ff168152602001600060ff168152602001600060ff168152602001600062ffffff1681525090565b60405180608001604052806004905b60608152602001906001900390816162eb5790505090565b81548183558181111561632a578183600052602060002091820191016163299190616411565b5b505050565b50805460018160011615610100020316600290046000825580601f106163555750616374565b601f0160209004906000526020600020908101906163739190616411565b5b50565b604051806040016040528060608152602001600081525090565b828054600181600116156101000203166002900490600052602060002090601f016020900481019282601f106163d257805160ff1916838001178555616400565b82800160010185558215616400579182015b828111156163ff5782518255916020019190600101906163e4565b5b50905061640d9190616411565b5090565b61643391905b8082111561642f576000816000905550600101616417565b5090565b9056fe455243373231456e756d657261626c653a206f776e657220696e646578206f7574206f6620626f756e64734552433732313a207472616e7366657220746f206e6f6e20455243373231526563656976657220696d706c656d656e7465724552433732313a207472616e7366657220746f20746865207a65726f2061646472657373416464726573733a20756e61626c6520746f2073656e642076616c75652c20726563697069656e74206d617920686176652072657665727465644552433732313a206f70657261746f7220717565727920666f72206e6f6e6578697374656e7420746f6b656e4552433732313a20617070726f76652063616c6c6572206973206e6f74206f776e6572206e6f7220617070726f76656420666f7220616c6c4552433732313a2062616c616e636520717565727920666f7220746865207a65726f20616464726573734552433732313a206f776e657220717565727920666f72206e6f6e6578697374656e7420746f6b656e4552433732313a20617070726f76656420717565727920666f72206e6f6e6578697374656e7420746f6b656e4552433732313a207472616e73666572206f6620746f6b656e2074686174206973206e6f74206f776e4552433732314d657461646174613a2055524920717565727920666f72206e6f6e6578697374656e7420746f6b656e4552433732313a20617070726f76616c20746f2063757272656e74206f776e65724552433732313a207472616e736665722063616c6c6572206973206e6f74206f776e6572206e6f7220617070726f766564455243373231456e756d657261626c653a20676c6f62616c20696e646578206f7574206f6620626f756e64734552433732313a206275726e206f6620746f6b656e2074686174206973206e6f74206f776ea265627a7a72315820f989fc5923b374ca46ff8e6d913e65a4a35186b402113605f7ace9e65fa66c2764736f6c63430005100032",
  "source": "pragma solidity ^0.5.0;\r\n\r\nimport \"@openzeppelin/contracts/token/ERC721/ERC721Full.sol\";\r\nimport \"@openzeppelin/contracts/math/SafeMath.sol\";\r\nimport \"./provableAPI_0.5.sol\";\r\n\r\ncontract OwnableDelegateProxy { }\r\n\r\ncontract ProxyRegistry {\r\n    mapping(address => OwnableDelegateProxy) public proxies;\r\n}\r\n\r\nlibrary Random\r\n{\r\n\t/**\r\n\t* Initialize the pool with the entropy of the blockhashes of the blocks in the closed interval [earliestBlock, latestBlock]\r\n\t* The argument \"seed\" is optional and can be left zero in most cases.\r\n\t* This extra seed allows you to select a different sequence of random numbers for the same block range.\r\n\t*/\r\n\tfunction init(uint256 earliestBlock, uint256 latestBlock, uint256 seed) internal view returns (bytes32[] memory) {\r\n\t\t//require(block.number-1 >= latestBlock && latestBlock >= earliestBlock && earliestBlock >= block.number-256, \"Random.init: invalid block interval\");\r\n\t\trequire(block.number-1 >= latestBlock && latestBlock >= earliestBlock, \"Random.init: invalid block interval\");\r\n\t\tbytes32[] memory pool = new bytes32[](latestBlock-earliestBlock+2);\r\n\t\tbytes32 salt = keccak256(abi.encodePacked(block.number,seed));\r\n\t\tfor(uint256 i=0; i<=latestBlock-earliestBlock; i++) {\r\n\t\t\t// Add some salt to each blockhash so that we don't reuse those hash chains\r\n\t\t\t// when this function gets called again in another block.\r\n\t\t\tpool[i+1] = keccak256(abi.encodePacked(blockhash(earliestBlock+i),salt));\r\n\t\t}\r\n\t\treturn pool;\r\n\t}\r\n\t\r\n\t/**\r\n\t* Initialize the pool from the latest \"num\" blocks.\r\n\t*/\r\n\tfunction initLatest(uint256 num, uint256 seed) internal view returns (bytes32[] memory) {\r\n\t\treturn init(block.number-num, block.number-1, seed);\r\n\t}\r\n\t\r\n\t/**\r\n\t* Advances to the next 256-bit random number in the pool of hash chains.\r\n\t*/\r\n\tfunction next(bytes32[] memory pool) internal pure returns (uint256) {\r\n\t\trequire(pool.length > 1, \"Random.next: invalid pool\");\r\n\t\tuint256 roundRobinIdx = uint256(pool[0]) % (pool.length-1) + 1;\r\n\t\tbytes32 hash = keccak256(abi.encodePacked(pool[roundRobinIdx]));\r\n\t\tpool[0] = bytes32(uint256(pool[0])+1);\r\n\t\tpool[roundRobinIdx] = hash;\r\n\t\treturn uint256(hash);\r\n\t}\r\n\t\r\n\t/**\r\n\t* Produces random integer values, uniformly distributed on the closed interval [a, b]\r\n\t*/\r\n\tfunction uniform(bytes32[] memory pool, int256 a, int256 b) internal pure returns (int256) {\r\n\t\trequire(a <= b, \"Random.uniform: invalid interval\");\r\n\t\treturn int256(next(pool)%uint256(b-a+1))+a;\r\n\t}\r\n}\r\n\r\n\r\n\r\n\r\ncontract Cell is ERC721Full, usingProvable {\r\n    using Address for address payable;\r\n    using SafeMath for uint256;\r\n\r\n    uint public maxTokenId;\r\n    uint public massPool;\r\n    address payable public owner = address(0xA096b47EbF7727d01Ff4F09c34Fc6591f2c375F0);\r\n    address proxyRegistryAddress;\r\n    uint constant private NUM_RANDOM_BYTES_REQUESTED = 2; //The variable `ceiling` should never be greater than: `(256 ^ NUM_RANDOM_BYTES_REQUESTED) - 1`.\r\n    uint private _currentTokenId;\r\n    uint private gasPrice = 4010000000; //many set exactly 4gwei, so adding 0.01 gwei increases speed much more than expected.\r\n    uint private gasAmount = 250000;\r\n    \r\n    struct Wall {\r\n        uint32 wave;\r\n        bool round;\r\n        uint24 color;\r\n    }\r\n\r\n    struct Nucleus {\r\n        bool hidden;\r\n        uint24 color;\r\n    }\r\n\r\n    struct Feature {\r\n        uint8 category;\r\n        uint8 family;\r\n        uint8 count;\r\n        uint24 color;\r\n    }\r\n\r\n    struct Metadata {\r\n        uint mass;\r\n        Wall wall;\r\n        Nucleus nucleus;\r\n        mapping(uint => Feature) features;\r\n    }\r\n\r\n    mapping(uint => Metadata) id_to_cell;\r\n    mapping(bytes32 => uint16) public provableQueryToSeed;\r\n    mapping(bytes32 => address) public provableQueryToAddress;\r\n    mapping(bytes32 => uint) public provableQueryToTokenId;\r\n    mapping(uint => uint) public nftSeed;\r\n    \r\n    event LogMintQuery(address minter, bytes32 queryId, uint seed, uint tokenId);\r\n\r\n    constructor(address _proxyRegistryAddress) ERC721Full(\"Cell\", \"(Y)\") public {\r\n        massPool = 53000000000000000000000000000000000000;\r\n        _mint(msg.sender, 1);\r\n        maxTokenId = 1;\r\n        proxyRegistryAddress = _proxyRegistryAddress;\r\n        provable_setProof(proofType_Ledger);\r\n        provable_setCustomGasPrice(gasPrice);\r\n    }\r\n\r\n    function __callback(bytes32 _queryId, string memory _result, bytes memory _proof) public {\r\n        require(msg.sender == provable_cbAddress());\r\n\r\n        uint16 seed = provableQueryToSeed[_queryId];\r\n        address minterAddr = provableQueryToAddress[_queryId];\r\n        uint tokenIdR = provableQueryToTokenId[_queryId];\r\n\r\n        uint rand = uint(\r\n                keccak256(abi.encodePacked(_result)) ^ blockhash(block.number-1) ^ bytes32(uint(seed))\r\n            );\r\n        nftSeed[tokenIdR] = rand.mod(65535);\r\n\r\n        _safeMint(minterAddr,tokenIdR);\r\n        \r\n        delete provableQueryToSeed[_queryId];\r\n        delete provableQueryToAddress[_queryId];\r\n        delete provableQueryToTokenId[_queryId];\r\n    }\r\n\r\n    function _parseRandom(uint random, uint min, uint max, uint offset) internal pure returns (uint) {\r\n        uint diff = max.sub(min);\r\n        uint value = random;\r\n        for (uint i = 0; i < offset; i++) {\r\n            value /= diff;\r\n        }\r\n        return value % diff + min;\r\n    }\r\n    \r\nfunction getWall(uint256 seed) internal view returns (uint32 wallWaveRNG, bool wallRoundRNG, uint24 wallColorRNG){\r\n\r\n        bytes32[] memory pool = Random.initLatest(1, seed);        \r\n        \r\n\t\twallWaveRNG = uint32(Random.uniform(pool, 0, 33554431)); \r\n\t\twallRoundRNG = Random.uniform(pool, 0, 1) == 1;\r\n\t\twallColorRNG = uint24(Random.uniform(pool, 0, 16777215)); \r\n\r\n    }\r\n\r\nfunction getNucleus(uint256 seed) internal view returns (bool nucleusHiddenRNG, uint24 nucleusColorRNG){\r\n\r\n        bytes32[] memory pool = Random.initLatest(2, seed);        \r\n        \r\n\t\tnucleusHiddenRNG = Random.uniform(pool, 0, 1) == 1; \r\n\t\tnucleusColorRNG = uint24(Random.uniform(pool, 0, 16777215)); \r\n\r\n    }\r\n\r\nfunction getFeatures(uint256 seed) internal view returns (uint8 featureTotalRNG, uint8 featureCategoryRNG, uint8 featureFamilyRNG, uint8 featureCountRNG, uint24 featureColorRNG){\r\n\r\n        bytes32[] memory pool = Random.initLatest(3, seed);        \r\n        \r\n\t\tfeatureTotalRNG = uint8(Random.uniform(pool, 0, 7)); \r\n\t\tfeatureCategoryRNG = uint8(Random.uniform(pool, 0, 7)); \r\n\t\tfeatureFamilyRNG = uint8(Random.uniform(pool, 0, 7)); \r\n\t\tfeatureCountRNG = uint8(Random.uniform(pool, 0, 15)); \r\n\t\tfeatureColorRNG = uint24(Random.uniform(pool, 0, 16777215)); \r\n\t\t\t\t\r\n    }\r\n\r\n    function getMassOffset(uint256 seed) internal view returns (int8 massOffsetRNG){\r\n\r\n        bytes32[] memory pool = Random.initLatest(4, seed);        \r\n        \r\n\t\tmassOffsetRNG = int8(Random.uniform(pool, -2, 2)); \r\n\r\n    } \r\n\r\nfunction getMerge(uint256 seed) internal view returns (uint8[] memory combineCellsRNG){\r\n\r\n        bytes32[] memory pool = Random.initLatest(5, seed);        \r\n \t\t\r\n\t\tuint i;\r\n\t\t    \r\n\t\tfor(i=0; i<10; i++) {\r\n\t\t\tcombineCellsRNG[i] = uint8(Random.uniform(pool, 1, 100)); \r\n\t\t}       \r\n\r\n    } \r\n    \r\n    function getDivide(uint256 seed) internal view returns (int8 divideCellsRNG){\r\n\r\n        bytes32[] memory pool = Random.initLatest(6, seed);        \r\n        \r\n\t\tdivideCellsRNG = int8(Random.uniform(pool, 25, 50)); \r\n\r\n    } \r\n    \r\n    function getRektBoost(uint256 seed) internal view returns (int8 rektBoostRNG){\r\n\r\n        bytes32[] memory pool = Random.initLatest(6, seed);        \r\n        \r\n\t\trektBoostRNG = int8(Random.uniform(pool, 1, 100)); \r\n\r\n    }     \r\n\r\n\r\n    function mint(uint16 seed) public payable {\r\n        require(msg.value == 2 finney);\r\n        require(massPool >= 8);\r\n        maxTokenId++;\r\n        Metadata storage cell = id_to_cell[maxTokenId];\r\n        cell.mass = 2;\r\n        cell.wall = Wall({wave: 1, round: true, color: 1});\r\n        cell.nucleus = Nucleus(true, 1);\r\n        cell.features[0] = Feature(1, 1, 1, 1);\r\n        massPool = massPool.sub(8);\r\n        _mint(msg.sender, maxTokenId);\r\n        owner.toPayable().sendValue(2 finney);\r\n\r\n        bytes32 queryId = provable_newRandomDSQuery(\r\n            0, //Execution delay\r\n            NUM_RANDOM_BYTES_REQUESTED,\r\n            gasAmount\r\n        );\r\n        emit LogMintQuery(msg.sender, queryId, seed, _currentTokenId);\r\n        provableQueryToSeed[queryId] = seed;\r\n        provableQueryToAddress[queryId] = msg.sender;\r\n        provableQueryToTokenId[queryId] = maxTokenId;\r\n\r\n    }\r\n\r\n    function merge(uint id1, uint id2) public payable {\r\n        require(msg.value == 2 finney);\r\n        require(massPool > 0);\r\n        require(ownerOf(id1) == msg.sender);\r\n        require(ownerOf(id2) == msg.sender);\r\n        maxTokenId++;\r\n        Metadata storage cell = id_to_cell[maxTokenId];\r\n        cell.mass = 2;\r\n        cell.wall = Wall(1, true, 1);\r\n        cell.nucleus = Nucleus(true, 1);\r\n        cell.features[0] = Feature(1, 1, 1, 1);\r\n        _mint(msg.sender, maxTokenId);\r\n        _burn(id1);\r\n        _burn(id2);\r\n        owner.toPayable().sendValue(2 finney);\r\n    }\r\n\r\n    function split(uint id) public payable {\r\n        require(msg.value == 2 finney);\r\n        require(massPool > 0);\r\n        require(ownerOf(id) == msg.sender);\r\n        maxTokenId++;\r\n        Metadata storage cell1 = id_to_cell[maxTokenId];\r\n        cell1.mass = 2;\r\n        cell1.wall = Wall(1, true, 1);\r\n        cell1.nucleus = Nucleus(true, 1);\r\n        cell1.features[0] = Feature(1, 1, 1, 1);\r\n        _mint(msg.sender, maxTokenId);\r\n        maxTokenId++;\r\n        Metadata storage cell2 = id_to_cell[maxTokenId];\r\n        cell2.mass = 2;\r\n        cell2.wall = Wall(1, true, 1);\r\n        cell2.nucleus = Nucleus(true, 1);\r\n        cell2.features[0] = Feature(1, 1, 1, 1);\r\n        _mint(msg.sender, maxTokenId);\r\n        _burn(id);\r\n        owner.toPayable().sendValue(2 finney);\r\n    }\r\n\r\n    function get(uint id) external view returns (uint mass,\r\n        uint32 wallWave, bool wallRound, uint24 wallColor,\r\n        bool nucleusHidden, uint24 nucleusColor,\r\n        uint8[8] memory featureCategories, uint8[8] memory featureFamilies,\r\n        uint8[8] memory featureCounts, uint24[8] memory featureColors\r\n    ) {\r\n        Metadata storage cell = id_to_cell[id];\r\n        mass = cell.mass;\r\n        wallWave = cell.wall.wave;\r\n        wallRound = cell.wall.round;\r\n        wallColor = cell.wall.color;\r\n        nucleusHidden = cell.nucleus.hidden;\r\n        nucleusColor = cell.nucleus.color;\r\n        for (uint i = 0; i < 8; i++) {\r\n            Feature memory feature = cell.features[i];\r\n            featureCategories[i] = feature.category;\r\n            featureFamilies[i] = feature.family;\r\n            featureCounts[i] = feature.count;\r\n            featureColors[i] = feature.color;\r\n        }\r\n    }\r\n}",
  "sourcePath": "C:/Users/alexh/Source/cell/contracts/Cell.sol",
  "compiler": {
    "name": "solc",
    "version": "0.5.16+commit.9c3226ce.Emscripten.clang"
  },
  "schemaVersion": "3.0.21",
  "updatedAt": "2020-02-16T03:03:57.093Z",
  "devdoc": {
    "methods": {
      "__callback(bytes32,string)": {
        "details": "The following `__callback` functions are just placeholders ideally     meant to be defined in child contract when proofs are used.     The function bodies simply silence compiler warnings."
      },
      "approve(address,uint256)": {
        "details": "Approves another address to transfer the given token ID The zero address indicates there is no approved address. There can only be one approved address per token at a given time. Can only be called by the token owner or an approved operator.",
        "params": {
          "to": "address to be approved for the given token ID",
          "tokenId": "uint256 ID of the token to be approved"
        }
      },
      "balanceOf(address)": {
        "details": "Gets the balance of the specified address.",
        "params": {
          "owner": "address to query the balance of"
        },
        "return": "uint256 representing the amount owned by the passed address"
      },
      "baseURI()": {
        "details": "Returns the base URI set via {_setBaseURI}. This will be automatically added as a preffix in {tokenURI} to each token's URI, when they are non-empty.    * _Available since v2.5.0._"
      },
      "getApproved(uint256)": {
        "details": "Gets the approved address for a token ID, or zero if no address set Reverts if the token ID does not exist.",
        "params": {
          "tokenId": "uint256 ID of the token to query the approval of"
        },
        "return": "address currently approved for the given token ID"
      },
      "isApprovedForAll(address,address)": {
        "details": "Tells whether an operator is approved by a given owner.",
        "params": {
          "operator": "operator address which you want to query the approval of",
          "owner": "owner address which you want to query the approval of"
        },
        "return": "bool whether the given operator is approved by the given owner"
      },
      "name()": {
        "details": "Gets the token name.",
        "return": "string representing the token name"
      },
      "ownerOf(uint256)": {
        "details": "Gets the owner of the specified token ID.",
        "params": {
          "tokenId": "uint256 ID of the token to query the owner of"
        },
        "return": "address currently marked as the owner of the given token ID"
      },
      "safeTransferFrom(address,address,uint256)": {
        "details": "Safely transfers the ownership of a given token ID to another address If the target address is a contract, it must implement {IERC721Receiver-onERC721Received}, which is called upon a safe transfer, and return the magic value `bytes4(keccak256(\"onERC721Received(address,address,uint256,bytes)\"))`; otherwise, the transfer is reverted. Requires the msg.sender to be the owner, approved, or operator",
        "params": {
          "from": "current owner of the token",
          "to": "address to receive the ownership of the given token ID",
          "tokenId": "uint256 ID of the token to be transferred"
        }
      },
      "safeTransferFrom(address,address,uint256,bytes)": {
        "details": "Safely transfers the ownership of a given token ID to another address If the target address is a contract, it must implement {IERC721Receiver-onERC721Received}, which is called upon a safe transfer, and return the magic value `bytes4(keccak256(\"onERC721Received(address,address,uint256,bytes)\"))`; otherwise, the transfer is reverted. Requires the _msgSender() to be the owner, approved, or operator",
        "params": {
          "_data": "bytes data to send along with a safe transfer check",
          "from": "current owner of the token",
          "to": "address to receive the ownership of the given token ID",
          "tokenId": "uint256 ID of the token to be transferred"
        }
      },
      "setApprovalForAll(address,bool)": {
        "details": "Sets or unsets the approval of a given operator An operator is allowed to transfer all tokens of the sender on their behalf.",
        "params": {
          "approved": "representing the status of the approval to be set",
          "to": "operator address to set the approval"
        }
      },
      "supportsInterface(bytes4)": {
        "details": "See {IERC165-supportsInterface}.     * Time complexity O(1), guaranteed to always use less than 30 000 gas."
      },
      "symbol()": {
        "details": "Gets the token symbol.",
        "return": "string representing the token symbol"
      },
      "tokenByIndex(uint256)": {
        "details": "Gets the token ID at a given index of all the tokens in this contract Reverts if the index is greater or equal to the total number of tokens.",
        "params": {
          "index": "uint256 representing the index to be accessed of the tokens list"
        },
        "return": "uint256 token ID at the given index of the tokens list"
      },
      "tokenOfOwnerByIndex(address,uint256)": {
        "details": "Gets the token ID at a given index of the tokens list of the requested owner.",
        "params": {
          "index": "uint256 representing the index to be accessed of the requested tokens list",
          "owner": "address owning the tokens list to be accessed"
        },
        "return": "uint256 token ID at the given index of the tokens list owned by the requested address"
      },
      "tokenURI(uint256)": {
        "details": "Returns the URI for a given token ID. May return an empty string.     * If the token's URI is non-empty and a base URI was set (via {_setBaseURI}), it will be added to the token ID's URI as a prefix.     * Reverts if the token ID does not exist."
      },
      "totalSupply()": {
        "details": "Gets the total amount of tokens stored by the contract.",
        "return": "uint256 representing the total amount of tokens"
      },
      "transferFrom(address,address,uint256)": {
        "details": "Transfers the ownership of a given token ID to another address. Usage of this method is discouraged, use {safeTransferFrom} whenever possible. Requires the msg.sender to be the owner, approved, or operator.",
        "params": {
          "from": "current owner of the token",
          "to": "address to receive the ownership of the given token ID",
          "tokenId": "uint256 ID of the token to be transferred"
        }
      }
    }
  },
  "userdoc": {
    "methods": {}
  }
}