{
  "contractName": "Cell",
  "abi": [
    {
      "inputs": [
        {
          "internalType": "address",
          "name": "_proxyRegistryAddress",
          "type": "address"
        }
      ],
      "payable": false,
      "stateMutability": "nonpayable",
      "type": "constructor"
    },
    {
      "anonymous": false,
      "inputs": [
        {
          "indexed": true,
          "internalType": "address",
          "name": "owner",
          "type": "address"
        },
        {
          "indexed": true,
          "internalType": "address",
          "name": "approved",
          "type": "address"
        },
        {
          "indexed": true,
          "internalType": "uint256",
          "name": "tokenId",
          "type": "uint256"
        }
      ],
      "name": "Approval",
      "type": "event"
    },
    {
      "anonymous": false,
      "inputs": [
        {
          "indexed": true,
          "internalType": "address",
          "name": "owner",
          "type": "address"
        },
        {
          "indexed": true,
          "internalType": "address",
          "name": "operator",
          "type": "address"
        },
        {
          "indexed": false,
          "internalType": "bool",
          "name": "approved",
          "type": "bool"
        }
      ],
      "name": "ApprovalForAll",
      "type": "event"
    },
    {
      "anonymous": false,
      "inputs": [
        {
          "indexed": false,
          "internalType": "address",
          "name": "minter",
          "type": "address"
        },
        {
          "indexed": false,
          "internalType": "bytes32",
          "name": "queryId",
          "type": "bytes32"
        },
        {
          "indexed": false,
          "internalType": "uint256",
          "name": "seed",
          "type": "uint256"
        },
        {
          "indexed": false,
          "internalType": "uint256",
          "name": "tokenId",
          "type": "uint256"
        }
      ],
      "name": "LogMintQuery",
      "type": "event"
    },
    {
      "anonymous": false,
      "inputs": [
        {
          "indexed": true,
          "internalType": "address",
          "name": "from",
          "type": "address"
        },
        {
          "indexed": true,
          "internalType": "address",
          "name": "to",
          "type": "address"
        },
        {
          "indexed": true,
          "internalType": "uint256",
          "name": "tokenId",
          "type": "uint256"
        }
      ],
      "name": "Transfer",
      "type": "event"
    },
    {
      "constant": false,
      "inputs": [
        {
          "internalType": "address",
          "name": "to",
          "type": "address"
        },
        {
          "internalType": "uint256",
          "name": "tokenId",
          "type": "uint256"
        }
      ],
      "name": "approve",
      "outputs": [],
      "payable": false,
      "stateMutability": "nonpayable",
      "type": "function"
    },
    {
      "constant": true,
      "inputs": [
        {
          "internalType": "address",
          "name": "owner",
          "type": "address"
        }
      ],
      "name": "balanceOf",
      "outputs": [
        {
          "internalType": "uint256",
          "name": "",
          "type": "uint256"
        }
      ],
      "payable": false,
      "stateMutability": "view",
      "type": "function"
    },
    {
      "constant": true,
      "inputs": [],
      "name": "baseURI",
      "outputs": [
        {
          "internalType": "string",
          "name": "",
          "type": "string"
        }
      ],
      "payable": false,
      "stateMutability": "view",
      "type": "function"
    },
    {
      "constant": true,
      "inputs": [
        {
          "internalType": "uint256",
          "name": "tokenId",
          "type": "uint256"
        }
      ],
      "name": "getApproved",
      "outputs": [
        {
          "internalType": "address",
          "name": "",
          "type": "address"
        }
      ],
      "payable": false,
      "stateMutability": "view",
      "type": "function"
    },
    {
      "constant": true,
      "inputs": [
        {
          "internalType": "address",
          "name": "owner",
          "type": "address"
        },
        {
          "internalType": "address",
          "name": "operator",
          "type": "address"
        }
      ],
      "name": "isApprovedForAll",
      "outputs": [
        {
          "internalType": "bool",
          "name": "",
          "type": "bool"
        }
      ],
      "payable": false,
      "stateMutability": "view",
      "type": "function"
    },
    {
      "constant": true,
      "inputs": [],
      "name": "massPool",
      "outputs": [
        {
          "internalType": "uint256",
          "name": "",
          "type": "uint256"
        }
      ],
      "payable": false,
      "stateMutability": "view",
      "type": "function"
    },
    {
      "constant": true,
      "inputs": [],
      "name": "name",
      "outputs": [
        {
          "internalType": "string",
          "name": "",
          "type": "string"
        }
      ],
      "payable": false,
      "stateMutability": "view",
      "type": "function"
    },
    {
      "constant": true,
      "inputs": [
        {
          "internalType": "uint256",
          "name": "",
          "type": "uint256"
        }
      ],
      "name": "nftSeed",
      "outputs": [
        {
          "internalType": "uint256",
          "name": "",
          "type": "uint256"
        }
      ],
      "payable": false,
      "stateMutability": "view",
      "type": "function"
    },
    {
      "constant": true,
      "inputs": [],
      "name": "owner",
      "outputs": [
        {
          "internalType": "address payable",
          "name": "",
          "type": "address"
        }
      ],
      "payable": false,
      "stateMutability": "view",
      "type": "function"
    },
    {
      "constant": true,
      "inputs": [
        {
          "internalType": "uint256",
          "name": "tokenId",
          "type": "uint256"
        }
      ],
      "name": "ownerOf",
      "outputs": [
        {
          "internalType": "address",
          "name": "",
          "type": "address"
        }
      ],
      "payable": false,
      "stateMutability": "view",
      "type": "function"
    },
    {
      "constant": true,
      "inputs": [
        {
          "internalType": "bytes32",
          "name": "",
          "type": "bytes32"
        }
      ],
      "name": "provableQueryToAddress",
      "outputs": [
        {
          "internalType": "address",
          "name": "",
          "type": "address"
        }
      ],
      "payable": false,
      "stateMutability": "view",
      "type": "function"
    },
    {
      "constant": true,
      "inputs": [
        {
          "internalType": "bytes32",
          "name": "",
          "type": "bytes32"
        }
      ],
      "name": "provableQueryToSeed",
      "outputs": [
        {
          "internalType": "uint16",
          "name": "",
          "type": "uint16"
        }
      ],
      "payable": false,
      "stateMutability": "view",
      "type": "function"
    },
    {
      "constant": true,
      "inputs": [
        {
          "internalType": "bytes32",
          "name": "",
          "type": "bytes32"
        }
      ],
      "name": "provableQueryToTokenId",
      "outputs": [
        {
          "internalType": "uint256",
          "name": "",
          "type": "uint256"
        }
      ],
      "payable": false,
      "stateMutability": "view",
      "type": "function"
    },
    {
      "constant": false,
      "inputs": [
        {
          "internalType": "address",
          "name": "from",
          "type": "address"
        },
        {
          "internalType": "address",
          "name": "to",
          "type": "address"
        },
        {
          "internalType": "uint256",
          "name": "tokenId",
          "type": "uint256"
        }
      ],
      "name": "safeTransferFrom",
      "outputs": [],
      "payable": false,
      "stateMutability": "nonpayable",
      "type": "function"
    },
    {
      "constant": false,
      "inputs": [
        {
          "internalType": "address",
          "name": "from",
          "type": "address"
        },
        {
          "internalType": "address",
          "name": "to",
          "type": "address"
        },
        {
          "internalType": "uint256",
          "name": "tokenId",
          "type": "uint256"
        },
        {
          "internalType": "bytes",
          "name": "_data",
          "type": "bytes"
        }
      ],
      "name": "safeTransferFrom",
      "outputs": [],
      "payable": false,
      "stateMutability": "nonpayable",
      "type": "function"
    },
    {
      "constant": false,
      "inputs": [
        {
          "internalType": "address",
          "name": "to",
          "type": "address"
        },
        {
          "internalType": "bool",
          "name": "approved",
          "type": "bool"
        }
      ],
      "name": "setApprovalForAll",
      "outputs": [],
      "payable": false,
      "stateMutability": "nonpayable",
      "type": "function"
    },
    {
      "constant": true,
      "inputs": [
        {
          "internalType": "bytes4",
          "name": "interfaceId",
          "type": "bytes4"
        }
      ],
      "name": "supportsInterface",
      "outputs": [
        {
          "internalType": "bool",
          "name": "",
          "type": "bool"
        }
      ],
      "payable": false,
      "stateMutability": "view",
      "type": "function"
    },
    {
      "constant": true,
      "inputs": [],
      "name": "symbol",
      "outputs": [
        {
          "internalType": "string",
          "name": "",
          "type": "string"
        }
      ],
      "payable": false,
      "stateMutability": "view",
      "type": "function"
    },
    {
      "constant": true,
      "inputs": [
        {
          "internalType": "uint256",
          "name": "index",
          "type": "uint256"
        }
      ],
      "name": "tokenByIndex",
      "outputs": [
        {
          "internalType": "uint256",
          "name": "",
          "type": "uint256"
        }
      ],
      "payable": false,
      "stateMutability": "view",
      "type": "function"
    },
    {
      "constant": true,
      "inputs": [
        {
          "internalType": "address",
          "name": "owner",
          "type": "address"
        },
        {
          "internalType": "uint256",
          "name": "index",
          "type": "uint256"
        }
      ],
      "name": "tokenOfOwnerByIndex",
      "outputs": [
        {
          "internalType": "uint256",
          "name": "",
          "type": "uint256"
        }
      ],
      "payable": false,
      "stateMutability": "view",
      "type": "function"
    },
    {
      "constant": true,
      "inputs": [
        {
          "internalType": "uint256",
          "name": "tokenId",
          "type": "uint256"
        }
      ],
      "name": "tokenURI",
      "outputs": [
        {
          "internalType": "string",
          "name": "",
          "type": "string"
        }
      ],
      "payable": false,
      "stateMutability": "view",
      "type": "function"
    },
    {
      "constant": true,
      "inputs": [],
      "name": "totalSupply",
      "outputs": [
        {
          "internalType": "uint256",
          "name": "",
          "type": "uint256"
        }
      ],
      "payable": false,
      "stateMutability": "view",
      "type": "function"
    },
    {
      "constant": false,
      "inputs": [
        {
          "internalType": "address",
          "name": "from",
          "type": "address"
        },
        {
          "internalType": "address",
          "name": "to",
          "type": "address"
        },
        {
          "internalType": "uint256",
          "name": "tokenId",
          "type": "uint256"
        }
      ],
      "name": "transferFrom",
      "outputs": [],
      "payable": false,
      "stateMutability": "nonpayable",
      "type": "function"
    },
    {
      "constant": false,
      "inputs": [
        {
          "internalType": "bytes32",
          "name": "_myid",
          "type": "bytes32"
        },
        {
          "internalType": "string",
          "name": "_result",
          "type": "string"
        }
      ],
      "name": "__callback",
      "outputs": [],
      "payable": false,
      "stateMutability": "nonpayable",
      "type": "function"
    },
    {
      "constant": false,
      "inputs": [
        {
          "internalType": "bytes32",
          "name": "_queryId",
          "type": "bytes32"
        },
        {
          "internalType": "string",
          "name": "_result",
          "type": "string"
        },
        {
          "internalType": "bytes",
          "name": "_proof",
          "type": "bytes"
        }
      ],
      "name": "__callback",
      "outputs": [],
      "payable": false,
      "stateMutability": "nonpayable",
      "type": "function"
    },
    {
      "constant": false,
      "inputs": [
        {
          "internalType": "uint16",
          "name": "seed",
          "type": "uint16"
        }
      ],
      "name": "mint",
      "outputs": [],
      "payable": true,
      "stateMutability": "payable",
      "type": "function"
    },
    {
      "constant": false,
      "inputs": [
        {
          "internalType": "uint256",
          "name": "id1",
          "type": "uint256"
        },
        {
          "internalType": "uint256",
          "name": "id2",
          "type": "uint256"
        }
      ],
      "name": "merge",
      "outputs": [],
      "payable": true,
      "stateMutability": "payable",
      "type": "function"
    },
    {
      "constant": false,
      "inputs": [
        {
          "internalType": "uint256",
          "name": "id",
          "type": "uint256"
        }
      ],
      "name": "split",
      "outputs": [],
      "payable": true,
      "stateMutability": "payable",
      "type": "function"
    },
    {
      "constant": true,
      "inputs": [
        {
          "internalType": "uint256",
          "name": "id",
          "type": "uint256"
        }
      ],
      "name": "get",
      "outputs": [
        {
          "internalType": "uint256",
          "name": "mass",
          "type": "uint256"
        },
        {
          "internalType": "uint32",
          "name": "wallWave",
          "type": "uint32"
        },
        {
          "internalType": "bool",
          "name": "wallRound",
          "type": "bool"
        },
        {
          "internalType": "uint24",
          "name": "wallColor",
          "type": "uint24"
        },
        {
          "internalType": "bool",
          "name": "nucleusHidden",
          "type": "bool"
        },
        {
          "internalType": "uint24",
          "name": "nucleusColor",
          "type": "uint24"
        },
        {
          "internalType": "uint8[]",
          "name": "featureCategories",
          "type": "uint8[]"
        },
        {
          "internalType": "uint8[]",
          "name": "featureFamilies",
          "type": "uint8[]"
        },
        {
          "internalType": "uint8[]",
          "name": "featureCounts",
          "type": "uint8[]"
        },
        {
          "internalType": "uint24[]",
          "name": "featureColors",
          "type": "uint24[]"
        }
      ],
      "payable": false,
      "stateMutability": "view",
      "type": "function"
    }
  ],
  "bytecode": "0x608060405273a096b47ebf7727d01ff4f09c34fc6591f2c375f0601360006101000a81548173ffffffffffffffffffffffffffffffffffffffff021916908373ffffffffffffffffffffffffffffffffffffffff16021790555063ef03be806016556203d0906017553480156200007557600080fd5b5060405162007b1a38038062007b1a833981810160405260208110156200009b57600080fd5b81019080805190602001909291905050506040518060400160405280600481526020017f43656c6c000000000000000000000000000000000000000000000000000000008152506040518060400160405280600381526020017f28592900000000000000000000000000000000000000000000000000000000008152508181620001326301ffc9a760e01b6200024a60201b60201c565b6200014a6380ac58cd60e01b6200024a60201b60201c565b6200016263780e9d6360e01b6200024a60201b60201c565b81600990805190602001906200017a929190620013f2565b5080600a908051906020019062000193929190620013f2565b50620001ac635b5e139f60e01b6200024a60201b60201c565b505050506f27df6dbfa09e777e1ea7ee5000000000601281905550620001da3360016200035360201b60201c565b80601460006101000a81548173ffffffffffffffffffffffffffffffffffffffff021916908373ffffffffffffffffffffffffffffffffffffffff16021790555062000230603060f81b6200039160201b60201c565b62000243601654620006f760201b60201c565b50620014a1565b63ffffffff60e01b817bffffffffffffffffffffffffffffffffffffffffffffffffffffffff19161415620002e7576040517f08c379a000000000000000000000000000000000000000000000000000000000815260040180806020018281038252601c8152602001807f4552433136353a20696e76616c696420696e746572666163652069640000000081525060200191505060405180910390fd5b6001600080837bffffffffffffffffffffffffffffffffffffffffffffffffffffffff19167bffffffffffffffffffffffffffffffffffffffffffffffffffffffff1916815260200190815260200160002060006101000a81548160ff02191690831515021790555050565b6200036a828262000a1960201b620041471760201c565b6200037c828262000c4860201b60201c565b6200038d8162000d0f60201b60201c565b5050565b600073ffffffffffffffffffffffffffffffffffffffff16600e60009054906101000a900473ffffffffffffffffffffffffffffffffffffffff1673ffffffffffffffffffffffffffffffffffffffff16148062000421575060006200041f600e60009054906101000a900473ffffffffffffffffffffffffffffffffffffffff1662000d5b60201b60201c565b145b156200043b5762000439600062000d6660201b60201c565b505b600e60009054906101000a900473ffffffffffffffffffffffffffffffffffffffff1673ffffffffffffffffffffffffffffffffffffffff166338cc48316040518163ffffffff1660e01b8152600401602060405180830381600087803b158015620004a657600080fd5b505af1158015620004bb573d6000803e3d6000fd5b505050506040513d6020811015620004d257600080fd5b810190808051906020019092919050505073ffffffffffffffffffffffffffffffffffffffff16600d60009054906101000a900473ffffffffffffffffffffffffffffffffffffffff1673ffffffffffffffffffffffffffffffffffffffff16146200062157600e60009054906101000a900473ffffffffffffffffffffffffffffffffffffffff1673ffffffffffffffffffffffffffffffffffffffff166338cc48316040518163ffffffff1660e01b8152600401602060405180830381600087803b158015620005a357600080fd5b505af1158015620005b8573d6000803e3d6000fd5b505050506040513d6020811015620005cf57600080fd5b8101908080519060200190929190505050600d60006101000a81548173ffffffffffffffffffffffffffffffffffffffff021916908373ffffffffffffffffffffffffffffffffffffffff1602179055505b600d60009054906101000a900473ffffffffffffffffffffffffffffffffffffffff1673ffffffffffffffffffffffffffffffffffffffff1663688dcfd7826040518263ffffffff1660e01b815260040180827effffffffffffffffffffffffffffffffffffffffffffffffffffffffffffff19167effffffffffffffffffffffffffffffffffffffffffffffffffffffffffffff19168152602001915050600060405180830381600087803b158015620006db57600080fd5b505af1158015620006f0573d6000803e3d6000fd5b5050505050565b600073ffffffffffffffffffffffffffffffffffffffff16600e60009054906101000a900473ffffffffffffffffffffffffffffffffffffffff1673ffffffffffffffffffffffffffffffffffffffff161480620007875750600062000785600e60009054906101000a900473ffffffffffffffffffffffffffffffffffffffff1662000d5b60201b60201c565b145b15620007a1576200079f600062000d6660201b60201c565b505b600e60009054906101000a900473ffffffffffffffffffffffffffffffffffffffff1673ffffffffffffffffffffffffffffffffffffffff166338cc48316040518163ffffffff1660e01b8152600401602060405180830381600087803b1580156200080c57600080fd5b505af115801562000821573d6000803e3d6000fd5b505050506040513d60208110156200083857600080fd5b810190808051906020019092919050505073ffffffffffffffffffffffffffffffffffffffff16600d60009054906101000a900473ffffffffffffffffffffffffffffffffffffffff1673ffffffffffffffffffffffffffffffffffffffff16146200098757600e60009054906101000a900473ffffffffffffffffffffffffffffffffffffffff1673ffffffffffffffffffffffffffffffffffffffff166338cc48316040518163ffffffff1660e01b8152600401602060405180830381600087803b1580156200090957600080fd5b505af11580156200091e573d6000803e3d6000fd5b505050506040513d60208110156200093557600080fd5b8101908080519060200190929190505050600d60006101000a81548173ffffffffffffffffffffffffffffffffffffffff021916908373ffffffffffffffffffffffffffffffffffffffff1602179055505b600d60009054906101000a900473ffffffffffffffffffffffffffffffffffffffff1673ffffffffffffffffffffffffffffffffffffffff1663ca6ad1e4826040518263ffffffff1660e01b815260040180828152602001915050600060405180830381600087803b158015620009fd57600080fd5b505af115801562000a12573d6000803e3d6000fd5b5050505050565b600073ffffffffffffffffffffffffffffffffffffffff168273ffffffffffffffffffffffffffffffffffffffff16141562000abd576040517f08c379a00000000000000000000000000000000000000000000000000000000081526004018080602001828103825260208152602001807f4552433732313a206d696e7420746f20746865207a65726f206164647265737381525060200191505060405180910390fd5b62000ace8162000d7f60201b60201c565b1562000b42576040517f08c379a000000000000000000000000000000000000000000000000000000000815260040180806020018281038252601c8152602001807f4552433732313a20746f6b656e20616c7265616479206d696e7465640000000081525060200191505060405180910390fd5b816001600083815260200190815260200160002060006101000a81548173ffffffffffffffffffffffffffffffffffffffff021916908373ffffffffffffffffffffffffffffffffffffffff16021790555062000be8600360008473ffffffffffffffffffffffffffffffffffffffff1673ffffffffffffffffffffffffffffffffffffffff16815260200190815260200160002062000df160201b6200507d1760201c565b808273ffffffffffffffffffffffffffffffffffffffff16600073ffffffffffffffffffffffffffffffffffffffff167fddf252ad1be2c89b69c2b068fc378daa952ba7f163c4a11628f55a4df523b3ef60405160405180910390a45050565b600560008373ffffffffffffffffffffffffffffffffffffffff1673ffffffffffffffffffffffffffffffffffffffff168152602001908152602001600020805490506006600083815260200190815260200160002081905550600560008373ffffffffffffffffffffffffffffffffffffffff1673ffffffffffffffffffffffffffffffffffffffff1681526020019081526020016000208190806001815401808255809150509060018203906000526020600020016000909192909190915055505050565b6007805490506008600083815260200190815260200160002081905550600781908060018154018082558091505090600182039060005260206000200160009091929091909150555050565b6000813b9050919050565b600062000d7862000e0760201b60201c565b9050919050565b6000806001600084815260200190815260200160002060009054906101000a900473ffffffffffffffffffffffffffffffffffffffff169050600073ffffffffffffffffffffffffffffffffffffffff168173ffffffffffffffffffffffffffffffffffffffff161415915050919050565b6001816000016000828254019250508190555050565b60008062000e2f731d3b2638a7cc9f2cb3d298a3da7a90b67e5506ed62000d5b60201b60201c565b111562000edb57731d3b2638a7cc9f2cb3d298a3da7a90b67e5506ed600e60006101000a81548173ffffffffffffffffffffffffffffffffffffffff021916908373ffffffffffffffffffffffffffffffffffffffff16021790555062000ed16040518060400160405280600b81526020017f6574685f6d61696e6e6574000000000000000000000000000000000000000000815250620013d660201b60201c565b60019050620013d3565b600062000f0273c03a2615d5efaf5f49f60b7bb6583eaec212fdf162000d5b60201b60201c565b111562000fae5773c03a2615d5efaf5f49f60b7bb6583eaec212fdf1600e60006101000a81548173ffffffffffffffffffffffffffffffffffffffff021916908373ffffffffffffffffffffffffffffffffffffffff16021790555062000fa46040518060400160405280600c81526020017f6574685f726f707374656e330000000000000000000000000000000000000000815250620013d660201b60201c565b60019050620013d3565b600062000fd573b7a07bcf2ba2f2703b24c0691b5278999c59ac7e62000d5b60201b60201c565b1115620010815773b7a07bcf2ba2f2703b24c0691b5278999c59ac7e600e60006101000a81548173ffffffffffffffffffffffffffffffffffffffff021916908373ffffffffffffffffffffffffffffffffffffffff160217905550620010776040518060400160405280600981526020017f6574685f6b6f76616e0000000000000000000000000000000000000000000000815250620013d660201b60201c565b60019050620013d3565b6000620010a873146500cfd35b22e4a392fe0adc06de1a1368ed4862000d5b60201b60201c565b1115620011545773146500cfd35b22e4a392fe0adc06de1a1368ed48600e60006101000a81548173ffffffffffffffffffffffffffffffffffffffff021916908373ffffffffffffffffffffffffffffffffffffffff1602179055506200114a6040518060400160405280600b81526020017f6574685f72696e6b656279000000000000000000000000000000000000000000815250620013d660201b60201c565b60019050620013d3565b60006200117b73a2998efd205fb9d4b4963afb70778d6354ad3a4162000d5b60201b60201c565b1115620012275773a2998efd205fb9d4b4963afb70778d6354ad3a41600e60006101000a81548173ffffffffffffffffffffffffffffffffffffffff021916908373ffffffffffffffffffffffffffffffffffffffff1602179055506200121d6040518060400160405280600a81526020017f6574685f676f65726c6900000000000000000000000000000000000000000000815250620013d660201b60201c565b60019050620013d3565b60006200124e736f485c8bf6fc43ea212e93bbf8ce046c7f1cb47562000d5b60201b60201c565b1115620012b457736f485c8bf6fc43ea212e93bbf8ce046c7f1cb475600e60006101000a81548173ffffffffffffffffffffffffffffffffffffffff021916908373ffffffffffffffffffffffffffffffffffffffff16021790555060019050620013d3565b6000620012db7320e12a1f859b3feae5fb2a0a32c18f5a65555bbf62000d5b60201b60201c565b111562001341577320e12a1f859b3feae5fb2a0a32c18f5a65555bbf600e60006101000a81548173ffffffffffffffffffffffffffffffffffffffff021916908373ffffffffffffffffffffffffffffffffffffffff16021790555060019050620013d3565b6000620013687351efaf4c8b3c9afbd5ab9f4bbc82784ab6ef8faa62000d5b60201b60201c565b1115620013ce577351efaf4c8b3c9afbd5ab9f4bbc82784ab6ef8faa600e60006101000a81548173ffffffffffffffffffffffffffffffffffffffff021916908373ffffffffffffffffffffffffffffffffffffffff16021790555060019050620013d3565b600090505b90565b80600f9080519060200190620013ee929190620013f2565b5050565b828054600181600116156101000203166002900490600052602060002090601f016020900481019282601f106200143557805160ff191683800117855562001466565b8280016001018555821562001466579182015b828111156200146557825182559160200191906001019062001448565b5b50905062001475919062001479565b5090565b6200149e91905b808211156200149a57600081600090555060010162001480565b5090565b90565b61666980620014b16000396000f3fe6080604052600436106101c25760003560e01c80636352211e116100f7578063a22cb46511610095578063dbceb00511610064578063dbceb00514610f28578063e985e9c514610f56578063eb89ce7714610fdf578063fb4092c01461105a576101c2565b8063a22cb46514610ccd578063b88d4fde14610d2a578063c87b56dd14610e3c578063d1c2babb14610ef0576101c2565b80638da5cb5b116100d15780638da5cb5b146109dd5780639290b5be14610a345780639507d39a14610a8357806395d89b4114610c3d576101c2565b80636352211e1461086d5780636c0360eb146108e857806370a0823114610978576101c2565b806327dc297e1161016457806342842e0e1161013e57806342842e0e14610721578063453b47911461079c5780634f6ccce7146107c7578063525125de14610816576101c2565b806327dc297e146104775780632f745c591461054957806338bbfa50146105b8576101c2565b8063095ea7b3116101a0578063095ea7b31461034457806318160ddd1461039f57806323b872dd146103ca57806323cf0a2214610445576101c2565b806301ffc9a7146101c757806306fdde0314610239578063081812fc146102c9575b600080fd5b3480156101d357600080fd5b5061021f600480360360208110156101ea57600080fd5b8101908080357bffffffffffffffffffffffffffffffffffffffffffffffffffffffff191690602001909291905050506110a9565b604051808215151515815260200191505060405180910390f35b34801561024557600080fd5b5061024e611110565b6040518080602001828103825283818151815260200191508051906020019080838360005b8381101561028e578082015181840152602081019050610273565b50505050905090810190601f1680156102bb5780820380516001836020036101000a031916815260200191505b509250505060405180910390f35b3480156102d557600080fd5b50610302600480360360208110156102ec57600080fd5b81019080803590602001909291905050506111b2565b604051808273ffffffffffffffffffffffffffffffffffffffff1673ffffffffffffffffffffffffffffffffffffffff16815260200191505060405180910390f35b34801561035057600080fd5b5061039d6004803603604081101561036757600080fd5b81019080803573ffffffffffffffffffffffffffffffffffffffff1690602001909291908035906020019092919050505061124d565b005b3480156103ab57600080fd5b506103b4611434565b6040518082815260200191505060405180910390f35b3480156103d657600080fd5b50610443600480360360608110156103ed57600080fd5b81019080803573ffffffffffffffffffffffffffffffffffffffff169060200190929190803573ffffffffffffffffffffffffffffffffffffffff16906020019092919080359060200190929190505050611441565b005b6104756004803603602081101561045b57600080fd5b81019080803561ffff1690602001909291905050506114b7565b005b34801561048357600080fd5b506105476004803603604081101561049a57600080fd5b8101908080359060200190929190803590602001906401000000008111156104c157600080fd5b8201836020820111156104d357600080fd5b803590602001918460018302840111640100000000831117156104f557600080fd5b91908080601f016020809104026020016040519081016040528093929190818152602001838380828437600081840152601f19601f8201169050808301925050505050505091929192905050506118ad565b005b34801561055557600080fd5b506105a26004803603604081101561056c57600080fd5b81019080803573ffffffffffffffffffffffffffffffffffffffff169060200190929190803590602001909291905050506118f0565b6040518082815260200191505060405180910390f35b3480156105c457600080fd5b5061071f600480360360608110156105db57600080fd5b81019080803590602001909291908035906020019064010000000081111561060257600080fd5b82018360208201111561061457600080fd5b8035906020019184600183028401116401000000008311171561063657600080fd5b91908080601f016020809104026020016040519081016040528093929190818152602001838380828437600081840152601f19601f8201169050808301925050505050505091929192908035906020019064010000000081111561069957600080fd5b8201836020820111156106ab57600080fd5b803590602001918460018302840111640100000000831117156106cd57600080fd5b91908080601f016020809104026020016040519081016040528093929190818152602001838380828437600081840152601f19601f8201169050808301925050505050505091929192905050506119af565b005b34801561072d57600080fd5b5061079a6004803603606081101561074457600080fd5b81019080803573ffffffffffffffffffffffffffffffffffffffff169060200190929190803573ffffffffffffffffffffffffffffffffffffffff16906020019092919080359060200190929190505050611b9c565b005b3480156107a857600080fd5b506107b1611bbc565b6040518082815260200191505060405180910390f35b3480156107d357600080fd5b50610800600480360360208110156107ea57600080fd5b8101908080359060200190929190505050611bc2565b6040518082815260200191505060405180910390f35b34801561082257600080fd5b5061084f6004803603602081101561083957600080fd5b8101908080359060200190929190505050611c42565b604051808261ffff1661ffff16815260200191505060405180910390f35b34801561087957600080fd5b506108a66004803603602081101561089057600080fd5b8101908080359060200190929190505050611c63565b604051808273ffffffffffffffffffffffffffffffffffffffff1673ffffffffffffffffffffffffffffffffffffffff16815260200191505060405180910390f35b3480156108f457600080fd5b506108fd611d2b565b6040518080602001828103825283818151815260200191508051906020019080838360005b8381101561093d578082015181840152602081019050610922565b50505050905090810190601f16801561096a5780820380516001836020036101000a031916815260200191505b509250505060405180910390f35b34801561098457600080fd5b506109c76004803603602081101561099b57600080fd5b81019080803573ffffffffffffffffffffffffffffffffffffffff169060200190929190505050611dcd565b6040518082815260200191505060405180910390f35b3480156109e957600080fd5b506109f2611ea2565b604051808273ffffffffffffffffffffffffffffffffffffffff1673ffffffffffffffffffffffffffffffffffffffff16815260200191505060405180910390f35b348015610a4057600080fd5b50610a6d60048036036020811015610a5757600080fd5b8101908080359060200190929190505050611ec8565b6040518082815260200191505060405180910390f35b348015610a8f57600080fd5b50610abc60048036036020811015610aa657600080fd5b8101908080359060200190929190505050611ee0565b604051808b81526020018a63ffffffff1663ffffffff168152602001891515151581526020018862ffffff1662ffffff168152602001871515151581526020018662ffffff1662ffffff16815260200180602001806020018060200180602001858103855289818151815260200191508051906020019060200280838360005b83811015610b57578082015181840152602081019050610b3c565b50505050905001858103845288818151815260200191508051906020019060200280838360005b83811015610b99578082015181840152602081019050610b7e565b50505050905001858103835287818151815260200191508051906020019060200280838360005b83811015610bdb578082015181840152602081019050610bc0565b50505050905001858103825286818151815260200191508051906020019060200280838360005b83811015610c1d578082015181840152602081019050610c02565b505050509050019e50505050505050505050505050505060405180910390f35b348015610c4957600080fd5b50610c526120d0565b6040518080602001828103825283818151815260200191508051906020019080838360005b83811015610c92578082015181840152602081019050610c77565b50505050905090810190601f168015610cbf5780820380516001836020036101000a031916815260200191505b509250505060405180910390f35b348015610cd957600080fd5b50610d2860048036036040811015610cf057600080fd5b81019080803573ffffffffffffffffffffffffffffffffffffffff169060200190929190803515159060200190929190505050612172565b005b348015610d3657600080fd5b50610e3a60048036036080811015610d4d57600080fd5b81019080803573ffffffffffffffffffffffffffffffffffffffff169060200190929190803573ffffffffffffffffffffffffffffffffffffffff1690602001909291908035906020019092919080359060200190640100000000811115610db457600080fd5b820183602082011115610dc657600080fd5b80359060200191846001830284011164010000000083111715610de857600080fd5b91908080601f016020809104026020016040519081016040528093929190818152602001838380828437600081840152601f19601f82011690508083019250505050505050919291929050505061232a565b005b348015610e4857600080fd5b50610e7560048036036020811015610e5f57600080fd5b81019080803590602001909291905050506123a2565b6040518080602001828103825283818151815260200191508051906020019080838360005b83811015610eb5578082015181840152602081019050610e9a565b50505050905090810190601f168015610ee25780820380516001836020036101000a031916815260200191505b509250505060405180910390f35b610f2660048036036040811015610f0657600080fd5b8101908080359060200190929190803590602001909291905050506125a4565b005b610f5460048036036020811015610f3e57600080fd5b81019080803590602001909291905050506128e3565b005b348015610f6257600080fd5b50610fc560048036036040811015610f7957600080fd5b81019080803573ffffffffffffffffffffffffffffffffffffffff169060200190929190803573ffffffffffffffffffffffffffffffffffffffff169060200190929190505050612def565b604051808215151515815260200191505060405180910390f35b348015610feb57600080fd5b506110186004803603602081101561100257600080fd5b8101908080359060200190929190505050612e83565b604051808273ffffffffffffffffffffffffffffffffffffffff1673ffffffffffffffffffffffffffffffffffffffff16815260200191505060405180910390f35b34801561106657600080fd5b506110936004803603602081101561107d57600080fd5b8101908080359060200190929190505050612eb6565b6040518082815260200191505060405180910390f35b6000806000837bffffffffffffffffffffffffffffffffffffffffffffffffffffffff19167bffffffffffffffffffffffffffffffffffffffffffffffffffffffff1916815260200190815260200160002060009054906101000a900460ff169050919050565b606060098054600181600116156101000203166002900480601f0160208091040260200160405190810160405280929190818152602001828054600181600116156101000203166002900480156111a85780601f1061117d576101008083540402835291602001916111a8565b820191906000526020600020905b81548152906001019060200180831161118b57829003601f168201915b5050505050905090565b60006111bd82612ece565b611212576040517f08c379a000000000000000000000000000000000000000000000000000000000815260040180806020018281038252602c81526020018061650e602c913960400191505060405180910390fd5b6002600083815260200190815260200160002060009054906101000a900473ffffffffffffffffffffffffffffffffffffffff169050919050565b600061125882611c63565b90508073ffffffffffffffffffffffffffffffffffffffff168373ffffffffffffffffffffffffffffffffffffffff1614156112df576040517f08c379a00000000000000000000000000000000000000000000000000000000081526004018080602001828103825260218152602001806165926021913960400191505060405180910390fd5b8073ffffffffffffffffffffffffffffffffffffffff166112fe612f40565b73ffffffffffffffffffffffffffffffffffffffff16148061132d575061132c81611327612f40565b612def565b5b611382576040517f08c379a00000000000000000000000000000000000000000000000000000000081526004018080602001828103825260388152602001806164836038913960400191505060405180910390fd5b826002600084815260200190815260200160002060006101000a81548173ffffffffffffffffffffffffffffffffffffffff021916908373ffffffffffffffffffffffffffffffffffffffff160217905550818373ffffffffffffffffffffffffffffffffffffffff168273ffffffffffffffffffffffffffffffffffffffff167f8c5be1e5ebec7d5bd14f71427d1e84f3dd0314c0f7b2291e5b200ac8c7c3b92560405160405180910390a4505050565b6000600780549050905090565b61145261144c612f40565b82612f48565b6114a7576040517f08c379a00000000000000000000000000000000000000000000000000000000081526004018080602001828103825260318152602001806165b36031913960400191505060405180910390fd5b6114b283838361303c565b505050565b66071afd498d000034146114ca57600080fd5b600860125410156114da57600080fd5b600060016114e6611434565b0190506000601860008381526020019081526020016000209050600281600001819055506040518060600160405280600163ffffffff168152602001600115158152602001600162ffffff168152508160010160008201518160000160006101000a81548163ffffffff021916908363ffffffff16021790555060208201518160000160046101000a81548160ff02191690831515021790555060408201518160000160056101000a81548162ffffff021916908362ffffff1602179055509050506040518060400160405280600115158152602001600162ffffff168152508160020160008201518160000160006101000a81548160ff02191690831515021790555060208201518160000160016101000a81548162ffffff021916908362ffffff1602179055509050506040518060800160405280600160ff168152602001600160ff168152602001600160ff168152602001600162ffffff1681525081600301600080815260200190815260200160002060008201518160000160006101000a81548160ff021916908360ff16021790555060208201518160000160016101000a81548160ff021916908360ff16021790555060408201518160000160026101000a81548160ff021916908360ff16021790555060608201518160000160036101000a81548162ffffff021916908362ffffff1602179055509050506116fb600860125461306090919063ffffffff16565b60128190555061170b33836130aa565b61177b66071afd498d0000611757601360009054906101000a900473ffffffffffffffffffffffffffffffffffffffff1673ffffffffffffffffffffffffffffffffffffffff166130cb565b73ffffffffffffffffffffffffffffffffffffffff166130d590919063ffffffff16565b600061178c6000600260175461320f565b90507fde943e32fd65498630e5644176185884dd5c05112d2e96be2315156ceedebf22338286601554604051808573ffffffffffffffffffffffffffffffffffffffff1673ffffffffffffffffffffffffffffffffffffffff1681526020018481526020018361ffff16815260200182815260200194505050505060405180910390a1836019600083815260200190815260200160002060006101000a81548161ffff021916908361ffff16021790555033601a600083815260200190815260200160002060006101000a81548173ffffffffffffffffffffffffffffffffffffffff021916908373ffffffffffffffffffffffffffffffffffffffff16021790555082601b60008381526020019081526020016000208190555050505050565b6118ec828260006040519080825280601f01601f1916602001820160405280156118e65781602001600182028038833980820191505090505b506119af565b5050565b60006118fb83611dcd565b8210611952576040517f08c379a000000000000000000000000000000000000000000000000000000000815260040180806020018281038252602b81526020018061639c602b913960400191505060405180910390fd5b600560008473ffffffffffffffffffffffffffffffffffffffff1673ffffffffffffffffffffffffffffffffffffffff168152602001908152602001600020828154811061199c57fe5b9060005260206000200154905092915050565b6119b76137aa565b73ffffffffffffffffffffffffffffffffffffffff163373ffffffffffffffffffffffffffffffffffffffff16146119ee57600080fd5b60006019600085815260200190815260200160002060009054906101000a900461ffff1690506000601a600086815260200190815260200160002060009054906101000a900473ffffffffffffffffffffffffffffffffffffffff1690506000601b600087815260200190815260200160002054905060008361ffff1660001b6001430340876040516020018082805190602001908083835b60208310611aaa5780518252602082019150602081019050602083039250611a87565b6001836020036101000a03801982511681845116808217855250505050505090500191505060405160208183030381529060405280519060200120181860001c9050611b0161ffff82613aca90919063ffffffff16565b601c600084815260200190815260200160002081905550611b228383613b14565b6019600088815260200190815260200160002060006101000a81549061ffff0219169055601a600088815260200190815260200160002060006101000a81549073ffffffffffffffffffffffffffffffffffffffff0219169055601b60008881526020019081526020016000206000905550505050505050565b611bb78383836040518060200160405280600081525061232a565b505050565b60125481565b6000611bcc611434565b8210611c23576040517f08c379a000000000000000000000000000000000000000000000000000000000815260040180806020018281038252602c8152602001806165e4602c913960400191505060405180910390fd5b60078281548110611c3057fe5b90600052602060002001549050919050565b60196020528060005260406000206000915054906101000a900461ffff1681565b6000806001600084815260200190815260200160002060009054906101000a900473ffffffffffffffffffffffffffffffffffffffff169050600073ffffffffffffffffffffffffffffffffffffffff168173ffffffffffffffffffffffffffffffffffffffff161415611d22576040517f08c379a00000000000000000000000000000000000000000000000000000000081526004018080602001828103825260298152602001806164e56029913960400191505060405180910390fd5b80915050919050565b6060600b8054600181600116156101000203166002900480601f016020809104026020016040519081016040528092919081815260200182805460018160011615610100020316600290048015611dc35780601f10611d9857610100808354040283529160200191611dc3565b820191906000526020600020905b815481529060010190602001808311611da657829003601f168201915b5050505050905090565b60008073ffffffffffffffffffffffffffffffffffffffff168273ffffffffffffffffffffffffffffffffffffffff161415611e54576040517f08c379a000000000000000000000000000000000000000000000000000000000815260040180806020018281038252602a8152602001806164bb602a913960400191505060405180910390fd5b611e9b600360008473ffffffffffffffffffffffffffffffffffffffff1673ffffffffffffffffffffffffffffffffffffffff168152602001908152602001600020613b32565b9050919050565b601360009054906101000a900473ffffffffffffffffffffffffffffffffffffffff1681565b601c6020528060005260406000206000915090505481565b6000806000806000806060806060806000601860008d8152602001908152602001600020905080600001549a508060010160000160009054906101000a900463ffffffff1699508060010160000160049054906101000a900460ff1698508060010160000160059054906101000a900462ffffff1697508060020160000160009054906101000a900460ff1696508060020160000160019054906101000a900462ffffff16955060008090505b60088110156120c15781600301600082815260200190815260200160002060000160009054906101000a900460ff16868281518110611fc857fe5b602002602001019060ff16908160ff168152505081600301600082815260200190815260200160002060000160019054906101000a900460ff1685828151811061200e57fe5b602002602001019060ff16908160ff168152505081600301600082815260200190815260200160002060000160029054906101000a900460ff1684828151811061205457fe5b602002602001019060ff16908160ff168152505081600301600082815260200190815260200160002060000160039054906101000a900462ffffff1683828151811061209c57fe5b602002602001019062ffffff16908162ffffff16815250508080600101915050611f8d565b50509193959799509193959799565b6060600a8054600181600116156101000203166002900480601f0160208091040260200160405190810160405280929190818152602001828054600181600116156101000203166002900480156121685780601f1061213d57610100808354040283529160200191612168565b820191906000526020600020905b81548152906001019060200180831161214b57829003601f168201915b5050505050905090565b61217a612f40565b73ffffffffffffffffffffffffffffffffffffffff168273ffffffffffffffffffffffffffffffffffffffff16141561221b576040517f08c379a00000000000000000000000000000000000000000000000000000000081526004018080602001828103825260198152602001807f4552433732313a20617070726f766520746f2063616c6c65720000000000000081525060200191505060405180910390fd5b8060046000612228612f40565b73ffffffffffffffffffffffffffffffffffffffff1673ffffffffffffffffffffffffffffffffffffffff16815260200190815260200160002060008473ffffffffffffffffffffffffffffffffffffffff1673ffffffffffffffffffffffffffffffffffffffff16815260200190815260200160002060006101000a81548160ff0219169083151502179055508173ffffffffffffffffffffffffffffffffffffffff166122d5612f40565b73ffffffffffffffffffffffffffffffffffffffff167f17307eab39ab6107e8899845ad3d59bd9653f200f220920489ca2b5937696c3183604051808215151515815260200191505060405180910390a35050565b61233b612335612f40565b83612f48565b612390576040517f08c379a00000000000000000000000000000000000000000000000000000000081526004018080602001828103825260318152602001806165b36031913960400191505060405180910390fd5b61239c84848484613b40565b50505050565b60606123ad82612ece565b612402576040517f08c379a000000000000000000000000000000000000000000000000000000000815260040180806020018281038252602f815260200180616563602f913960400191505060405180910390fd5b6060600c60008481526020019081526020016000208054600181600116156101000203166002900480601f0160208091040260200160405190810160405280929190818152602001828054600181600116156101000203166002900480156124ab5780601f10612480576101008083540402835291602001916124ab565b820191906000526020600020905b81548152906001019060200180831161248e57829003601f168201915b505050505090506000815114156124d4576040518060200160405280600081525091505061259f565b600b8160405160200180838054600181600116156101000203166002900480156125355780601f10612513576101008083540402835291820191612535565b820191906000526020600020905b815481529060010190602001808311612521575b505082805190602001908083835b602083106125665780518252602082019150602081019050602083039250612543565b6001836020036101000a038019825116818451168082178552505050505050905001925050506040516020818303038152906040529150505b919050565b66071afd498d000034146125b757600080fd5b6000601254116125c657600080fd5b3373ffffffffffffffffffffffffffffffffffffffff166125e683611c63565b73ffffffffffffffffffffffffffffffffffffffff161461260657600080fd5b3373ffffffffffffffffffffffffffffffffffffffff1661262682611c63565b73ffffffffffffffffffffffffffffffffffffffff161461264657600080fd5b60006001612652611434565b0190506000601860008381526020019081526020016000209050600281600001819055506040518060600160405280600163ffffffff168152602001600115158152602001600162ffffff168152508160010160008201518160000160006101000a81548163ffffffff021916908363ffffffff16021790555060208201518160000160046101000a81548160ff02191690831515021790555060408201518160000160056101000a81548162ffffff021916908362ffffff1602179055509050506040518060400160405280600115158152602001600162ffffff168152508160020160008201518160000160006101000a81548160ff02191690831515021790555060208201518160000160016101000a81548162ffffff021916908362ffffff1602179055509050506040518060800160405280600160ff168152602001600160ff168152602001600160ff168152602001600162ffffff1681525081600301600080815260200190815260200160002060008201518160000160006101000a81548160ff021916908360ff16021790555060208201518160000160016101000a81548160ff021916908360ff16021790555060408201518160000160026101000a81548160ff021916908360ff16021790555060608201518160000160036101000a81548162ffffff021916908362ffffff16021790555090505061285b33836130aa565b61286484613bb2565b61286d83613bb2565b6128dd66071afd498d00006128b9601360009054906101000a900473ffffffffffffffffffffffffffffffffffffffff1673ffffffffffffffffffffffffffffffffffffffff166130cb565b73ffffffffffffffffffffffffffffffffffffffff166130d590919063ffffffff16565b50505050565b66071afd498d000034146128f657600080fd5b60006012541161290557600080fd5b3373ffffffffffffffffffffffffffffffffffffffff1661292582611c63565b73ffffffffffffffffffffffffffffffffffffffff161461294557600080fd5b60006001612951611434565b0190506000601860008381526020019081526020016000209050600281600001819055506040518060600160405280600163ffffffff168152602001600115158152602001600162ffffff168152508160010160008201518160000160006101000a81548163ffffffff021916908363ffffffff16021790555060208201518160000160046101000a81548160ff02191690831515021790555060408201518160000160056101000a81548162ffffff021916908362ffffff1602179055509050506040518060400160405280600115158152602001600162ffffff168152508160020160008201518160000160006101000a81548160ff02191690831515021790555060208201518160000160016101000a81548162ffffff021916908362ffffff1602179055509050506040518060800160405280600160ff168152602001600160ff168152602001600160ff168152602001600162ffffff1681525081600301600080815260200190815260200160002060008201518160000160006101000a81548160ff021916908360ff16021790555060208201518160000160016101000a81548160ff021916908360ff16021790555060408201518160000160026101000a81548160ff021916908360ff16021790555060608201518160000160036101000a81548162ffffff021916908362ffffff160217905550905050612b5a33836130aa565b60006001612b66611434565b0190506000601860008381526020019081526020016000209050600281600001819055506040518060600160405280600163ffffffff168152602001600115158152602001600162ffffff168152508160010160008201518160000160006101000a81548163ffffffff021916908363ffffffff16021790555060208201518160000160046101000a81548160ff02191690831515021790555060408201518160000160056101000a81548162ffffff021916908362ffffff1602179055509050506040518060400160405280600115158152602001600162ffffff168152508160020160008201518160000160006101000a81548160ff02191690831515021790555060208201518160000160016101000a81548162ffffff021916908362ffffff1602179055509050506040518060800160405280600160ff168152602001600160ff168152602001600160ff168152602001600162ffffff1681525081600301600080815260200190815260200160002060008201518160000160006101000a81548160ff021916908360ff16021790555060208201518160000160016101000a81548160ff021916908360ff16021790555060408201518160000160026101000a81548160ff021916908360ff16021790555060608201518160000160036101000a81548162ffffff021916908362ffffff160217905550905050612d6f33836130aa565b612d7885613bb2565b612de866071afd498d0000612dc4601360009054906101000a900473ffffffffffffffffffffffffffffffffffffffff1673ffffffffffffffffffffffffffffffffffffffff166130cb565b73ffffffffffffffffffffffffffffffffffffffff166130d590919063ffffffff16565b5050505050565b6000600460008473ffffffffffffffffffffffffffffffffffffffff1673ffffffffffffffffffffffffffffffffffffffff16815260200190815260200160002060008373ffffffffffffffffffffffffffffffffffffffff1673ffffffffffffffffffffffffffffffffffffffff16815260200190815260200160002060009054906101000a900460ff16905092915050565b601a6020528060005260406000206000915054906101000a900473ffffffffffffffffffffffffffffffffffffffff1681565b601b6020528060005260406000206000915090505481565b6000806001600084815260200190815260200160002060009054906101000a900473ffffffffffffffffffffffffffffffffffffffff169050600073ffffffffffffffffffffffffffffffffffffffff168173ffffffffffffffffffffffffffffffffffffffff161415915050919050565b600033905090565b6000612f5382612ece565b612fa8576040517f08c379a000000000000000000000000000000000000000000000000000000000815260040180806020018281038252602c815260200180616457602c913960400191505060405180910390fd5b6000612fb383611c63565b90508073ffffffffffffffffffffffffffffffffffffffff168473ffffffffffffffffffffffffffffffffffffffff16148061302257508373ffffffffffffffffffffffffffffffffffffffff1661300a846111b2565b73ffffffffffffffffffffffffffffffffffffffff16145b8061303357506130328185612def565b5b91505092915050565b613047838383613bc7565b6130518382613e22565b61305b8282613fc0565b505050565b60006130a283836040518060400160405280601e81526020017f536166654d6174683a207375627472616374696f6e206f766572666c6f770000815250614087565b905092915050565b6130b48282614147565b6130be8282613fc0565b6130c78161435f565b5050565b6000819050919050565b8047101561314b576040517f08c379a000000000000000000000000000000000000000000000000000000000815260040180806020018281038252601d8152602001807f416464726573733a20696e73756666696369656e742062616c616e636500000081525060200191505060405180910390fd5b60008273ffffffffffffffffffffffffffffffffffffffff168260405180600001905060006040518083038185875af1925050503d80600081146131ab576040519150601f19603f3d011682016040523d82523d6000602084013e6131b0565b606091505b505090508061320a576040517f08c379a000000000000000000000000000000000000000000000000000000000815260040180806020018281038252603a81526020018061641d603a913960400191505060405180910390fd5b505050565b60008083118015613221575060208311155b61322a57600080fd5b600a84029350606060016040519080825280601f01601f1916602001820160405280156132665781602001600182028038833980820191505090505b5090508360f81b8160008151811061327a57fe5b60200101907effffffffffffffffffffffffffffffffffffffffffffffffffffffffffffff1916908160001a905350606060206040519080825280601f01601f1916602001820160405280156132df5781602001600182028038833980820191505090505b509050606060206040519080825280601f01601f1916602001820160405280156133185781602001600182028038833980820191505090505b50905060006133256143ab565b905060208352424118600143034018602084015260208252806020830152606060206040519080825280601f01601f1916602001820160405280156133795781602001600182028038833980820191505090505b509050886020820152606060086040519080825280601f01601f1916602001820160405280156133b85781602001600182028038833980820191505090505b5090506133cb82601860088460006146cb565b506133d4616241565b604051806080016040528087815260200188815260200186815260200184815250905060006134396040518060400160405280600681526020017f72616e646f6d0000000000000000000000000000000000000000000000000000815250838c61472a565b9050606060086040519080825280601f01601f1916602001820160405280156134715781602001600182028038833980820191505090505b50905060208401517f0100000000000000000000000000000000000000000000000000000000000000810460278301537e01000000000000000000000000000000000000000000000000000000000000810460268301537d010000000000000000000000000000000000000000000000000000000000810460258301537c0100000000000000000000000000000000000000000000000000000000810460248301537b01000000000000000000000000000000000000000000000000000000810460238301537a0100000000000000000000000000000000000000000000000000008104602283015379010000000000000000000000000000000000000000000000000081046021830153780100000000000000000000000000000000000000000000000081046020830153506137978282856001600481106135b057fe5b60200201516002876000600481106135c457fe5b60200201516040518082805190602001908083835b602083106135fc57805182526020820191506020810190506020830392506135d9565b6001836020036101000a038019825116818451168082178552505050505050905001915050602060405180830381855afa15801561363e573d6000803e3d6000fd5b5050506040513d602081101561365357600080fd5b81019080805190602001909291905050508760026004811061367157fe5b60200201516040516020018085805190602001908083835b602083106136ac5780518252602082019150602081019050602083039250613689565b6001836020036101000a03801982511681845116808217855250505050505090500184805190602001908083835b602083106136fd57805182526020820191506020810190506020830392506136da565b6001836020036101000a03801982511681845116808217855250505050505090500183815260200182805190602001908083835b602083106137545780518252602082019150602081019050602083039250613731565b6001836020036101000a03801982511681845116808217855250505050505090500194505050505060405160208183030381529060405280519060200120614a99565b8199505050505050505050509392505050565b60008073ffffffffffffffffffffffffffffffffffffffff16600e60009054906101000a900473ffffffffffffffffffffffffffffffffffffffff1673ffffffffffffffffffffffffffffffffffffffff16148061383257506000613830600e60009054906101000a900473ffffffffffffffffffffffffffffffffffffffff16614ab5565b145b15613843576138416000614ac0565b505b600e60009054906101000a900473ffffffffffffffffffffffffffffffffffffffff1673ffffffffffffffffffffffffffffffffffffffff166338cc48316040518163ffffffff1660e01b8152600401602060405180830381600087803b1580156138ad57600080fd5b505af11580156138c1573d6000803e3d6000fd5b505050506040513d60208110156138d757600080fd5b810190808051906020019092919050505073ffffffffffffffffffffffffffffffffffffffff16600d60009054906101000a900473ffffffffffffffffffffffffffffffffffffffff1673ffffffffffffffffffffffffffffffffffffffff1614613a2257600e60009054906101000a900473ffffffffffffffffffffffffffffffffffffffff1673ffffffffffffffffffffffffffffffffffffffff166338cc48316040518163ffffffff1660e01b8152600401602060405180830381600087803b1580156139a657600080fd5b505af11580156139ba573d6000803e3d6000fd5b505050506040513d60208110156139d057600080fd5b8101908080519060200190929190505050600d60006101000a81548173ffffffffffffffffffffffffffffffffffffffff021916908373ffffffffffffffffffffffffffffffffffffffff1602179055505b600d60009054906101000a900473ffffffffffffffffffffffffffffffffffffffff1673ffffffffffffffffffffffffffffffffffffffff1663c281d19e6040518163ffffffff1660e01b815260040160206040518083038186803b158015613a8a57600080fd5b505afa158015613a9e573d6000803e3d6000fd5b505050506040513d6020811015613ab457600080fd5b8101908080519060200190929190505050905090565b6000613b0c83836040518060400160405280601881526020017f536166654d6174683a206d6f64756c6f206279207a65726f0000000000000000815250614ad1565b905092915050565b613b2e828260405180602001604052806000815250614b92565b5050565b600081600001549050919050565b613b4b84848461303c565b613b5784848484614c03565b613bac576040517f08c379a00000000000000000000000000000000000000000000000000000000081526004018080602001828103825260328152602001806163c76032913960400191505060405180910390fd5b50505050565b613bc4613bbe82611c63565b82614f3f565b50565b8273ffffffffffffffffffffffffffffffffffffffff16613be782611c63565b73ffffffffffffffffffffffffffffffffffffffff1614613c53576040517f08c379a000000000000000000000000000000000000000000000000000000000815260040180806020018281038252602981526020018061653a6029913960400191505060405180910390fd5b600073ffffffffffffffffffffffffffffffffffffffff168273ffffffffffffffffffffffffffffffffffffffff161415613cd9576040517f08c379a00000000000000000000000000000000000000000000000000000000081526004018080602001828103825260248152602001806163f96024913960400191505060405180910390fd5b613ce281614f9c565b613d29600360008573ffffffffffffffffffffffffffffffffffffffff1673ffffffffffffffffffffffffffffffffffffffff16815260200190815260200160002061505a565b613d70600360008473ffffffffffffffffffffffffffffffffffffffff1673ffffffffffffffffffffffffffffffffffffffff16815260200190815260200160002061507d565b816001600083815260200190815260200160002060006101000a81548173ffffffffffffffffffffffffffffffffffffffff021916908373ffffffffffffffffffffffffffffffffffffffff160217905550808273ffffffffffffffffffffffffffffffffffffffff168473ffffffffffffffffffffffffffffffffffffffff167fddf252ad1be2c89b69c2b068fc378daa952ba7f163c4a11628f55a4df523b3ef60405160405180910390a4505050565b6000613e7a6001600560008673ffffffffffffffffffffffffffffffffffffffff1673ffffffffffffffffffffffffffffffffffffffff1681526020019081526020016000208054905061306090919063ffffffff16565b9050600060066000848152602001908152602001600020549050818114613f67576000600560008673ffffffffffffffffffffffffffffffffffffffff1673ffffffffffffffffffffffffffffffffffffffff1681526020019081526020016000208381548110613ee757fe5b9060005260206000200154905080600560008773ffffffffffffffffffffffffffffffffffffffff1673ffffffffffffffffffffffffffffffffffffffff1681526020019081526020016000208381548110613f3f57fe5b9060005260206000200181905550816006600083815260200190815260200160002081905550505b600560008573ffffffffffffffffffffffffffffffffffffffff1673ffffffffffffffffffffffffffffffffffffffff168152602001908152602001600020805480919060019003613fb99190616268565b5050505050565b600560008373ffffffffffffffffffffffffffffffffffffffff1673ffffffffffffffffffffffffffffffffffffffff168152602001908152602001600020805490506006600083815260200190815260200160002081905550600560008373ffffffffffffffffffffffffffffffffffffffff1673ffffffffffffffffffffffffffffffffffffffff1681526020019081526020016000208190806001815401808255809150509060018203906000526020600020016000909192909190915055505050565b6000838311158290614134576040517f08c379a00000000000000000000000000000000000000000000000000000000081526004018080602001828103825283818151815260200191508051906020019080838360005b838110156140f95780820151818401526020810190506140de565b50505050905090810190601f1680156141265780820380516001836020036101000a031916815260200191505b509250505060405180910390fd5b5060008385039050809150509392505050565b600073ffffffffffffffffffffffffffffffffffffffff168273ffffffffffffffffffffffffffffffffffffffff1614156141ea576040517f08c379a00000000000000000000000000000000000000000000000000000000081526004018080602001828103825260208152602001807f4552433732313a206d696e7420746f20746865207a65726f206164647265737381525060200191505060405180910390fd5b6141f381612ece565b15614266576040517f08c379a000000000000000000000000000000000000000000000000000000000815260040180806020018281038252601c8152602001807f4552433732313a20746f6b656e20616c7265616479206d696e7465640000000081525060200191505060405180910390fd5b816001600083815260200190815260200160002060006101000a81548173ffffffffffffffffffffffffffffffffffffffff021916908373ffffffffffffffffffffffffffffffffffffffff1602179055506142ff600360008473ffffffffffffffffffffffffffffffffffffffff1673ffffffffffffffffffffffffffffffffffffffff16815260200190815260200160002061507d565b808273ffffffffffffffffffffffffffffffffffffffff16600073ffffffffffffffffffffffffffffffffffffffff167fddf252ad1be2c89b69c2b068fc378daa952ba7f163c4a11628f55a4df523b3ef60405160405180910390a45050565b6007805490506008600083815260200190815260200160002081905550600781908060018154018082558091505090600182039060005260206000200160009091929091909150555050565b60008073ffffffffffffffffffffffffffffffffffffffff16600e60009054906101000a900473ffffffffffffffffffffffffffffffffffffffff1673ffffffffffffffffffffffffffffffffffffffff16148061443357506000614431600e60009054906101000a900473ffffffffffffffffffffffffffffffffffffffff16614ab5565b145b15614444576144426000614ac0565b505b600e60009054906101000a900473ffffffffffffffffffffffffffffffffffffffff1673ffffffffffffffffffffffffffffffffffffffff166338cc48316040518163ffffffff1660e01b8152600401602060405180830381600087803b1580156144ae57600080fd5b505af11580156144c2573d6000803e3d6000fd5b505050506040513d60208110156144d857600080fd5b810190808051906020019092919050505073ffffffffffffffffffffffffffffffffffffffff16600d60009054906101000a900473ffffffffffffffffffffffffffffffffffffffff1673ffffffffffffffffffffffffffffffffffffffff161461462357600e60009054906101000a900473ffffffffffffffffffffffffffffffffffffffff1673ffffffffffffffffffffffffffffffffffffffff166338cc48316040518163ffffffff1660e01b8152600401602060405180830381600087803b1580156145a757600080fd5b505af11580156145bb573d6000803e3d6000fd5b505050506040513d60208110156145d157600080fd5b8101908080519060200190929190505050600d60006101000a81548173ffffffffffffffffffffffffffffffffffffffff021916908373ffffffffffffffffffffffffffffffffffffffff1602179055505b600d60009054906101000a900473ffffffffffffffffffffffffffffffffffffffff1673ffffffffffffffffffffffffffffffffffffffff1663abaa5f3e6040518163ffffffff1660e01b815260040160206040518083038186803b15801561468b57600080fd5b505afa15801561469f573d6000803e3d6000fd5b505050506040513d60208110156146b557600080fd5b8101908080519060200190929190505050905090565b60606000828501905080845110156146e257600080fd5b600086602001905060008460200190505b86886020010182101561471b57818901518082880152506020820191506020810190506146f3565b85935050505095945050505050565b60008073ffffffffffffffffffffffffffffffffffffffff16600e60009054906101000a900473ffffffffffffffffffffffffffffffffffffffff1673ffffffffffffffffffffffffffffffffffffffff1614806147b2575060006147b0600e60009054906101000a900473ffffffffffffffffffffffffffffffffffffffff16614ab5565b145b156147c3576147c16000614ac0565b505b600e60009054906101000a900473ffffffffffffffffffffffffffffffffffffffff1673ffffffffffffffffffffffffffffffffffffffff166338cc48316040518163ffffffff1660e01b8152600401602060405180830381600087803b15801561482d57600080fd5b505af1158015614841573d6000803e3d6000fd5b505050506040513d602081101561485757600080fd5b810190808051906020019092919050505073ffffffffffffffffffffffffffffffffffffffff16600d60009054906101000a900473ffffffffffffffffffffffffffffffffffffffff1673ffffffffffffffffffffffffffffffffffffffff16146149a257600e60009054906101000a900473ffffffffffffffffffffffffffffffffffffffff1673ffffffffffffffffffffffffffffffffffffffff166338cc48316040518163ffffffff1660e01b8152600401602060405180830381600087803b15801561492657600080fd5b505af115801561493a573d6000803e3d6000fd5b505050506040513d602081101561495057600080fd5b8101908080519060200190929190505050600d60006101000a81548173ffffffffffffffffffffffffffffffffffffffff021916908373ffffffffffffffffffffffffffffffffffffffff1602179055505b606060046040519080825280602002602001820160405280156149d957816020015b60608152602001906001900390816149c45790505b509050836000600481106149e957fe5b6020020151816000815181106149fb57fe5b602002602001018190525083600160048110614a1357fe5b602002015181600181518110614a2557fe5b602002602001018190525083600260048110614a3d57fe5b602002015181600281518110614a4f57fe5b602002602001018190525083600360048110614a6757fe5b602002015181600381518110614a7957fe5b6020026020010181905250614a8f858285615093565b9150509392505050565b8060106000848152602001908152602001600020819055505050565b6000813b9050919050565b6000614aca6155f9565b9050919050565b6000808314158290614b7e576040517f08c379a00000000000000000000000000000000000000000000000000000000081526004018080602001828103825283818151815260200191508051906020019080838360005b83811015614b43578082015181840152602081019050614b28565b50505050905090810190601f168015614b705780820380516001836020036101000a031916815260200191505b509250505060405180910390fd5b50828481614b8857fe5b0690509392505050565b614b9c83836130aa565b614ba96000848484614c03565b614bfe576040517f08c379a00000000000000000000000000000000000000000000000000000000081526004018080602001828103825260328152602001806163c76032913960400191505060405180910390fd5b505050565b6000614c248473ffffffffffffffffffffffffffffffffffffffff16615b50565b614c315760019050614f37565b600060608573ffffffffffffffffffffffffffffffffffffffff168673ffffffffffffffffffffffffffffffffffffffff1663150b7a02905060e01b614c75612f40565b898888604051602401808573ffffffffffffffffffffffffffffffffffffffff1673ffffffffffffffffffffffffffffffffffffffff1681526020018473ffffffffffffffffffffffffffffffffffffffff1673ffffffffffffffffffffffffffffffffffffffff16815260200183815260200180602001828103825283818151815260200191508051906020019080838360005b83811015614d25578082015181840152602081019050614d0a565b50505050905090810190601f168015614d525780820380516001836020036101000a031916815260200191505b5095505050505050604051602081830303815290604052907bffffffffffffffffffffffffffffffffffffffffffffffffffffffff19166020820180517bffffffffffffffffffffffffffffffffffffffffffffffffffffffff83818316178352505050506040518082805190602001908083835b60208310614dea5780518252602082019150602081019050602083039250614dc7565b6001836020036101000a0380198251168184511680821785525050505050509050019150506000604051808303816000865af19150503d8060008114614e4c576040519150601f19603f3d011682016040523d82523d6000602084013e614e51565b606091505b509150915081614ebf57600081511115614e6e5780518082602001fd5b6040517f08c379a00000000000000000000000000000000000000000000000000000000081526004018080602001828103825260328152602001806163c76032913960400191505060405180910390fd5b6000818060200190516020811015614ed657600080fd5b8101908080519060200190929190505050905063150b7a0260e01b7bffffffffffffffffffffffffffffffffffffffffffffffffffffffff1916817bffffffffffffffffffffffffffffffffffffffffffffffffffffffff19161493505050505b949350505050565b614f498282615b9b565b6000600c600083815260200190815260200160002080546001816001161561010002031660029004905014614f9857600c60008281526020019081526020016000206000614f979190616294565b5b5050565b600073ffffffffffffffffffffffffffffffffffffffff166002600083815260200190815260200160002060009054906101000a900473ffffffffffffffffffffffffffffffffffffffff1673ffffffffffffffffffffffffffffffffffffffff16146150575760006002600083815260200190815260200160002060006101000a81548173ffffffffffffffffffffffffffffffffffffffff021916908373ffffffffffffffffffffffffffffffffffffffff1602179055505b50565b6150726001826000015461306090919063ffffffff16565b816000018190555050565b6001816000016000828254019250508190555050565b60008073ffffffffffffffffffffffffffffffffffffffff16600e60009054906101000a900473ffffffffffffffffffffffffffffffffffffffff1673ffffffffffffffffffffffffffffffffffffffff16148061511b57506000615119600e60009054906101000a900473ffffffffffffffffffffffffffffffffffffffff16614ab5565b145b1561512c5761512a6000614ac0565b505b600e60009054906101000a900473ffffffffffffffffffffffffffffffffffffffff1673ffffffffffffffffffffffffffffffffffffffff166338cc48316040518163ffffffff1660e01b8152600401602060405180830381600087803b15801561519657600080fd5b505af11580156151aa573d6000803e3d6000fd5b505050506040513d60208110156151c057600080fd5b810190808051906020019092919050505073ffffffffffffffffffffffffffffffffffffffff16600d60009054906101000a900473ffffffffffffffffffffffffffffffffffffffff1673ffffffffffffffffffffffffffffffffffffffff161461530b57600e60009054906101000a900473ffffffffffffffffffffffffffffffffffffffff1673ffffffffffffffffffffffffffffffffffffffff166338cc48316040518163ffffffff1660e01b8152600401602060405180830381600087803b15801561528f57600080fd5b505af11580156152a3573d6000803e3d6000fd5b505050506040513d60208110156152b957600080fd5b8101908080519060200190929190505050600d60006101000a81548173ffffffffffffffffffffffffffffffffffffffff021916908373ffffffffffffffffffffffffffffffffffffffff1602179055505b6000600d60009054906101000a900473ffffffffffffffffffffffffffffffffffffffff1673ffffffffffffffffffffffffffffffffffffffff16632ef3accc86856040518363ffffffff1660e01b81526004018080602001838152602001828103825284818151815260200191508051906020019080838360005b838110156153a2578082015181840152602081019050615387565b50505050905090810190601f1680156153cf5780820380516001836020036101000a031916815260200191505b509350505050602060405180830381600087803b1580156153ef57600080fd5b505af1158015615403573d6000803e3d6000fd5b505050506040513d602081101561541957600080fd5b81019080805190602001909291905050509050823a02670de0b6b3a76400000181111561544c576000801b9150506155f2565b606061545785615bd5565b9050600d60009054906101000a900473ffffffffffffffffffffffffffffffffffffffff1673ffffffffffffffffffffffffffffffffffffffff1663c55c1cb68360008985896040518663ffffffff1660e01b8152600401808581526020018060200180602001848152602001838103835286818151815260200191508051906020019080838360005b838110156154fc5780820151818401526020810190506154e1565b50505050905090810190601f1680156155295780820380516001836020036101000a031916815260200191505b50838103825285818151815260200191508051906020019080838360005b83811015615562578082015181840152602081019050615547565b50505050905090810190601f16801561558f5780820380516001836020036101000a031916815260200191505b5096505050505050506020604051808303818588803b1580156155b157600080fd5b505af11580156155c5573d6000803e3d6000fd5b50505050506040513d60208110156155dc57600080fd5b8101908080519060200190929190505050925050505b9392505050565b600080615619731d3b2638a7cc9f2cb3d298a3da7a90b67e5506ed614ab5565b11156156bb57731d3b2638a7cc9f2cb3d298a3da7a90b67e5506ed600e60006101000a81548173ffffffffffffffffffffffffffffffffffffffff021916908373ffffffffffffffffffffffffffffffffffffffff1602179055506156b26040518060400160405280600b81526020017f6574685f6d61696e6e6574000000000000000000000000000000000000000000815250615c55565b60019050615b4d565b60006156da73c03a2615d5efaf5f49f60b7bb6583eaec212fdf1614ab5565b111561577c5773c03a2615d5efaf5f49f60b7bb6583eaec212fdf1600e60006101000a81548173ffffffffffffffffffffffffffffffffffffffff021916908373ffffffffffffffffffffffffffffffffffffffff1602179055506157736040518060400160405280600c81526020017f6574685f726f707374656e330000000000000000000000000000000000000000815250615c55565b60019050615b4d565b600061579b73b7a07bcf2ba2f2703b24c0691b5278999c59ac7e614ab5565b111561583d5773b7a07bcf2ba2f2703b24c0691b5278999c59ac7e600e60006101000a81548173ffffffffffffffffffffffffffffffffffffffff021916908373ffffffffffffffffffffffffffffffffffffffff1602179055506158346040518060400160405280600981526020017f6574685f6b6f76616e0000000000000000000000000000000000000000000000815250615c55565b60019050615b4d565b600061585c73146500cfd35b22e4a392fe0adc06de1a1368ed48614ab5565b11156158fe5773146500cfd35b22e4a392fe0adc06de1a1368ed48600e60006101000a81548173ffffffffffffffffffffffffffffffffffffffff021916908373ffffffffffffffffffffffffffffffffffffffff1602179055506158f56040518060400160405280600b81526020017f6574685f72696e6b656279000000000000000000000000000000000000000000815250615c55565b60019050615b4d565b600061591d73a2998efd205fb9d4b4963afb70778d6354ad3a41614ab5565b11156159bf5773a2998efd205fb9d4b4963afb70778d6354ad3a41600e60006101000a81548173ffffffffffffffffffffffffffffffffffffffff021916908373ffffffffffffffffffffffffffffffffffffffff1602179055506159b66040518060400160405280600a81526020017f6574685f676f65726c6900000000000000000000000000000000000000000000815250615c55565b60019050615b4d565b60006159de736f485c8bf6fc43ea212e93bbf8ce046c7f1cb475614ab5565b1115615a4257736f485c8bf6fc43ea212e93bbf8ce046c7f1cb475600e60006101000a81548173ffffffffffffffffffffffffffffffffffffffff021916908373ffffffffffffffffffffffffffffffffffffffff16021790555060019050615b4d565b6000615a617320e12a1f859b3feae5fb2a0a32c18f5a65555bbf614ab5565b1115615ac5577320e12a1f859b3feae5fb2a0a32c18f5a65555bbf600e60006101000a81548173ffffffffffffffffffffffffffffffffffffffff021916908373ffffffffffffffffffffffffffffffffffffffff16021790555060019050615b4d565b6000615ae47351efaf4c8b3c9afbd5ab9f4bbc82784ab6ef8faa614ab5565b1115615b48577351efaf4c8b3c9afbd5ab9f4bbc82784ab6ef8faa600e60006101000a81548173ffffffffffffffffffffffffffffffffffffffff021916908373ffffffffffffffffffffffffffffffffffffffff16021790555060019050615b4d565b600090505b90565b60008060007fc5d2460186f7233c927e7db2dcc703c0e500b653ca82273b7bfad8045d85a47060001b9050833f9150808214158015615b9257506000801b8214155b92505050919050565b615ba58282615c6f565b615baf8282613e22565b60006006600083815260200190815260200160002081905550615bd181615dfe565b5050565b6060615bdf615eb8565b615be76162dc565b615bf381610400615ec4565b615bfc81615f0e565b60008090505b8351811015615c3e57615c31848281518110615c1a57fe5b602002602001015183615f1c90919063ffffffff16565b8080600101915050615c02565b50615c4881615f41565b8060000151915050919050565b80600f9080519060200190615c6b9291906162f6565b5050565b8173ffffffffffffffffffffffffffffffffffffffff16615c8f82611c63565b73ffffffffffffffffffffffffffffffffffffffff1614615cfb576040517f08c379a00000000000000000000000000000000000000000000000000000000081526004018080602001828103825260258152602001806166106025913960400191505060405180910390fd5b615d0481614f9c565b615d4b600360008473ffffffffffffffffffffffffffffffffffffffff1673ffffffffffffffffffffffffffffffffffffffff16815260200190815260200160002061505a565b60006001600083815260200190815260200160002060006101000a81548173ffffffffffffffffffffffffffffffffffffffff021916908373ffffffffffffffffffffffffffffffffffffffff16021790555080600073ffffffffffffffffffffffffffffffffffffffff168373ffffffffffffffffffffffffffffffffffffffff167fddf252ad1be2c89b69c2b068fc378daa952ba7f163c4a11628f55a4df523b3ef60405160405180910390a45050565b6000615e19600160078054905061306090919063ffffffff16565b9050600060086000848152602001908152602001600020549050600060078381548110615e4257fe5b906000526020600020015490508060078381548110615e5d57fe5b90600052602060002001819055508160086000838152602001908152602001600020819055506007805480919060019003615e989190616268565b506000600860008681526020019081526020016000208190555050505050565b60405180590338823950565b6000819050600060208281615ed557fe5b0614615eee5760208181615ee557fe5b06602003810190505b808360200181815250506040518084526000815281810160405250505050565b615f19816004615f4f565b50565b615f298260028351615f70565b615f3c81836160b090919063ffffffff16565b505050565b615f4c816007615f4f565b50565b615f6c601f60058360ff16901b178361615b90919063ffffffff16565b5050565b60178111615f9c57615f978160058460ff16901b60ff16178461615b90919063ffffffff16565b6160ab565b60ff8111615fdd57615fc1601860058460ff16901b178461615b90919063ffffffff16565b615fd78160018561619b9092919063ffffffff16565b506160aa565b61ffff811161601f57616003601960058460ff16901b178461615b90919063ffffffff16565b6160198160028561619b9092919063ffffffff16565b506160a9565b63ffffffff811161606357616047601a60058460ff16901b178461615b90919063ffffffff16565b61605d8160048561619b9092919063ffffffff16565b506160a8565b67ffffffffffffffff81116160a75761608f601b60058460ff16901b178461615b90919063ffffffff16565b6160a58160088561619b9092919063ffffffff16565b505b5b5b5b5b505050565b6160b86162dc565b826020015183600001515183510111156160e8576160e78360026160e186602001518651616202565b0261621e565b5b60008060008451905085518051602081830101945086518101825260208701935050505b6020811061612f578151835260208301925060208201915060208103905061610c565b60006001826020036101000a039050801983511681855116818117865250508694505050505092915050565b816020015160018360000151510111156161815761618082600284602001510261621e565b5b815180516020818301018381536001820183525050505050565b6161a36162dc565b8360200151846000015151830111156161d1576161d08460026161ca876020015186616202565b0261621e565b5b60006001836101000a0390508451805184818301018684198251161781528582018352505050849150509392505050565b60008183111561621457829050616218565b8190505b92915050565b6060826000015190506162318383615ec4565b61623b83826160b0565b50505050565b60405180608001604052806004905b60608152602001906001900390816162505790505090565b81548183558181111561628f5781836000526020600020918201910161628e9190616376565b5b505050565b50805460018160011615610100020316600290046000825580601f106162ba57506162d9565b601f0160209004906000526020600020908101906162d89190616376565b5b50565b604051806040016040528060608152602001600081525090565b828054600181600116156101000203166002900490600052602060002090601f016020900481019282601f1061633757805160ff1916838001178555616365565b82800160010185558215616365579182015b82811115616364578251825591602001919060010190616349565b5b5090506163729190616376565b5090565b61639891905b8082111561639457600081600090555060010161637c565b5090565b9056fe455243373231456e756d657261626c653a206f776e657220696e646578206f7574206f6620626f756e64734552433732313a207472616e7366657220746f206e6f6e20455243373231526563656976657220696d706c656d656e7465724552433732313a207472616e7366657220746f20746865207a65726f2061646472657373416464726573733a20756e61626c6520746f2073656e642076616c75652c20726563697069656e74206d617920686176652072657665727465644552433732313a206f70657261746f7220717565727920666f72206e6f6e6578697374656e7420746f6b656e4552433732313a20617070726f76652063616c6c6572206973206e6f74206f776e6572206e6f7220617070726f76656420666f7220616c6c4552433732313a2062616c616e636520717565727920666f7220746865207a65726f20616464726573734552433732313a206f776e657220717565727920666f72206e6f6e6578697374656e7420746f6b656e4552433732313a20617070726f76656420717565727920666f72206e6f6e6578697374656e7420746f6b656e4552433732313a207472616e73666572206f6620746f6b656e2074686174206973206e6f74206f776e4552433732314d657461646174613a2055524920717565727920666f72206e6f6e6578697374656e7420746f6b656e4552433732313a20617070726f76616c20746f2063757272656e74206f776e65724552433732313a207472616e736665722063616c6c6572206973206e6f74206f776e6572206e6f7220617070726f766564455243373231456e756d657261626c653a20676c6f62616c20696e646578206f7574206f6620626f756e64734552433732313a206275726e206f6620746f6b656e2074686174206973206e6f74206f776ea265627a7a7231582044577fc573478558847afc5f3c045b9475e9aae7f3d52262373d4c944fe26fd164736f6c63430005100032",
  "source": "pragma solidity ^0.5.0;\r\n\r\nimport \"@openzeppelin/contracts/token/ERC721/ERC721Full.sol\";\r\nimport \"@openzeppelin/contracts/math/SafeMath.sol\";\r\nimport \"./provableAPI_0.5.sol\";\r\n\r\ncontract OwnableDelegateProxy { }\r\n\r\ncontract ProxyRegistry {\r\n    mapping(address => OwnableDelegateProxy) public proxies;\r\n}\r\n\r\ncontract Cell is ERC721Full, usingProvable {\r\n    using Address for address payable;\r\n    using SafeMath for uint256;\r\n\r\n    uint public massPool;\r\n    address payable public owner = address(0xA096b47EbF7727d01Ff4F09c34Fc6591f2c375F0);\r\n    address proxyRegistryAddress;\r\n    uint constant private NUM_RANDOM_BYTES_REQUESTED = 2; //The variable `ceiling` should never be greater than: `(256 ^ NUM_RANDOM_BYTES_REQUESTED) - 1`.\r\n    uint private _currentTokenId;\r\n    uint private gasPrice = 4010000000; //many set exactly 4gwei, so adding 0.01 gwei increases speed much more than expected.\r\n    uint private gasAmount = 250000;\r\n    \r\n    struct Wall {\r\n        uint32 wave;\r\n        bool round;\r\n        uint24 color;\r\n    }\r\n\r\n    struct Nucleus {\r\n        bool hidden;\r\n        uint24 color;\r\n    }\r\n\r\n    struct Feature {\r\n        uint8 category;\r\n        uint8 family;\r\n        uint8 count;\r\n        uint24 color;\r\n    }\r\n\r\n    struct Metadata {\r\n        uint mass;\r\n        Wall wall;\r\n        Nucleus nucleus;\r\n        mapping(uint => Feature) features;\r\n    }\r\n\r\n    mapping(uint => Metadata) id_to_cell;\r\n    mapping(bytes32 => uint16) public provableQueryToSeed;\r\n    mapping(bytes32 => address) public provableQueryToAddress;\r\n    mapping(bytes32 => uint) public provableQueryToTokenId;\r\n    mapping(uint => uint) public nftSeed;\r\n    \r\n    event LogMintQuery(address minter, bytes32 queryId, uint seed, uint tokenId);\r\n\r\n    constructor(address _proxyRegistryAddress) ERC721Full(\"Cell\", \"(Y)\") public {\r\n        massPool = 53000000000000000000000000000000000000;\r\n        _mint(msg.sender, 1);\r\n        proxyRegistryAddress = _proxyRegistryAddress;\r\n        provable_setProof(proofType_Ledger);\r\n        provable_setCustomGasPrice(gasPrice);\r\n    }\r\n\r\n    function __callback(bytes32 _queryId, string memory _result, bytes memory _proof) public {\r\n        require(msg.sender == provable_cbAddress());\r\n\r\n        uint16 seed = provableQueryToSeed[_queryId];\r\n        address minterAddr = provableQueryToAddress[_queryId];\r\n        uint tokenIdR = provableQueryToTokenId[_queryId];\r\n\r\n        uint rand = uint(\r\n                keccak256(abi.encodePacked(_result)) ^ blockhash(block.number-1) ^ bytes32(uint(seed))\r\n            );\r\n        nftSeed[tokenIdR] = rand.mod(65535);\r\n\r\n        _safeMint(minterAddr,tokenIdR);\r\n        \r\n        delete provableQueryToSeed[_queryId];\r\n        delete provableQueryToAddress[_queryId];\r\n        delete provableQueryToTokenId[_queryId];\r\n    }\r\n\r\n\r\n    function mint(uint16 seed) public payable {\r\n        require(msg.value == 2 finney);\r\n        require(massPool >= 8);\r\n        uint tokenId = totalSupply() + 1;\r\n        Metadata storage cell = id_to_cell[tokenId];\r\n        cell.mass = 2;\r\n        cell.wall = Wall(1, true, 1);\r\n        cell.nucleus = Nucleus(true, 1);\r\n        cell.features[0] = Feature(1, 1, 1, 1);\r\n        massPool = massPool.sub(8);\r\n        _mint(msg.sender, tokenId);\r\n        owner.toPayable().sendValue(2 finney);\r\n\r\n        bytes32 queryId = provable_newRandomDSQuery(\r\n            0, //Execution delay\r\n            NUM_RANDOM_BYTES_REQUESTED,\r\n            gasAmount\r\n        );\r\n        emit LogMintQuery(msg.sender, queryId, seed, _currentTokenId);\r\n        provableQueryToSeed[queryId] = seed;\r\n        provableQueryToAddress[queryId] = msg.sender;\r\n        provableQueryToTokenId[queryId] = tokenId;\r\n\r\n    }\r\n\r\n    function merge(uint id1, uint id2) public payable {\r\n        require(msg.value == 2 finney);\r\n        require(massPool > 0);\r\n        require(ownerOf(id1) == msg.sender);\r\n        require(ownerOf(id2) == msg.sender);\r\n        uint tokenId = totalSupply() + 1;\r\n        Metadata storage cell = id_to_cell[tokenId];\r\n        cell.mass = 2;\r\n        cell.wall = Wall(1, true, 1);\r\n        cell.nucleus = Nucleus(true, 1);\r\n        cell.features[0] = Feature(1, 1, 1, 1);\r\n        _mint(msg.sender, tokenId);\r\n        _burn(id1);\r\n        _burn(id2);\r\n        owner.toPayable().sendValue(2 finney);\r\n    }\r\n\r\n    function split(uint id) public payable {\r\n        require(msg.value == 2 finney);\r\n        require(massPool > 0);\r\n        require(ownerOf(id) == msg.sender);\r\n        uint tokenId1 = totalSupply() + 1;\r\n        Metadata storage cell1 = id_to_cell[tokenId1];\r\n        cell1.mass = 2;\r\n        cell1.wall = Wall(1, true, 1);\r\n        cell1.nucleus = Nucleus(true, 1);\r\n        cell1.features[0] = Feature(1, 1, 1, 1);\r\n        _mint(msg.sender, tokenId1);\r\n        uint tokenId2 = totalSupply() + 1;\r\n        Metadata storage cell2 = id_to_cell[tokenId2];\r\n        cell2.mass = 2;\r\n        cell2.wall = Wall(1, true, 1);\r\n        cell2.nucleus = Nucleus(true, 1);\r\n        cell2.features[0] = Feature(1, 1, 1, 1);\r\n        _mint(msg.sender, tokenId2);\r\n        _burn(id);\r\n        owner.toPayable().sendValue(2 finney);\r\n    }\r\n\r\n    function get(uint id) external view returns (uint mass,\r\n        uint32 wallWave, bool wallRound, uint24 wallColor,\r\n        bool nucleusHidden, uint24 nucleusColor,\r\n        uint8[] memory featureCategories, uint8[] memory featureFamilies,\r\n        uint8[] memory featureCounts, uint24[] memory featureColors\r\n    ) {\r\n        Metadata storage cell = id_to_cell[id];\r\n        mass = cell.mass;\r\n        wallWave = cell.wall.wave;\r\n        wallRound = cell.wall.round;\r\n        wallColor = cell.wall.color;\r\n        nucleusHidden = cell.nucleus.hidden;\r\n        nucleusColor = cell.nucleus.color;\r\n        for (uint i = 0; i < 8; i++) {\r\n            featureCategories[i] = cell.features[i].category;\r\n            featureFamilies[i] = cell.features[i].family;\r\n            featureCounts[i] = cell.features[i].count;\r\n            featureColors[i] = cell.features[i].color;\r\n        }\r\n    }\r\n}",
  "sourcePath": "C:/Users/alexh/Source/cell/contracts/Cell.sol",
  "compiler": {
    "name": "solc",
    "version": "0.5.16+commit.9c3226ce.Emscripten.clang"
  },
  "schemaVersion": "3.0.21",
  "updatedAt": "2020-02-15T23:15:07.305Z",
  "devdoc": {
    "methods": {
      "__callback(bytes32,string)": {
        "details": "The following `__callback` functions are just placeholders ideally     meant to be defined in child contract when proofs are used.     The function bodies simply silence compiler warnings."
      },
      "approve(address,uint256)": {
        "details": "Approves another address to transfer the given token ID The zero address indicates there is no approved address. There can only be one approved address per token at a given time. Can only be called by the token owner or an approved operator.",
        "params": {
          "to": "address to be approved for the given token ID",
          "tokenId": "uint256 ID of the token to be approved"
        }
      },
      "balanceOf(address)": {
        "details": "Gets the balance of the specified address.",
        "params": {
          "owner": "address to query the balance of"
        },
        "return": "uint256 representing the amount owned by the passed address"
      },
      "baseURI()": {
        "details": "Returns the base URI set via {_setBaseURI}. This will be automatically added as a preffix in {tokenURI} to each token's URI, when they are non-empty.    * _Available since v2.5.0._"
      },
      "getApproved(uint256)": {
        "details": "Gets the approved address for a token ID, or zero if no address set Reverts if the token ID does not exist.",
        "params": {
          "tokenId": "uint256 ID of the token to query the approval of"
        },
        "return": "address currently approved for the given token ID"
      },
      "isApprovedForAll(address,address)": {
        "details": "Tells whether an operator is approved by a given owner.",
        "params": {
          "operator": "operator address which you want to query the approval of",
          "owner": "owner address which you want to query the approval of"
        },
        "return": "bool whether the given operator is approved by the given owner"
      },
      "name()": {
        "details": "Gets the token name.",
        "return": "string representing the token name"
      },
      "ownerOf(uint256)": {
        "details": "Gets the owner of the specified token ID.",
        "params": {
          "tokenId": "uint256 ID of the token to query the owner of"
        },
        "return": "address currently marked as the owner of the given token ID"
      },
      "safeTransferFrom(address,address,uint256)": {
        "details": "Safely transfers the ownership of a given token ID to another address If the target address is a contract, it must implement {IERC721Receiver-onERC721Received}, which is called upon a safe transfer, and return the magic value `bytes4(keccak256(\"onERC721Received(address,address,uint256,bytes)\"))`; otherwise, the transfer is reverted. Requires the msg.sender to be the owner, approved, or operator",
        "params": {
          "from": "current owner of the token",
          "to": "address to receive the ownership of the given token ID",
          "tokenId": "uint256 ID of the token to be transferred"
        }
      },
      "safeTransferFrom(address,address,uint256,bytes)": {
        "details": "Safely transfers the ownership of a given token ID to another address If the target address is a contract, it must implement {IERC721Receiver-onERC721Received}, which is called upon a safe transfer, and return the magic value `bytes4(keccak256(\"onERC721Received(address,address,uint256,bytes)\"))`; otherwise, the transfer is reverted. Requires the _msgSender() to be the owner, approved, or operator",
        "params": {
          "_data": "bytes data to send along with a safe transfer check",
          "from": "current owner of the token",
          "to": "address to receive the ownership of the given token ID",
          "tokenId": "uint256 ID of the token to be transferred"
        }
      },
      "setApprovalForAll(address,bool)": {
        "details": "Sets or unsets the approval of a given operator An operator is allowed to transfer all tokens of the sender on their behalf.",
        "params": {
          "approved": "representing the status of the approval to be set",
          "to": "operator address to set the approval"
        }
      },
      "supportsInterface(bytes4)": {
        "details": "See {IERC165-supportsInterface}.     * Time complexity O(1), guaranteed to always use less than 30 000 gas."
      },
      "symbol()": {
        "details": "Gets the token symbol.",
        "return": "string representing the token symbol"
      },
      "tokenByIndex(uint256)": {
        "details": "Gets the token ID at a given index of all the tokens in this contract Reverts if the index is greater or equal to the total number of tokens.",
        "params": {
          "index": "uint256 representing the index to be accessed of the tokens list"
        },
        "return": "uint256 token ID at the given index of the tokens list"
      },
      "tokenOfOwnerByIndex(address,uint256)": {
        "details": "Gets the token ID at a given index of the tokens list of the requested owner.",
        "params": {
          "index": "uint256 representing the index to be accessed of the requested tokens list",
          "owner": "address owning the tokens list to be accessed"
        },
        "return": "uint256 token ID at the given index of the tokens list owned by the requested address"
      },
      "tokenURI(uint256)": {
        "details": "Returns the URI for a given token ID. May return an empty string.     * If the token's URI is non-empty and a base URI was set (via {_setBaseURI}), it will be added to the token ID's URI as a prefix.     * Reverts if the token ID does not exist."
      },
      "totalSupply()": {
        "details": "Gets the total amount of tokens stored by the contract.",
        "return": "uint256 representing the total amount of tokens"
      },
      "transferFrom(address,address,uint256)": {
        "details": "Transfers the ownership of a given token ID to another address. Usage of this method is discouraged, use {safeTransferFrom} whenever possible. Requires the msg.sender to be the owner, approved, or operator.",
        "params": {
          "from": "current owner of the token",
          "to": "address to receive the ownership of the given token ID",
          "tokenId": "uint256 ID of the token to be transferred"
        }
      }
    }
  },
  "userdoc": {
    "methods": {}
  }
}